{
	"contracts/CrowdFunding.sol": {
		"CrowdFunding": {
			"abi": [
				{
					"inputs": [
						{
							"internalType": "uint256",
							"name": "_target",
							"type": "uint256"
						},
						{
							"internalType": "uint256",
							"name": "_deadline",
							"type": "uint256"
						}
					],
					"stateMutability": "nonpayable",
					"type": "constructor"
				},
				{
					"inputs": [
						{
							"internalType": "address",
							"name": "",
							"type": "address"
						}
					],
					"name": "contributors",
					"outputs": [
						{
							"internalType": "uint256",
							"name": "",
							"type": "uint256"
						}
					],
					"stateMutability": "view",
					"type": "function"
				},
				{
					"inputs": [
						{
							"internalType": "string",
							"name": "_description",
							"type": "string"
						},
						{
							"internalType": "address payable",
							"name": "_recipient",
							"type": "address"
						},
						{
							"internalType": "uint256",
							"name": "_value",
							"type": "uint256"
						}
					],
					"name": "createRequests",
					"outputs": [],
					"stateMutability": "nonpayable",
					"type": "function"
				},
				{
					"inputs": [],
					"name": "deadline",
					"outputs": [
						{
							"internalType": "uint256",
							"name": "",
							"type": "uint256"
						}
					],
					"stateMutability": "view",
					"type": "function"
				},
				{
					"inputs": [],
					"name": "getContractBalance",
					"outputs": [
						{
							"internalType": "uint256",
							"name": "",
							"type": "uint256"
						}
					],
					"stateMutability": "view",
					"type": "function"
				},
				{
					"inputs": [
						{
							"internalType": "uint256",
							"name": "_requestNo",
							"type": "uint256"
						}
					],
					"name": "makePayment",
					"outputs": [],
					"stateMutability": "nonpayable",
					"type": "function"
				},
				{
					"inputs": [],
					"name": "manager",
					"outputs": [
						{
							"internalType": "address",
							"name": "",
							"type": "address"
						}
					],
					"stateMutability": "view",
					"type": "function"
				},
				{
					"inputs": [],
					"name": "minContribution",
					"outputs": [
						{
							"internalType": "uint256",
							"name": "",
							"type": "uint256"
						}
					],
					"stateMutability": "view",
					"type": "function"
				},
				{
					"inputs": [],
					"name": "noOfContributors",
					"outputs": [
						{
							"internalType": "uint256",
							"name": "",
							"type": "uint256"
						}
					],
					"stateMutability": "view",
					"type": "function"
				},
				{
					"inputs": [],
					"name": "numRequests",
					"outputs": [
						{
							"internalType": "uint256",
							"name": "",
							"type": "uint256"
						}
					],
					"stateMutability": "view",
					"type": "function"
				},
				{
					"inputs": [],
					"name": "raisedAmt",
					"outputs": [
						{
							"internalType": "uint256",
							"name": "",
							"type": "uint256"
						}
					],
					"stateMutability": "view",
					"type": "function"
				},
				{
					"inputs": [],
					"name": "refund",
					"outputs": [],
					"stateMutability": "nonpayable",
					"type": "function"
				},
				{
					"inputs": [
						{
							"internalType": "uint256",
							"name": "",
							"type": "uint256"
						}
					],
					"name": "requests",
					"outputs": [
						{
							"internalType": "string",
							"name": "description",
							"type": "string"
						},
						{
							"internalType": "address payable",
							"name": "recipient",
							"type": "address"
						},
						{
							"internalType": "uint256",
							"name": "value",
							"type": "uint256"
						},
						{
							"internalType": "bool",
							"name": "completed",
							"type": "bool"
						},
						{
							"internalType": "uint256",
							"name": "noOfVoters",
							"type": "uint256"
						}
					],
					"stateMutability": "view",
					"type": "function"
				},
				{
					"inputs": [],
					"name": "sendEth",
					"outputs": [],
					"stateMutability": "payable",
					"type": "function"
				},
				{
					"inputs": [],
					"name": "target",
					"outputs": [
						{
							"internalType": "uint256",
							"name": "",
							"type": "uint256"
						}
					],
					"stateMutability": "view",
					"type": "function"
				},
				{
					"inputs": [
						{
							"internalType": "uint256",
							"name": "_requestNo",
							"type": "uint256"
						}
					],
					"name": "voteRequest",
					"outputs": [],
					"stateMutability": "nonpayable",
					"type": "function"
				}
			],
			"devdoc": {
				"kind": "dev",
				"methods": {},
				"version": 1
			},
			"evm": {
				"assembly": "    /* \"contracts/CrowdFunding.sol\":74:3976  contract CrowdFunding {\r... */\n  mstore(0x40, 0x80)\n    /* \"contracts/CrowdFunding.sol\":618:957  constructor(uint _target,uint _deadline){\r... */\n  callvalue\n  dup1\n  iszero\n  tag_1\n  jumpi\n  0x00\n  dup1\n  revert\ntag_1:\n  pop\n  mload(0x40)\n  sub(codesize, bytecodeSize)\n  dup1\n  bytecodeSize\n  dup4\n  codecopy\n  dup2\n  dup2\n  add\n  0x40\n  mstore\n  dup2\n  add\n  swap1\n  tag_2\n  swap2\n  swap1\n  tag_3\n  jump\t// in\ntag_2:\n    /* \"contracts/CrowdFunding.sol\":678:685  _target */\n  dup2\n    /* \"contracts/CrowdFunding.sol\":669:675  target */\n  0x04\n    /* \"contracts/CrowdFunding.sol\":669:685  target = _target */\n  dup2\n  swap1\n  sstore\n  pop\n    /* \"contracts/CrowdFunding.sol\":723:732  _deadline */\n  dup1\n    /* \"contracts/CrowdFunding.sol\":707:722  block.timestamp */\n  timestamp\n    /* \"contracts/CrowdFunding.sol\":707:732  block.timestamp+_deadline */\n  tag_6\n  swap2\n  swap1\n  tag_7\n  jump\t// in\ntag_6:\n    /* \"contracts/CrowdFunding.sol\":696:704  deadline */\n  0x03\n    /* \"contracts/CrowdFunding.sol\":696:732  deadline = block.timestamp+_deadline */\n  dup2\n  swap1\n  sstore\n  pop\n    /* \"contracts/CrowdFunding.sol\":911:918  100 wei */\n  0x64\n    /* \"contracts/CrowdFunding.sol\":893:908  minContribution */\n  0x02\n    /* \"contracts/CrowdFunding.sol\":893:918  minContribution = 100 wei */\n  dup2\n  swap1\n  sstore\n  pop\n    /* \"contracts/CrowdFunding.sol\":939:949  msg.sender */\n  caller\n    /* \"contracts/CrowdFunding.sol\":929:936  manager */\n  0x01\n  0x00\n    /* \"contracts/CrowdFunding.sol\":929:949  manager = msg.sender */\n  0x0100\n  exp\n  dup2\n  sload\n  dup2\n  0xffffffffffffffffffffffffffffffffffffffff\n  mul\n  not\n  and\n  swap1\n  dup4\n  0xffffffffffffffffffffffffffffffffffffffff\n  and\n  mul\n  or\n  swap1\n  sstore\n  pop\n    /* \"contracts/CrowdFunding.sol\":618:957  constructor(uint _target,uint _deadline){\r... */\n  pop\n  pop\n    /* \"contracts/CrowdFunding.sol\":74:3976  contract CrowdFunding {\r... */\n  jump(tag_8)\n    /* \"#utility.yul\":7:150   */\ntag_10:\n    /* \"#utility.yul\":64:69   */\n  0x00\n    /* \"#utility.yul\":95:101   */\n  dup2\n    /* \"#utility.yul\":89:102   */\n  mload\n    /* \"#utility.yul\":80:102   */\n  swap1\n  pop\n    /* \"#utility.yul\":111:144   */\n  tag_12\n    /* \"#utility.yul\":138:143   */\n  dup2\n    /* \"#utility.yul\":111:144   */\n  tag_13\n  jump\t// in\ntag_12:\n    /* \"#utility.yul\":7:150   */\n  swap3\n  swap2\n  pop\n  pop\n  jump\t// out\n    /* \"#utility.yul\":156:663   */\ntag_3:\n    /* \"#utility.yul\":235:241   */\n  0x00\n    /* \"#utility.yul\":243:249   */\n  dup1\n    /* \"#utility.yul\":292:294   */\n  0x40\n    /* \"#utility.yul\":280:289   */\n  dup4\n    /* \"#utility.yul\":271:278   */\n  dup6\n    /* \"#utility.yul\":267:290   */\n  sub\n    /* \"#utility.yul\":263:295   */\n  slt\n    /* \"#utility.yul\":260:379   */\n  iszero\n  tag_15\n  jumpi\n    /* \"#utility.yul\":298:377   */\n  tag_16\n  tag_17\n  jump\t// in\ntag_16:\n    /* \"#utility.yul\":260:379   */\ntag_15:\n    /* \"#utility.yul\":418:419   */\n  0x00\n    /* \"#utility.yul\":443:507   */\n  tag_18\n    /* \"#utility.yul\":499:506   */\n  dup6\n    /* \"#utility.yul\":490:496   */\n  dup3\n    /* \"#utility.yul\":479:488   */\n  dup7\n    /* \"#utility.yul\":475:497   */\n  add\n    /* \"#utility.yul\":443:507   */\n  tag_10\n  jump\t// in\ntag_18:\n    /* \"#utility.yul\":433:507   */\n  swap3\n  pop\n    /* \"#utility.yul\":389:517   */\n  pop\n    /* \"#utility.yul\":556:558   */\n  0x20\n    /* \"#utility.yul\":582:646   */\n  tag_19\n    /* \"#utility.yul\":638:645   */\n  dup6\n    /* \"#utility.yul\":629:635   */\n  dup3\n    /* \"#utility.yul\":618:627   */\n  dup7\n    /* \"#utility.yul\":614:636   */\n  add\n    /* \"#utility.yul\":582:646   */\n  tag_10\n  jump\t// in\ntag_19:\n    /* \"#utility.yul\":572:646   */\n  swap2\n  pop\n    /* \"#utility.yul\":527:656   */\n  pop\n    /* \"#utility.yul\":156:663   */\n  swap3\n  pop\n  swap3\n  swap1\n  pop\n  jump\t// out\n    /* \"#utility.yul\":750:1055   */\ntag_7:\n    /* \"#utility.yul\":790:793   */\n  0x00\n    /* \"#utility.yul\":809:829   */\n  tag_23\n    /* \"#utility.yul\":827:828   */\n  dup3\n    /* \"#utility.yul\":809:829   */\n  tag_24\n  jump\t// in\ntag_23:\n    /* \"#utility.yul\":804:829   */\n  swap2\n  pop\n    /* \"#utility.yul\":843:863   */\n  tag_25\n    /* \"#utility.yul\":861:862   */\n  dup4\n    /* \"#utility.yul\":843:863   */\n  tag_24\n  jump\t// in\ntag_25:\n    /* \"#utility.yul\":838:863   */\n  swap3\n  pop\n    /* \"#utility.yul\":997:998   */\n  dup3\n    /* \"#utility.yul\":929:995   */\n  0xffffffffffffffffffffffffffffffffffffffffffffffffffffffffffffffff\n    /* \"#utility.yul\":925:999   */\n  sub\n    /* \"#utility.yul\":922:923   */\n  dup3\n    /* \"#utility.yul\":919:1000   */\n  gt\n    /* \"#utility.yul\":916:1023   */\n  iszero\n  tag_26\n  jumpi\n    /* \"#utility.yul\":1003:1021   */\n  tag_27\n  tag_28\n  jump\t// in\ntag_27:\n    /* \"#utility.yul\":916:1023   */\ntag_26:\n    /* \"#utility.yul\":1047:1048   */\n  dup3\n    /* \"#utility.yul\":1044:1045   */\n  dup3\n    /* \"#utility.yul\":1040:1049   */\n  add\n    /* \"#utility.yul\":1033:1049   */\n  swap1\n  pop\n    /* \"#utility.yul\":750:1055   */\n  swap3\n  swap2\n  pop\n  pop\n  jump\t// out\n    /* \"#utility.yul\":1061:1138   */\ntag_24:\n    /* \"#utility.yul\":1098:1105   */\n  0x00\n    /* \"#utility.yul\":1127:1132   */\n  dup2\n    /* \"#utility.yul\":1116:1132   */\n  swap1\n  pop\n    /* \"#utility.yul\":1061:1138   */\n  swap2\n  swap1\n  pop\n  jump\t// out\n    /* \"#utility.yul\":1144:1324   */\ntag_28:\n    /* \"#utility.yul\":1192:1269   */\n  0x4e487b7100000000000000000000000000000000000000000000000000000000\n    /* \"#utility.yul\":1189:1190   */\n  0x00\n    /* \"#utility.yul\":1182:1270   */\n  mstore\n    /* \"#utility.yul\":1289:1293   */\n  0x11\n    /* \"#utility.yul\":1286:1287   */\n  0x04\n    /* \"#utility.yul\":1279:1294   */\n  mstore\n    /* \"#utility.yul\":1313:1317   */\n  0x24\n    /* \"#utility.yul\":1310:1311   */\n  0x00\n    /* \"#utility.yul\":1303:1318   */\n  revert\n    /* \"#utility.yul\":1453:1570   */\ntag_17:\n    /* \"#utility.yul\":1562:1563   */\n  0x00\n    /* \"#utility.yul\":1559:1560   */\n  dup1\n    /* \"#utility.yul\":1552:1564   */\n  revert\n    /* \"#utility.yul\":1576:1698   */\ntag_13:\n    /* \"#utility.yul\":1649:1673   */\n  tag_35\n    /* \"#utility.yul\":1667:1672   */\n  dup2\n    /* \"#utility.yul\":1649:1673   */\n  tag_24\n  jump\t// in\ntag_35:\n    /* \"#utility.yul\":1642:1647   */\n  dup2\n    /* \"#utility.yul\":1639:1674   */\n  eq\n    /* \"#utility.yul\":1629:1692   */\n  tag_36\n  jumpi\n    /* \"#utility.yul\":1688:1689   */\n  0x00\n    /* \"#utility.yul\":1685:1686   */\n  dup1\n    /* \"#utility.yul\":1678:1690   */\n  revert\n    /* \"#utility.yul\":1629:1692   */\ntag_36:\n    /* \"#utility.yul\":1576:1698   */\n  pop\n  jump\t// out\n    /* \"contracts/CrowdFunding.sol\":74:3976  contract CrowdFunding {\r... */\ntag_8:\n  dataSize(sub_0)\n  dup1\n  dataOffset(sub_0)\n  0x00\n  codecopy\n  0x00\n  return\nstop\n\nsub_0: assembly {\n        /* \"contracts/CrowdFunding.sol\":74:3976  contract CrowdFunding {\r... */\n      mstore(0x40, 0x80)\n      jumpi(tag_1, lt(calldatasize, 0x04))\n      shr(0xe0, calldataload(0x00))\n      dup1\n      0x4e260f6f\n      gt\n      tag_17\n      jumpi\n      dup1\n      0x81d12c58\n      gt\n      tag_18\n      jumpi\n      dup1\n      0x81d12c58\n      eq\n      tag_13\n      jumpi\n      dup1\n      0x9fb42b1f\n      eq\n      tag_14\n      jumpi\n      dup1\n      0xaaffadf3\n      eq\n      tag_15\n      jumpi\n      dup1\n      0xd4b83992\n      eq\n      tag_16\n      jumpi\n      jump(tag_1)\n    tag_18:\n      dup1\n      0x4e260f6f\n      eq\n      tag_9\n      jumpi\n      dup1\n      0x5114cb52\n      eq\n      tag_10\n      jumpi\n      dup1\n      0x590e1ae3\n      eq\n      tag_11\n      jumpi\n      dup1\n      0x6f9fb98a\n      eq\n      tag_12\n      jumpi\n      jump(tag_1)\n    tag_17:\n      dup1\n      0x3eb7647b\n      gt\n      tag_19\n      jumpi\n      dup1\n      0x3eb7647b\n      eq\n      tag_5\n      jumpi\n      dup1\n      0x3ece2b4f\n      eq\n      tag_6\n      jumpi\n      dup1\n      0x481c6a75\n      eq\n      tag_7\n      jumpi\n      dup1\n      0x4cb6f4a5\n      eq\n      tag_8\n      jumpi\n      jump(tag_1)\n    tag_19:\n      dup1\n      0x06e99fef\n      eq\n      tag_2\n      jumpi\n      dup1\n      0x1f6d4942\n      eq\n      tag_3\n      jumpi\n      dup1\n      0x29dcb0cf\n      eq\n      tag_4\n      jumpi\n    tag_1:\n      0x00\n      dup1\n      revert\n        /* \"contracts/CrowdFunding.sol\":965:1739  function sendEth() public payable{\r... */\n    tag_2:\n      tag_20\n      tag_21\n      jump\t// in\n    tag_20:\n      stop\n        /* \"contracts/CrowdFunding.sol\":103:147  mapping(address => uint) public contributors */\n    tag_3:\n      callvalue\n      dup1\n      iszero\n      tag_22\n      jumpi\n      0x00\n      dup1\n      revert\n    tag_22:\n      pop\n      tag_23\n      0x04\n      dup1\n      calldatasize\n      sub\n      dup2\n      add\n      swap1\n      tag_24\n      swap2\n      swap1\n      tag_25\n      jump\t// in\n    tag_24:\n      tag_26\n      jump\t// in\n    tag_23:\n      mload(0x40)\n      tag_27\n      swap2\n      swap1\n      tag_28\n      jump\t// in\n    tag_27:\n      mload(0x40)\n      dup1\n      swap2\n      sub\n      swap1\n      return\n        /* \"contracts/CrowdFunding.sol\":217:237  uint public deadline */\n    tag_4:\n      callvalue\n      dup1\n      iszero\n      tag_29\n      jumpi\n      0x00\n      dup1\n      revert\n    tag_29:\n      pop\n      tag_30\n      tag_31\n      jump\t// in\n    tag_30:\n      mload(0x40)\n      tag_32\n      swap2\n      swap1\n      tag_28\n      jump\t// in\n    tag_32:\n      mload(0x40)\n      dup1\n      swap2\n      sub\n      swap1\n      return\n        /* \"contracts/CrowdFunding.sol\":2416:2956  function createRequests(string memory _description, address payable _recipient, uint _value) public onlyManager{\r... */\n    tag_5:\n      callvalue\n      dup1\n      iszero\n      tag_33\n      jumpi\n      0x00\n      dup1\n      revert\n    tag_33:\n      pop\n      tag_34\n      0x04\n      dup1\n      calldatasize\n      sub\n      dup2\n      add\n      swap1\n      tag_35\n      swap2\n      swap1\n      tag_36\n      jump\t// in\n    tag_35:\n      tag_37\n      jump\t// in\n    tag_34:\n      stop\n        /* \"contracts/CrowdFunding.sol\":269:290  uint public raisedAmt */\n    tag_6:\n      callvalue\n      dup1\n      iszero\n      tag_38\n      jumpi\n      0x00\n      dup1\n      revert\n    tag_38:\n      pop\n      tag_39\n      tag_40\n      jump\t// in\n    tag_39:\n      mload(0x40)\n      tag_41\n      swap2\n      swap1\n      tag_28\n      jump\t// in\n    tag_41:\n      mload(0x40)\n      dup1\n      swap2\n      sub\n      swap1\n      return\n        /* \"contracts/CrowdFunding.sol\":154:176  address public manager */\n    tag_7:\n      callvalue\n      dup1\n      iszero\n      tag_42\n      jumpi\n      0x00\n      dup1\n      revert\n    tag_42:\n      pop\n      tag_43\n      tag_44\n      jump\t// in\n    tag_43:\n      mload(0x40)\n      tag_45\n      swap2\n      swap1\n      tag_46\n      jump\t// in\n    tag_45:\n      mload(0x40)\n      dup1\n      swap2\n      sub\n      swap1\n      return\n        /* \"contracts/CrowdFunding.sol\":2964:3492  function voteRequest(uint _requestNo) public{\r... */\n    tag_8:\n      callvalue\n      dup1\n      iszero\n      tag_47\n      jumpi\n      0x00\n      dup1\n      revert\n    tag_47:\n      pop\n      tag_48\n      0x04\n      dup1\n      calldatasize\n      sub\n      dup2\n      add\n      swap1\n      tag_49\n      swap2\n      swap1\n      tag_50\n      jump\t// in\n    tag_49:\n      tag_51\n      jump\t// in\n    tag_48:\n      stop\n        /* \"contracts/CrowdFunding.sol\":297:325  uint public noOfContributors */\n    tag_9:\n      callvalue\n      dup1\n      iszero\n      tag_52\n      jumpi\n      0x00\n      dup1\n      revert\n    tag_52:\n      pop\n      tag_53\n      tag_54\n      jump\t// in\n    tag_53:\n      mload(0x40)\n      tag_55\n      swap2\n      swap1\n      tag_28\n      jump\t// in\n    tag_55:\n      mload(0x40)\n      dup1\n      swap2\n      sub\n      swap1\n      return\n        /* \"contracts/CrowdFunding.sol\":3500:3973  function makePayment(uint _requestNo) public onlyManager{\r... */\n    tag_10:\n      callvalue\n      dup1\n      iszero\n      tag_56\n      jumpi\n      0x00\n      dup1\n      revert\n    tag_56:\n      pop\n      tag_57\n      0x04\n      dup1\n      calldatasize\n      sub\n      dup2\n      add\n      swap1\n      tag_58\n      swap2\n      swap1\n      tag_50\n      jump\t// in\n    tag_58:\n      tag_59\n      jump\t// in\n    tag_57:\n      stop\n        /* \"contracts/CrowdFunding.sol\":1857:2277  function refund() public{\r... */\n    tag_11:\n      callvalue\n      dup1\n      iszero\n      tag_60\n      jumpi\n      0x00\n      dup1\n      revert\n    tag_60:\n      pop\n      tag_61\n      tag_62\n      jump\t// in\n    tag_61:\n      stop\n        /* \"contracts/CrowdFunding.sol\":1747:1849  function getContractBalance() public view returns(uint){\r... */\n    tag_12:\n      callvalue\n      dup1\n      iszero\n      tag_63\n      jumpi\n      0x00\n      dup1\n      revert\n    tag_63:\n      pop\n      tag_64\n      tag_65\n      jump\t// in\n    tag_64:\n      mload(0x40)\n      tag_66\n      swap2\n      swap1\n      tag_28\n      jump\t// in\n    tag_66:\n      mload(0x40)\n      dup1\n      swap2\n      sub\n      swap1\n      return\n        /* \"contracts/CrowdFunding.sol\":539:579  mapping(uint => Request) public requests */\n    tag_13:\n      callvalue\n      dup1\n      iszero\n      tag_67\n      jumpi\n      0x00\n      dup1\n      revert\n    tag_67:\n      pop\n      tag_68\n      0x04\n      dup1\n      calldatasize\n      sub\n      dup2\n      add\n      swap1\n      tag_69\n      swap2\n      swap1\n      tag_50\n      jump\t// in\n    tag_69:\n      tag_70\n      jump\t// in\n    tag_68:\n      mload(0x40)\n      tag_71\n      swap6\n      swap5\n      swap4\n      swap3\n      swap2\n      swap1\n      tag_72\n      jump\t// in\n    tag_71:\n      mload(0x40)\n      dup1\n      swap2\n      sub\n      swap1\n      return\n        /* \"contracts/CrowdFunding.sol\":586:609  uint public numRequests */\n    tag_14:\n      callvalue\n      dup1\n      iszero\n      tag_73\n      jumpi\n      0x00\n      dup1\n      revert\n    tag_73:\n      pop\n      tag_74\n      tag_75\n      jump\t// in\n    tag_74:\n      mload(0x40)\n      tag_76\n      swap2\n      swap1\n      tag_28\n      jump\t// in\n    tag_76:\n      mload(0x40)\n      dup1\n      swap2\n      sub\n      swap1\n      return\n        /* \"contracts/CrowdFunding.sol\":183:210  uint public minContribution */\n    tag_15:\n      callvalue\n      dup1\n      iszero\n      tag_77\n      jumpi\n      0x00\n      dup1\n      revert\n    tag_77:\n      pop\n      tag_78\n      tag_79\n      jump\t// in\n    tag_78:\n      mload(0x40)\n      tag_80\n      swap2\n      swap1\n      tag_28\n      jump\t// in\n    tag_80:\n      mload(0x40)\n      dup1\n      swap2\n      sub\n      swap1\n      return\n        /* \"contracts/CrowdFunding.sol\":244:262  uint public target */\n    tag_16:\n      callvalue\n      dup1\n      iszero\n      tag_81\n      jumpi\n      0x00\n      dup1\n      revert\n    tag_81:\n      pop\n      tag_82\n      tag_83\n      jump\t// in\n    tag_82:\n      mload(0x40)\n      tag_84\n      swap2\n      swap1\n      tag_28\n      jump\t// in\n    tag_84:\n      mload(0x40)\n      dup1\n      swap2\n      sub\n      swap1\n      return\n        /* \"contracts/CrowdFunding.sol\":965:1739  function sendEth() public payable{\r... */\n    tag_21:\n        /* \"contracts/CrowdFunding.sol\":1035:1043  deadline */\n      sload(0x03)\n        /* \"contracts/CrowdFunding.sol\":1017:1032  block.timestamp */\n      timestamp\n        /* \"contracts/CrowdFunding.sol\":1017:1043  block.timestamp < deadline */\n      lt\n        /* \"contracts/CrowdFunding.sol\":1009:1066  require(block.timestamp < deadline,\"Deadline has passed\") */\n      tag_86\n      jumpi\n      mload(0x40)\n      0x08c379a000000000000000000000000000000000000000000000000000000000\n      dup2\n      mstore\n      0x04\n      add\n      tag_87\n      swap1\n      tag_88\n      jump\t// in\n    tag_87:\n      mload(0x40)\n      dup1\n      swap2\n      sub\n      swap1\n      revert\n    tag_86:\n        /* \"contracts/CrowdFunding.sol\":1097:1112  minContribution */\n      sload(0x02)\n        /* \"contracts/CrowdFunding.sol\":1085:1094  msg.value */\n      callvalue\n        /* \"contracts/CrowdFunding.sol\":1085:1112  msg.value>= minContribution */\n      lt\n      iszero\n        /* \"contracts/CrowdFunding.sol\":1077:1147  require(msg.value>= minContribution,\"Minimum contribution is not met\") */\n      tag_89\n      jumpi\n      mload(0x40)\n      0x08c379a000000000000000000000000000000000000000000000000000000000\n      dup2\n      mstore\n      0x04\n      add\n      tag_90\n      swap1\n      tag_91\n      jump\t// in\n    tag_90:\n      mload(0x40)\n      dup1\n      swap2\n      sub\n      swap1\n      revert\n    tag_89:\n        /* \"contracts/CrowdFunding.sol\":1191:1192  0 */\n      0x00\n        /* \"contracts/CrowdFunding.sol\":1163:1175  contributors */\n      dup1\n        /* \"contracts/CrowdFunding.sol\":1163:1187  contributors[msg.sender] */\n      0x00\n        /* \"contracts/CrowdFunding.sol\":1176:1186  msg.sender */\n      caller\n        /* \"contracts/CrowdFunding.sol\":1163:1187  contributors[msg.sender] */\n      0xffffffffffffffffffffffffffffffffffffffff\n      and\n      0xffffffffffffffffffffffffffffffffffffffff\n      and\n      dup2\n      mstore\n      0x20\n      add\n      swap1\n      dup2\n      mstore\n      0x20\n      add\n      0x00\n      keccak256\n      sload\n        /* \"contracts/CrowdFunding.sol\":1163:1192  contributors[msg.sender] == 0 */\n      eq\n        /* \"contracts/CrowdFunding.sol\":1160:1319  if(contributors[msg.sender] == 0){  //check for 1st time contributor, if yes adding him to the list of contributors\r... */\n      iszero\n      tag_92\n      jumpi\n        /* \"contracts/CrowdFunding.sol\":1289:1305  noOfContributors */\n      0x06\n      0x00\n        /* \"contracts/CrowdFunding.sol\":1289:1307  noOfContributors++ */\n      dup2\n      sload\n      dup1\n      swap3\n      swap2\n      swap1\n      tag_93\n      swap1\n      tag_94\n      jump\t// in\n    tag_93:\n      swap2\n      swap1\n      pop\n      sstore\n      pop\n        /* \"contracts/CrowdFunding.sol\":1160:1319  if(contributors[msg.sender] == 0){  //check for 1st time contributor, if yes adding him to the list of contributors\r... */\n    tag_92:\n        /* \"contracts/CrowdFunding.sol\":1355:1364  msg.value */\n      callvalue\n        /* \"contracts/CrowdFunding.sol\":1329:1341  contributors */\n      0x00\n        /* \"contracts/CrowdFunding.sol\":1329:1353  contributors[msg.sender] */\n      dup1\n        /* \"contracts/CrowdFunding.sol\":1342:1352  msg.sender */\n      caller\n        /* \"contracts/CrowdFunding.sol\":1329:1353  contributors[msg.sender] */\n      0xffffffffffffffffffffffffffffffffffffffff\n      and\n      0xffffffffffffffffffffffffffffffffffffffff\n      and\n      dup2\n      mstore\n      0x20\n      add\n      swap1\n      dup2\n      mstore\n      0x20\n      add\n      0x00\n      keccak256\n      0x00\n        /* \"contracts/CrowdFunding.sol\":1329:1364  contributors[msg.sender]+=msg.value */\n      dup3\n      dup3\n      sload\n      tag_95\n      swap2\n      swap1\n      tag_96\n      jump\t// in\n    tag_95:\n      swap3\n      pop\n      pop\n      dup2\n      swap1\n      sstore\n      pop\n        /* \"contracts/CrowdFunding.sol\":1675:1684  msg.value */\n      callvalue\n        /* \"contracts/CrowdFunding.sol\":1662:1671  raisedAmt */\n      0x05\n      0x00\n        /* \"contracts/CrowdFunding.sol\":1662:1684  raisedAmt += msg.value */\n      dup3\n      dup3\n      sload\n      tag_97\n      swap2\n      swap1\n      tag_96\n      jump\t// in\n    tag_97:\n      swap3\n      pop\n      pop\n      dup2\n      swap1\n      sstore\n      pop\n        /* \"contracts/CrowdFunding.sol\":965:1739  function sendEth() public payable{\r... */\n      jump\t// out\n        /* \"contracts/CrowdFunding.sol\":103:147  mapping(address => uint) public contributors */\n    tag_26:\n      mstore(0x20, 0x00)\n      dup1\n      0x00\n      mstore\n      keccak256(0x00, 0x40)\n      0x00\n      swap2\n      pop\n      swap1\n      pop\n      sload\n      dup2\n      jump\t// out\n        /* \"contracts/CrowdFunding.sol\":217:237  uint public deadline */\n    tag_31:\n      sload(0x03)\n      dup2\n      jump\t// out\n        /* \"contracts/CrowdFunding.sol\":2416:2956  function createRequests(string memory _description, address payable _recipient, uint _value) public onlyManager{\r... */\n    tag_37:\n        /* \"contracts/CrowdFunding.sol\":2340:2347  manager */\n      0x01\n      0x00\n      swap1\n      sload\n      swap1\n      0x0100\n      exp\n      swap1\n      div\n      0xffffffffffffffffffffffffffffffffffffffff\n      and\n        /* \"contracts/CrowdFunding.sol\":2326:2347  msg.sender == manager */\n      0xffffffffffffffffffffffffffffffffffffffff\n      and\n        /* \"contracts/CrowdFunding.sol\":2326:2336  msg.sender */\n      caller\n        /* \"contracts/CrowdFunding.sol\":2326:2347  msg.sender == manager */\n      0xffffffffffffffffffffffffffffffffffffffff\n      and\n      eq\n        /* \"contracts/CrowdFunding.sol\":2318:2388  require(msg.sender == manager, \"Only Manager can call this function!\") */\n      tag_99\n      jumpi\n      mload(0x40)\n      0x08c379a000000000000000000000000000000000000000000000000000000000\n      dup2\n      mstore\n      0x04\n      add\n      tag_100\n      swap1\n      tag_101\n      jump\t// in\n    tag_100:\n      mload(0x40)\n      dup1\n      swap2\n      sub\n      swap1\n      revert\n    tag_99:\n        /* \"contracts/CrowdFunding.sol\":2538:2564  Request storage newRequest */\n      0x00\n        /* \"contracts/CrowdFunding.sol\":2567:2575  requests */\n      0x07\n        /* \"contracts/CrowdFunding.sol\":2567:2588  requests[numRequests] */\n      0x00\n        /* \"contracts/CrowdFunding.sol\":2576:2587  numRequests */\n      sload(0x08)\n        /* \"contracts/CrowdFunding.sol\":2567:2588  requests[numRequests] */\n      dup2\n      mstore\n      0x20\n      add\n      swap1\n      dup2\n      mstore\n      0x20\n      add\n      0x00\n      keccak256\n        /* \"contracts/CrowdFunding.sol\":2538:2588  Request storage newRequest = requests[numRequests] */\n      swap1\n      pop\n        /* \"contracts/CrowdFunding.sol\":2637:2648  numRequests */\n      0x08\n      0x00\n        /* \"contracts/CrowdFunding.sol\":2637:2650  numRequests++ */\n      dup2\n      sload\n      dup1\n      swap3\n      swap2\n      swap1\n      tag_103\n      swap1\n      tag_94\n      jump\t// in\n    tag_103:\n      swap2\n      swap1\n      pop\n      sstore\n      pop\n        /* \"contracts/CrowdFunding.sol\":2686:2698  _description */\n      dup4\n        /* \"contracts/CrowdFunding.sol\":2661:2671  newRequest */\n      dup2\n        /* \"contracts/CrowdFunding.sol\":2661:2683  newRequest.description */\n      0x00\n      add\n        /* \"contracts/CrowdFunding.sol\":2661:2698  newRequest.description = _description */\n      swap1\n      dup1\n      mload\n      swap1\n      0x20\n      add\n      swap1\n      tag_104\n      swap3\n      swap2\n      swap1\n      tag_105\n      jump\t// in\n    tag_104:\n      pop\n        /* \"contracts/CrowdFunding.sol\":2732:2742  _recipient */\n      dup3\n        /* \"contracts/CrowdFunding.sol\":2709:2719  newRequest */\n      dup2\n        /* \"contracts/CrowdFunding.sol\":2709:2729  newRequest.recipient */\n      0x01\n      add\n      0x00\n        /* \"contracts/CrowdFunding.sol\":2709:2742  newRequest.recipient = _recipient */\n      0x0100\n      exp\n      dup2\n      sload\n      dup2\n      0xffffffffffffffffffffffffffffffffffffffff\n      mul\n      not\n      and\n      swap1\n      dup4\n      0xffffffffffffffffffffffffffffffffffffffff\n      and\n      mul\n      or\n      swap1\n      sstore\n      pop\n        /* \"contracts/CrowdFunding.sol\":2772:2778  _value */\n      dup2\n        /* \"contracts/CrowdFunding.sol\":2753:2763  newRequest */\n      dup2\n        /* \"contracts/CrowdFunding.sol\":2753:2769  newRequest.value */\n      0x02\n      add\n        /* \"contracts/CrowdFunding.sol\":2753:2778  newRequest.value = _value */\n      dup2\n      swap1\n      sstore\n      pop\n        /* \"contracts/CrowdFunding.sol\":2812:2817  false */\n      0x00\n        /* \"contracts/CrowdFunding.sol\":2789:2799  newRequest */\n      dup2\n        /* \"contracts/CrowdFunding.sol\":2789:2809  newRequest.completed */\n      0x03\n      add\n      0x00\n        /* \"contracts/CrowdFunding.sol\":2789:2817  newRequest.completed = false */\n      0x0100\n      exp\n      dup2\n      sload\n      dup2\n      0xff\n      mul\n      not\n      and\n      swap1\n      dup4\n      iszero\n      iszero\n      mul\n      or\n      swap1\n      sstore\n      pop\n        /* \"contracts/CrowdFunding.sol\":2852:2853  0 */\n      0x00\n        /* \"contracts/CrowdFunding.sol\":2828:2838  newRequest */\n      dup2\n        /* \"contracts/CrowdFunding.sol\":2828:2849  newRequest.noOfVoters */\n      0x04\n      add\n        /* \"contracts/CrowdFunding.sol\":2828:2853  newRequest.noOfVoters = 0 */\n      dup2\n      swap1\n      sstore\n      pop\n        /* \"contracts/CrowdFunding.sol\":2527:2956  {\r... */\n      pop\n        /* \"contracts/CrowdFunding.sol\":2416:2956  function createRequests(string memory _description, address payable _recipient, uint _value) public onlyManager{\r... */\n      pop\n      pop\n      pop\n      jump\t// out\n        /* \"contracts/CrowdFunding.sol\":269:290  uint public raisedAmt */\n    tag_40:\n      sload(0x05)\n      dup2\n      jump\t// out\n        /* \"contracts/CrowdFunding.sol\":154:176  address public manager */\n    tag_44:\n      0x01\n      0x00\n      swap1\n      sload\n      swap1\n      0x0100\n      exp\n      swap1\n      div\n      0xffffffffffffffffffffffffffffffffffffffff\n      and\n      dup2\n      jump\t// out\n        /* \"contracts/CrowdFunding.sol\":2964:3492  function voteRequest(uint _requestNo) public{\r... */\n    tag_51:\n        /* \"contracts/CrowdFunding.sol\":3054:3055  0 */\n      0x00\n        /* \"contracts/CrowdFunding.sol\":3027:3039  contributors */\n      dup1\n        /* \"contracts/CrowdFunding.sol\":3027:3051  contributors[msg.sender] */\n      0x00\n        /* \"contracts/CrowdFunding.sol\":3040:3050  msg.sender */\n      caller\n        /* \"contracts/CrowdFunding.sol\":3027:3051  contributors[msg.sender] */\n      0xffffffffffffffffffffffffffffffffffffffff\n      and\n      0xffffffffffffffffffffffffffffffffffffffff\n      and\n      dup2\n      mstore\n      0x20\n      add\n      swap1\n      dup2\n      mstore\n      0x20\n      add\n      0x00\n      keccak256\n      sload\n        /* \"contracts/CrowdFunding.sol\":3027:3055  contributors[msg.sender] > 0 */\n      gt\n        /* \"contracts/CrowdFunding.sol\":3019:3084  require(contributors[msg.sender] > 0,\"You must be a contributor\") */\n      tag_107\n      jumpi\n      mload(0x40)\n      0x08c379a000000000000000000000000000000000000000000000000000000000\n      dup2\n      mstore\n      0x04\n      add\n      tag_108\n      swap1\n      tag_109\n      jump\t// in\n    tag_108:\n      mload(0x40)\n      dup1\n      swap2\n      sub\n      swap1\n      revert\n    tag_107:\n        /* \"contracts/CrowdFunding.sol\":3095:3122  Request storage thisRequest */\n      0x00\n        /* \"contracts/CrowdFunding.sol\":3125:3133  requests */\n      0x07\n        /* \"contracts/CrowdFunding.sol\":3125:3145  requests[_requestNo] */\n      0x00\n        /* \"contracts/CrowdFunding.sol\":3134:3144  _requestNo */\n      dup4\n        /* \"contracts/CrowdFunding.sol\":3125:3145  requests[_requestNo] */\n      dup2\n      mstore\n      0x20\n      add\n      swap1\n      dup2\n      mstore\n      0x20\n      add\n      0x00\n      keccak256\n        /* \"contracts/CrowdFunding.sol\":3095:3145  Request storage thisRequest = requests[_requestNo] */\n      swap1\n      pop\n        /* \"contracts/CrowdFunding.sol\":3198:3203  false */\n      0x00\n        /* \"contracts/CrowdFunding.sol\":3164:3203  thisRequest.voters[msg.sender] == false */\n      iszero\n      iszero\n        /* \"contracts/CrowdFunding.sol\":3164:3175  thisRequest */\n      dup2\n        /* \"contracts/CrowdFunding.sol\":3164:3182  thisRequest.voters */\n      0x05\n      add\n        /* \"contracts/CrowdFunding.sol\":3164:3194  thisRequest.voters[msg.sender] */\n      0x00\n        /* \"contracts/CrowdFunding.sol\":3183:3193  msg.sender */\n      caller\n        /* \"contracts/CrowdFunding.sol\":3164:3194  thisRequest.voters[msg.sender] */\n      0xffffffffffffffffffffffffffffffffffffffff\n      and\n      0xffffffffffffffffffffffffffffffffffffffff\n      and\n      dup2\n      mstore\n      0x20\n      add\n      swap1\n      dup2\n      mstore\n      0x20\n      add\n      0x00\n      keccak256\n      0x00\n      swap1\n      sload\n      swap1\n      0x0100\n      exp\n      swap1\n      div\n      0xff\n      and\n        /* \"contracts/CrowdFunding.sol\":3164:3203  thisRequest.voters[msg.sender] == false */\n      iszero\n      iszero\n      eq\n        /* \"contracts/CrowdFunding.sol\":3156:3230  require(thisRequest.voters[msg.sender] == false, \"You have already voted\") */\n      tag_110\n      jumpi\n      mload(0x40)\n      0x08c379a000000000000000000000000000000000000000000000000000000000\n      dup2\n      mstore\n      0x04\n      add\n      tag_111\n      swap1\n      tag_112\n      jump\t// in\n    tag_111:\n      mload(0x40)\n      dup1\n      swap2\n      sub\n      swap1\n      revert\n    tag_110:\n        /* \"contracts/CrowdFunding.sol\":3274:3278  true */\n      0x01\n        /* \"contracts/CrowdFunding.sol\":3241:3252  thisRequest */\n      dup2\n        /* \"contracts/CrowdFunding.sol\":3241:3259  thisRequest.voters */\n      0x05\n      add\n        /* \"contracts/CrowdFunding.sol\":3241:3271  thisRequest.voters[msg.sender] */\n      0x00\n        /* \"contracts/CrowdFunding.sol\":3260:3270  msg.sender */\n      caller\n        /* \"contracts/CrowdFunding.sol\":3241:3271  thisRequest.voters[msg.sender] */\n      0xffffffffffffffffffffffffffffffffffffffff\n      and\n      0xffffffffffffffffffffffffffffffffffffffff\n      and\n      dup2\n      mstore\n      0x20\n      add\n      swap1\n      dup2\n      mstore\n      0x20\n      add\n      0x00\n      keccak256\n      0x00\n        /* \"contracts/CrowdFunding.sol\":3241:3278  thisRequest.voters[msg.sender] = true */\n      0x0100\n      exp\n      dup2\n      sload\n      dup2\n      0xff\n      mul\n      not\n      and\n      swap1\n      dup4\n      iszero\n      iszero\n      mul\n      or\n      swap1\n      sstore\n      pop\n        /* \"contracts/CrowdFunding.sol\":3289:3300  thisRequest */\n      dup1\n        /* \"contracts/CrowdFunding.sol\":3289:3311  thisRequest.noOfVoters */\n      0x04\n      add\n      0x00\n        /* \"contracts/CrowdFunding.sol\":3289:3313  thisRequest.noOfVoters++ */\n      dup2\n      sload\n      dup1\n      swap3\n      swap2\n      swap1\n      tag_113\n      swap1\n      tag_94\n      jump\t// in\n    tag_113:\n      swap2\n      swap1\n      pop\n      sstore\n      pop\n        /* \"contracts/CrowdFunding.sol\":3008:3492  {\r... */\n      pop\n        /* \"contracts/CrowdFunding.sol\":2964:3492  function voteRequest(uint _requestNo) public{\r... */\n      pop\n      jump\t// out\n        /* \"contracts/CrowdFunding.sol\":297:325  uint public noOfContributors */\n    tag_54:\n      sload(0x06)\n      dup2\n      jump\t// out\n        /* \"contracts/CrowdFunding.sol\":3500:3973  function makePayment(uint _requestNo) public onlyManager{\r... */\n    tag_59:\n        /* \"contracts/CrowdFunding.sol\":2340:2347  manager */\n      0x01\n      0x00\n      swap1\n      sload\n      swap1\n      0x0100\n      exp\n      swap1\n      div\n      0xffffffffffffffffffffffffffffffffffffffff\n      and\n        /* \"contracts/CrowdFunding.sol\":2326:2347  msg.sender == manager */\n      0xffffffffffffffffffffffffffffffffffffffff\n      and\n        /* \"contracts/CrowdFunding.sol\":2326:2336  msg.sender */\n      caller\n        /* \"contracts/CrowdFunding.sol\":2326:2347  msg.sender == manager */\n      0xffffffffffffffffffffffffffffffffffffffff\n      and\n      eq\n        /* \"contracts/CrowdFunding.sol\":2318:2388  require(msg.sender == manager, \"Only Manager can call this function!\") */\n      tag_115\n      jumpi\n      mload(0x40)\n      0x08c379a000000000000000000000000000000000000000000000000000000000\n      dup2\n      mstore\n      0x04\n      add\n      tag_116\n      swap1\n      tag_101\n      jump\t// in\n    tag_116:\n      mload(0x40)\n      dup1\n      swap2\n      sub\n      swap1\n      revert\n    tag_115:\n        /* \"contracts/CrowdFunding.sol\":3587:3593  target */\n      sload(0x04)\n        /* \"contracts/CrowdFunding.sol\":3575:3584  raisedAmt */\n      sload(0x05)\n        /* \"contracts/CrowdFunding.sol\":3575:3593  raisedAmt>= target */\n      lt\n      iszero\n        /* \"contracts/CrowdFunding.sol\":3567:3594  require(raisedAmt>= target) */\n      tag_118\n      jumpi\n      0x00\n      dup1\n      revert\n    tag_118:\n        /* \"contracts/CrowdFunding.sol\":3605:3632  Request storage thisRequest */\n      0x00\n        /* \"contracts/CrowdFunding.sol\":3635:3643  requests */\n      0x07\n        /* \"contracts/CrowdFunding.sol\":3635:3655  requests[_requestNo] */\n      0x00\n        /* \"contracts/CrowdFunding.sol\":3644:3654  _requestNo */\n      dup4\n        /* \"contracts/CrowdFunding.sol\":3635:3655  requests[_requestNo] */\n      dup2\n      mstore\n      0x20\n      add\n      swap1\n      dup2\n      mstore\n      0x20\n      add\n      0x00\n      keccak256\n        /* \"contracts/CrowdFunding.sol\":3605:3655  Request storage thisRequest = requests[_requestNo] */\n      swap1\n      pop\n        /* \"contracts/CrowdFunding.sol\":3699:3704  false */\n      0x00\n        /* \"contracts/CrowdFunding.sol\":3674:3704  thisRequest.completed == false */\n      iszero\n      iszero\n        /* \"contracts/CrowdFunding.sol\":3674:3685  thisRequest */\n      dup2\n        /* \"contracts/CrowdFunding.sol\":3674:3695  thisRequest.completed */\n      0x03\n      add\n      0x00\n      swap1\n      sload\n      swap1\n      0x0100\n      exp\n      swap1\n      div\n      0xff\n      and\n        /* \"contracts/CrowdFunding.sol\":3674:3704  thisRequest.completed == false */\n      iszero\n      iszero\n      eq\n        /* \"contracts/CrowdFunding.sol\":3666:3738  require(thisRequest.completed == false,\"The request has been completed\") */\n      tag_119\n      jumpi\n      mload(0x40)\n      0x08c379a000000000000000000000000000000000000000000000000000000000\n      dup2\n      mstore\n      0x04\n      add\n      tag_120\n      swap1\n      tag_121\n      jump\t// in\n    tag_120:\n      mload(0x40)\n      dup1\n      swap2\n      sub\n      swap1\n      revert\n    tag_119:\n        /* \"contracts/CrowdFunding.sol\":3799:3800  2 */\n      0x02\n        /* \"contracts/CrowdFunding.sol\":3782:3798  noOfContributors */\n      sload(0x06)\n        /* \"contracts/CrowdFunding.sol\":3782:3800  noOfContributors/2 */\n      tag_122\n      swap2\n      swap1\n      tag_123\n      jump\t// in\n    tag_122:\n        /* \"contracts/CrowdFunding.sol\":3757:3768  thisRequest */\n      dup2\n        /* \"contracts/CrowdFunding.sol\":3757:3779  thisRequest.noOfVoters */\n      0x04\n      add\n      sload\n        /* \"contracts/CrowdFunding.sol\":3757:3800  thisRequest.noOfVoters > noOfContributors/2 */\n      gt\n        /* \"contracts/CrowdFunding.sol\":3749:3858  require(thisRequest.noOfVoters > noOfContributors/2,\"Majority of contributors does not support this request\") */\n      tag_124\n      jumpi\n      mload(0x40)\n      0x08c379a000000000000000000000000000000000000000000000000000000000\n      dup2\n      mstore\n      0x04\n      add\n      tag_125\n      swap1\n      tag_126\n      jump\t// in\n    tag_125:\n      mload(0x40)\n      dup1\n      swap2\n      sub\n      swap1\n      revert\n    tag_124:\n        /* \"contracts/CrowdFunding.sol\":3869:3880  thisRequest */\n      dup1\n        /* \"contracts/CrowdFunding.sol\":3869:3890  thisRequest.recipient */\n      0x01\n      add\n      0x00\n      swap1\n      sload\n      swap1\n      0x0100\n      exp\n      swap1\n      div\n      0xffffffffffffffffffffffffffffffffffffffff\n      and\n        /* \"contracts/CrowdFunding.sol\":3869:3899  thisRequest.recipient.transfer */\n      0xffffffffffffffffffffffffffffffffffffffff\n      and\n        /* \"contracts/CrowdFunding.sol\":3869:3918  thisRequest.recipient.transfer(thisRequest.value) */\n      0x08fc\n        /* \"contracts/CrowdFunding.sol\":3900:3911  thisRequest */\n      dup3\n        /* \"contracts/CrowdFunding.sol\":3900:3917  thisRequest.value */\n      0x02\n      add\n      sload\n        /* \"contracts/CrowdFunding.sol\":3869:3918  thisRequest.recipient.transfer(thisRequest.value) */\n      swap1\n      dup2\n      iszero\n      mul\n      swap1\n      mload(0x40)\n      0x00\n      mload(0x40)\n      dup1\n      dup4\n      sub\n      dup2\n      dup6\n      dup9\n      dup9\n      call\n      swap4\n      pop\n      pop\n      pop\n      pop\n      iszero\n      dup1\n      iszero\n      tag_128\n      jumpi\n      returndatasize\n      0x00\n      dup1\n      returndatacopy\n      revert(0x00, returndatasize)\n    tag_128:\n      pop\n        /* \"contracts/CrowdFunding.sol\":3953:3957  true */\n      0x01\n        /* \"contracts/CrowdFunding.sol\":3929:3940  thisRequest */\n      dup2\n        /* \"contracts/CrowdFunding.sol\":3929:3950  thisRequest.completed */\n      0x03\n      add\n      0x00\n        /* \"contracts/CrowdFunding.sol\":3929:3957  thisRequest.completed = true */\n      0x0100\n      exp\n      dup2\n      sload\n      dup2\n      0xff\n      mul\n      not\n      and\n      swap1\n      dup4\n      iszero\n      iszero\n      mul\n      or\n      swap1\n      sstore\n      pop\n        /* \"contracts/CrowdFunding.sol\":3556:3973  {\r... */\n      pop\n        /* \"contracts/CrowdFunding.sol\":3500:3973  function makePayment(uint _requestNo) public onlyManager{\r... */\n      pop\n      jump\t// out\n        /* \"contracts/CrowdFunding.sol\":1857:2277  function refund() public{\r... */\n    tag_62:\n        /* \"contracts/CrowdFunding.sol\":1917:1925  deadline */\n      sload(0x03)\n        /* \"contracts/CrowdFunding.sol\":1900:1915  block.timestamp */\n      timestamp\n        /* \"contracts/CrowdFunding.sol\":1900:1925  block.timestamp> deadline */\n      gt\n        /* \"contracts/CrowdFunding.sol\":1900:1947  block.timestamp> deadline && raisedAmt < target */\n      dup1\n      iszero\n      tag_130\n      jumpi\n      pop\n        /* \"contracts/CrowdFunding.sol\":1941:1947  target */\n      sload(0x04)\n        /* \"contracts/CrowdFunding.sol\":1929:1938  raisedAmt */\n      sload(0x05)\n        /* \"contracts/CrowdFunding.sol\":1929:1947  raisedAmt < target */\n      lt\n        /* \"contracts/CrowdFunding.sol\":1900:1947  block.timestamp> deadline && raisedAmt < target */\n    tag_130:\n        /* \"contracts/CrowdFunding.sol\":1892:1983  require(block.timestamp> deadline && raisedAmt < target, \"You are not eligible for refund\") */\n      tag_131\n      jumpi\n      mload(0x40)\n      0x08c379a000000000000000000000000000000000000000000000000000000000\n      dup2\n      mstore\n      0x04\n      add\n      tag_132\n      swap1\n      tag_133\n      jump\t// in\n    tag_132:\n      mload(0x40)\n      dup1\n      swap2\n      sub\n      swap1\n      revert\n    tag_131:\n        /* \"contracts/CrowdFunding.sol\":2029:2030  0 */\n      0x00\n        /* \"contracts/CrowdFunding.sol\":2002:2014  contributors */\n      dup1\n        /* \"contracts/CrowdFunding.sol\":2002:2026  contributors[msg.sender] */\n      0x00\n        /* \"contracts/CrowdFunding.sol\":2015:2025  msg.sender */\n      caller\n        /* \"contracts/CrowdFunding.sol\":2002:2026  contributors[msg.sender] */\n      0xffffffffffffffffffffffffffffffffffffffff\n      and\n      0xffffffffffffffffffffffffffffffffffffffff\n      and\n      dup2\n      mstore\n      0x20\n      add\n      swap1\n      dup2\n      mstore\n      0x20\n      add\n      0x00\n      keccak256\n      sload\n        /* \"contracts/CrowdFunding.sol\":2002:2030  contributors[msg.sender] > 0 */\n      gt\n        /* \"contracts/CrowdFunding.sol\":1994:2067  require(contributors[msg.sender] > 0,\"No contributed amount reflected!!\") */\n      tag_134\n      jumpi\n      mload(0x40)\n      0x08c379a000000000000000000000000000000000000000000000000000000000\n      dup2\n      mstore\n      0x04\n      add\n      tag_135\n      swap1\n      tag_136\n      jump\t// in\n    tag_135:\n      mload(0x40)\n      dup1\n      swap2\n      sub\n      swap1\n      revert\n    tag_134:\n        /* \"contracts/CrowdFunding.sol\":2078:2098  address payable user */\n      0x00\n        /* \"contracts/CrowdFunding.sol\":2109:2119  msg.sender */\n      caller\n        /* \"contracts/CrowdFunding.sol\":2078:2120  address payable user = payable(msg.sender) */\n      swap1\n      pop\n        /* \"contracts/CrowdFunding.sol\":2191:2195  user */\n      dup1\n        /* \"contracts/CrowdFunding.sol\":2191:2204  user.transfer */\n      0xffffffffffffffffffffffffffffffffffffffff\n      and\n        /* \"contracts/CrowdFunding.sol\":2191:2230  user.transfer(contributors[msg.sender]) */\n      0x08fc\n        /* \"contracts/CrowdFunding.sol\":2205:2217  contributors */\n      0x00\n        /* \"contracts/CrowdFunding.sol\":2205:2229  contributors[msg.sender] */\n      dup1\n        /* \"contracts/CrowdFunding.sol\":2218:2228  msg.sender */\n      caller\n        /* \"contracts/CrowdFunding.sol\":2205:2229  contributors[msg.sender] */\n      0xffffffffffffffffffffffffffffffffffffffff\n      and\n      0xffffffffffffffffffffffffffffffffffffffff\n      and\n      dup2\n      mstore\n      0x20\n      add\n      swap1\n      dup2\n      mstore\n      0x20\n      add\n      0x00\n      keccak256\n      sload\n        /* \"contracts/CrowdFunding.sol\":2191:2230  user.transfer(contributors[msg.sender]) */\n      swap1\n      dup2\n      iszero\n      mul\n      swap1\n      mload(0x40)\n      0x00\n      mload(0x40)\n      dup1\n      dup4\n      sub\n      dup2\n      dup6\n      dup9\n      dup9\n      call\n      swap4\n      pop\n      pop\n      pop\n      pop\n      iszero\n      dup1\n      iszero\n      tag_138\n      jumpi\n      returndatasize\n      0x00\n      dup1\n      returndatacopy\n      revert(0x00, returndatasize)\n    tag_138:\n      pop\n        /* \"contracts/CrowdFunding.sol\":2268:2269  0 */\n      0x00\n        /* \"contracts/CrowdFunding.sol\":2241:2253  contributors */\n      dup1\n        /* \"contracts/CrowdFunding.sol\":2241:2265  contributors[msg.sender] */\n      0x00\n        /* \"contracts/CrowdFunding.sol\":2254:2264  msg.sender */\n      caller\n        /* \"contracts/CrowdFunding.sol\":2241:2265  contributors[msg.sender] */\n      0xffffffffffffffffffffffffffffffffffffffff\n      and\n      0xffffffffffffffffffffffffffffffffffffffff\n      and\n      dup2\n      mstore\n      0x20\n      add\n      swap1\n      dup2\n      mstore\n      0x20\n      add\n      0x00\n      keccak256\n        /* \"contracts/CrowdFunding.sol\":2241:2269  contributors[msg.sender] = 0 */\n      dup2\n      swap1\n      sstore\n      pop\n        /* \"contracts/CrowdFunding.sol\":1881:2277  {\r... */\n      pop\n        /* \"contracts/CrowdFunding.sol\":1857:2277  function refund() public{\r... */\n      jump\t// out\n        /* \"contracts/CrowdFunding.sol\":1747:1849  function getContractBalance() public view returns(uint){\r... */\n    tag_65:\n        /* \"contracts/CrowdFunding.sol\":1797:1801  uint */\n      0x00\n        /* \"contracts/CrowdFunding.sol\":1820:1841  address(this).balance */\n      selfbalance\n        /* \"contracts/CrowdFunding.sol\":1813:1841  return address(this).balance */\n      swap1\n      pop\n        /* \"contracts/CrowdFunding.sol\":1747:1849  function getContractBalance() public view returns(uint){\r... */\n      swap1\n      jump\t// out\n        /* \"contracts/CrowdFunding.sol\":539:579  mapping(uint => Request) public requests */\n    tag_70:\n      mstore(0x20, 0x07)\n      dup1\n      0x00\n      mstore\n      keccak256(0x00, 0x40)\n      0x00\n      swap2\n      pop\n      swap1\n      pop\n      dup1\n      0x00\n      add\n      dup1\n      sload\n      tag_140\n      swap1\n      tag_141\n      jump\t// in\n    tag_140:\n      dup1\n      0x1f\n      add\n      0x20\n      dup1\n      swap2\n      div\n      mul\n      0x20\n      add\n      mload(0x40)\n      swap1\n      dup2\n      add\n      0x40\n      mstore\n      dup1\n      swap3\n      swap2\n      swap1\n      dup2\n      dup2\n      mstore\n      0x20\n      add\n      dup3\n      dup1\n      sload\n      tag_142\n      swap1\n      tag_141\n      jump\t// in\n    tag_142:\n      dup1\n      iszero\n      tag_143\n      jumpi\n      dup1\n      0x1f\n      lt\n      tag_144\n      jumpi\n      0x0100\n      dup1\n      dup4\n      sload\n      div\n      mul\n      dup4\n      mstore\n      swap2\n      0x20\n      add\n      swap2\n      jump(tag_143)\n    tag_144:\n      dup3\n      add\n      swap2\n      swap1\n      0x00\n      mstore\n      keccak256(0x00, 0x20)\n      swap1\n    tag_145:\n      dup2\n      sload\n      dup2\n      mstore\n      swap1\n      0x01\n      add\n      swap1\n      0x20\n      add\n      dup1\n      dup4\n      gt\n      tag_145\n      jumpi\n      dup3\n      swap1\n      sub\n      0x1f\n      and\n      dup3\n      add\n      swap2\n    tag_143:\n      pop\n      pop\n      pop\n      pop\n      pop\n      swap1\n      dup1\n      0x01\n      add\n      0x00\n      swap1\n      sload\n      swap1\n      0x0100\n      exp\n      swap1\n      div\n      0xffffffffffffffffffffffffffffffffffffffff\n      and\n      swap1\n      dup1\n      0x02\n      add\n      sload\n      swap1\n      dup1\n      0x03\n      add\n      0x00\n      swap1\n      sload\n      swap1\n      0x0100\n      exp\n      swap1\n      div\n      0xff\n      and\n      swap1\n      dup1\n      0x04\n      add\n      sload\n      swap1\n      pop\n      dup6\n      jump\t// out\n        /* \"contracts/CrowdFunding.sol\":586:609  uint public numRequests */\n    tag_75:\n      sload(0x08)\n      dup2\n      jump\t// out\n        /* \"contracts/CrowdFunding.sol\":183:210  uint public minContribution */\n    tag_79:\n      sload(0x02)\n      dup2\n      jump\t// out\n        /* \"contracts/CrowdFunding.sol\":244:262  uint public target */\n    tag_83:\n      sload(0x04)\n      dup2\n      jump\t// out\n    tag_105:\n      dup3\n      dup1\n      sload\n      tag_146\n      swap1\n      tag_141\n      jump\t// in\n    tag_146:\n      swap1\n      0x00\n      mstore\n      keccak256(0x00, 0x20)\n      swap1\n      0x1f\n      add\n      0x20\n      swap1\n      div\n      dup2\n      add\n      swap3\n      dup3\n      tag_148\n      jumpi\n      0x00\n      dup6\n      sstore\n      jump(tag_147)\n    tag_148:\n      dup3\n      0x1f\n      lt\n      tag_149\n      jumpi\n      dup1\n      mload\n      not(0xff)\n      and\n      dup4\n      dup1\n      add\n      or\n      dup6\n      sstore\n      jump(tag_147)\n    tag_149:\n      dup3\n      dup1\n      add\n      0x01\n      add\n      dup6\n      sstore\n      dup3\n      iszero\n      tag_147\n      jumpi\n      swap2\n      dup3\n      add\n    tag_150:\n      dup3\n      dup2\n      gt\n      iszero\n      tag_151\n      jumpi\n      dup3\n      mload\n      dup3\n      sstore\n      swap2\n      0x20\n      add\n      swap2\n      swap1\n      0x01\n      add\n      swap1\n      jump(tag_150)\n    tag_151:\n    tag_147:\n      pop\n      swap1\n      pop\n      tag_152\n      swap2\n      swap1\n      tag_153\n      jump\t// in\n    tag_152:\n      pop\n      swap1\n      jump\t// out\n    tag_153:\n    tag_154:\n      dup1\n      dup3\n      gt\n      iszero\n      tag_155\n      jumpi\n      0x00\n      dup2\n      0x00\n      swap1\n      sstore\n      pop\n      0x01\n      add\n      jump(tag_154)\n    tag_155:\n      pop\n      swap1\n      jump\t// out\n        /* \"#utility.yul\":7:419   */\n    tag_157:\n        /* \"#utility.yul\":85:90   */\n      0x00\n        /* \"#utility.yul\":110:176   */\n      tag_159\n        /* \"#utility.yul\":126:175   */\n      tag_160\n        /* \"#utility.yul\":168:174   */\n      dup5\n        /* \"#utility.yul\":126:175   */\n      tag_161\n      jump\t// in\n    tag_160:\n        /* \"#utility.yul\":110:176   */\n      tag_162\n      jump\t// in\n    tag_159:\n        /* \"#utility.yul\":101:176   */\n      swap1\n      pop\n        /* \"#utility.yul\":199:205   */\n      dup3\n        /* \"#utility.yul\":192:197   */\n      dup2\n        /* \"#utility.yul\":185:206   */\n      mstore\n        /* \"#utility.yul\":237:241   */\n      0x20\n        /* \"#utility.yul\":230:235   */\n      dup2\n        /* \"#utility.yul\":226:242   */\n      add\n        /* \"#utility.yul\":275:278   */\n      dup5\n        /* \"#utility.yul\":266:272   */\n      dup5\n        /* \"#utility.yul\":261:264   */\n      dup5\n        /* \"#utility.yul\":257:273   */\n      add\n        /* \"#utility.yul\":254:279   */\n      gt\n        /* \"#utility.yul\":251:363   */\n      iszero\n      tag_163\n      jumpi\n        /* \"#utility.yul\":282:361   */\n      tag_164\n      tag_165\n      jump\t// in\n    tag_164:\n        /* \"#utility.yul\":251:363   */\n    tag_163:\n        /* \"#utility.yul\":372:413   */\n      tag_166\n        /* \"#utility.yul\":406:412   */\n      dup5\n        /* \"#utility.yul\":401:404   */\n      dup3\n        /* \"#utility.yul\":396:399   */\n      dup6\n        /* \"#utility.yul\":372:413   */\n      tag_167\n      jump\t// in\n    tag_166:\n        /* \"#utility.yul\":91:419   */\n      pop\n        /* \"#utility.yul\":7:419   */\n      swap4\n      swap3\n      pop\n      pop\n      pop\n      jump\t// out\n        /* \"#utility.yul\":425:564   */\n    tag_168:\n        /* \"#utility.yul\":471:476   */\n      0x00\n        /* \"#utility.yul\":509:515   */\n      dup2\n        /* \"#utility.yul\":496:516   */\n      calldataload\n        /* \"#utility.yul\":487:516   */\n      swap1\n      pop\n        /* \"#utility.yul\":525:558   */\n      tag_170\n        /* \"#utility.yul\":552:557   */\n      dup2\n        /* \"#utility.yul\":525:558   */\n      tag_171\n      jump\t// in\n    tag_170:\n        /* \"#utility.yul\":425:564   */\n      swap3\n      swap2\n      pop\n      pop\n      jump\t// out\n        /* \"#utility.yul\":570:725   */\n    tag_172:\n        /* \"#utility.yul\":624:629   */\n      0x00\n        /* \"#utility.yul\":662:668   */\n      dup2\n        /* \"#utility.yul\":649:669   */\n      calldataload\n        /* \"#utility.yul\":640:669   */\n      swap1\n      pop\n        /* \"#utility.yul\":678:719   */\n      tag_174\n        /* \"#utility.yul\":713:718   */\n      dup2\n        /* \"#utility.yul\":678:719   */\n      tag_175\n      jump\t// in\n    tag_174:\n        /* \"#utility.yul\":570:725   */\n      swap3\n      swap2\n      pop\n      pop\n      jump\t// out\n        /* \"#utility.yul\":745:1085   */\n    tag_176:\n        /* \"#utility.yul\":801:806   */\n      0x00\n        /* \"#utility.yul\":850:853   */\n      dup3\n        /* \"#utility.yul\":843:847   */\n      0x1f\n        /* \"#utility.yul\":835:841   */\n      dup4\n        /* \"#utility.yul\":831:848   */\n      add\n        /* \"#utility.yul\":827:854   */\n      slt\n        /* \"#utility.yul\":817:939   */\n      tag_178\n      jumpi\n        /* \"#utility.yul\":858:937   */\n      tag_179\n      tag_180\n      jump\t// in\n    tag_179:\n        /* \"#utility.yul\":817:939   */\n    tag_178:\n        /* \"#utility.yul\":975:981   */\n      dup2\n        /* \"#utility.yul\":962:982   */\n      calldataload\n        /* \"#utility.yul\":1000:1079   */\n      tag_181\n        /* \"#utility.yul\":1075:1078   */\n      dup5\n        /* \"#utility.yul\":1067:1073   */\n      dup3\n        /* \"#utility.yul\":1060:1064   */\n      0x20\n        /* \"#utility.yul\":1052:1058   */\n      dup7\n        /* \"#utility.yul\":1048:1065   */\n      add\n        /* \"#utility.yul\":1000:1079   */\n      tag_157\n      jump\t// in\n    tag_181:\n        /* \"#utility.yul\":991:1079   */\n      swap2\n      pop\n        /* \"#utility.yul\":807:1085   */\n      pop\n        /* \"#utility.yul\":745:1085   */\n      swap3\n      swap2\n      pop\n      pop\n      jump\t// out\n        /* \"#utility.yul\":1091:1230   */\n    tag_182:\n        /* \"#utility.yul\":1137:1142   */\n      0x00\n        /* \"#utility.yul\":1175:1181   */\n      dup2\n        /* \"#utility.yul\":1162:1182   */\n      calldataload\n        /* \"#utility.yul\":1153:1182   */\n      swap1\n      pop\n        /* \"#utility.yul\":1191:1224   */\n      tag_184\n        /* \"#utility.yul\":1218:1223   */\n      dup2\n        /* \"#utility.yul\":1191:1224   */\n      tag_185\n      jump\t// in\n    tag_184:\n        /* \"#utility.yul\":1091:1230   */\n      swap3\n      swap2\n      pop\n      pop\n      jump\t// out\n        /* \"#utility.yul\":1236:1565   */\n    tag_25:\n        /* \"#utility.yul\":1295:1301   */\n      0x00\n        /* \"#utility.yul\":1344:1346   */\n      0x20\n        /* \"#utility.yul\":1332:1341   */\n      dup3\n        /* \"#utility.yul\":1323:1330   */\n      dup5\n        /* \"#utility.yul\":1319:1342   */\n      sub\n        /* \"#utility.yul\":1315:1347   */\n      slt\n        /* \"#utility.yul\":1312:1431   */\n      iszero\n      tag_187\n      jumpi\n        /* \"#utility.yul\":1350:1429   */\n      tag_188\n      tag_189\n      jump\t// in\n    tag_188:\n        /* \"#utility.yul\":1312:1431   */\n    tag_187:\n        /* \"#utility.yul\":1470:1471   */\n      0x00\n        /* \"#utility.yul\":1495:1548   */\n      tag_190\n        /* \"#utility.yul\":1540:1547   */\n      dup5\n        /* \"#utility.yul\":1531:1537   */\n      dup3\n        /* \"#utility.yul\":1520:1529   */\n      dup6\n        /* \"#utility.yul\":1516:1538   */\n      add\n        /* \"#utility.yul\":1495:1548   */\n      tag_168\n      jump\t// in\n    tag_190:\n        /* \"#utility.yul\":1485:1548   */\n      swap2\n      pop\n        /* \"#utility.yul\":1441:1558   */\n      pop\n        /* \"#utility.yul\":1236:1565   */\n      swap3\n      swap2\n      pop\n      pop\n      jump\t// out\n        /* \"#utility.yul\":1571:2386   */\n    tag_36:\n        /* \"#utility.yul\":1666:1672   */\n      0x00\n        /* \"#utility.yul\":1674:1680   */\n      dup1\n        /* \"#utility.yul\":1682:1688   */\n      0x00\n        /* \"#utility.yul\":1731:1733   */\n      0x60\n        /* \"#utility.yul\":1719:1728   */\n      dup5\n        /* \"#utility.yul\":1710:1717   */\n      dup7\n        /* \"#utility.yul\":1706:1729   */\n      sub\n        /* \"#utility.yul\":1702:1734   */\n      slt\n        /* \"#utility.yul\":1699:1818   */\n      iszero\n      tag_192\n      jumpi\n        /* \"#utility.yul\":1737:1816   */\n      tag_193\n      tag_189\n      jump\t// in\n    tag_193:\n        /* \"#utility.yul\":1699:1818   */\n    tag_192:\n        /* \"#utility.yul\":1885:1886   */\n      0x00\n        /* \"#utility.yul\":1874:1883   */\n      dup5\n        /* \"#utility.yul\":1870:1887   */\n      add\n        /* \"#utility.yul\":1857:1888   */\n      calldataload\n        /* \"#utility.yul\":1915:1933   */\n      0xffffffffffffffff\n        /* \"#utility.yul\":1907:1913   */\n      dup2\n        /* \"#utility.yul\":1904:1934   */\n      gt\n        /* \"#utility.yul\":1901:2018   */\n      iszero\n      tag_194\n      jumpi\n        /* \"#utility.yul\":1937:2016   */\n      tag_195\n      tag_196\n      jump\t// in\n    tag_195:\n        /* \"#utility.yul\":1901:2018   */\n    tag_194:\n        /* \"#utility.yul\":2042:2105   */\n      tag_197\n        /* \"#utility.yul\":2097:2104   */\n      dup7\n        /* \"#utility.yul\":2088:2094   */\n      dup3\n        /* \"#utility.yul\":2077:2086   */\n      dup8\n        /* \"#utility.yul\":2073:2095   */\n      add\n        /* \"#utility.yul\":2042:2105   */\n      tag_176\n      jump\t// in\n    tag_197:\n        /* \"#utility.yul\":2032:2105   */\n      swap4\n      pop\n        /* \"#utility.yul\":1828:2115   */\n      pop\n        /* \"#utility.yul\":2154:2156   */\n      0x20\n        /* \"#utility.yul\":2180:2241   */\n      tag_198\n        /* \"#utility.yul\":2233:2240   */\n      dup7\n        /* \"#utility.yul\":2224:2230   */\n      dup3\n        /* \"#utility.yul\":2213:2222   */\n      dup8\n        /* \"#utility.yul\":2209:2231   */\n      add\n        /* \"#utility.yul\":2180:2241   */\n      tag_172\n      jump\t// in\n    tag_198:\n        /* \"#utility.yul\":2170:2241   */\n      swap3\n      pop\n        /* \"#utility.yul\":2125:2251   */\n      pop\n        /* \"#utility.yul\":2290:2292   */\n      0x40\n        /* \"#utility.yul\":2316:2369   */\n      tag_199\n        /* \"#utility.yul\":2361:2368   */\n      dup7\n        /* \"#utility.yul\":2352:2358   */\n      dup3\n        /* \"#utility.yul\":2341:2350   */\n      dup8\n        /* \"#utility.yul\":2337:2359   */\n      add\n        /* \"#utility.yul\":2316:2369   */\n      tag_182\n      jump\t// in\n    tag_199:\n        /* \"#utility.yul\":2306:2369   */\n      swap2\n      pop\n        /* \"#utility.yul\":2261:2379   */\n      pop\n        /* \"#utility.yul\":1571:2386   */\n      swap3\n      pop\n      swap3\n      pop\n      swap3\n      jump\t// out\n        /* \"#utility.yul\":2392:2721   */\n    tag_50:\n        /* \"#utility.yul\":2451:2457   */\n      0x00\n        /* \"#utility.yul\":2500:2502   */\n      0x20\n        /* \"#utility.yul\":2488:2497   */\n      dup3\n        /* \"#utility.yul\":2479:2486   */\n      dup5\n        /* \"#utility.yul\":2475:2498   */\n      sub\n        /* \"#utility.yul\":2471:2503   */\n      slt\n        /* \"#utility.yul\":2468:2587   */\n      iszero\n      tag_201\n      jumpi\n        /* \"#utility.yul\":2506:2585   */\n      tag_202\n      tag_189\n      jump\t// in\n    tag_202:\n        /* \"#utility.yul\":2468:2587   */\n    tag_201:\n        /* \"#utility.yul\":2626:2627   */\n      0x00\n        /* \"#utility.yul\":2651:2704   */\n      tag_203\n        /* \"#utility.yul\":2696:2703   */\n      dup5\n        /* \"#utility.yul\":2687:2693   */\n      dup3\n        /* \"#utility.yul\":2676:2685   */\n      dup6\n        /* \"#utility.yul\":2672:2694   */\n      add\n        /* \"#utility.yul\":2651:2704   */\n      tag_182\n      jump\t// in\n    tag_203:\n        /* \"#utility.yul\":2641:2704   */\n      swap2\n      pop\n        /* \"#utility.yul\":2597:2714   */\n      pop\n        /* \"#utility.yul\":2392:2721   */\n      swap3\n      swap2\n      pop\n      pop\n      jump\t// out\n        /* \"#utility.yul\":2727:2869   */\n    tag_204:\n        /* \"#utility.yul\":2830:2862   */\n      tag_206\n        /* \"#utility.yul\":2856:2861   */\n      dup2\n        /* \"#utility.yul\":2830:2862   */\n      tag_207\n      jump\t// in\n    tag_206:\n        /* \"#utility.yul\":2825:2828   */\n      dup3\n        /* \"#utility.yul\":2818:2863   */\n      mstore\n        /* \"#utility.yul\":2727:2869   */\n      pop\n      pop\n      jump\t// out\n        /* \"#utility.yul\":2875:2993   */\n    tag_208:\n        /* \"#utility.yul\":2962:2986   */\n      tag_210\n        /* \"#utility.yul\":2980:2985   */\n      dup2\n        /* \"#utility.yul\":2962:2986   */\n      tag_211\n      jump\t// in\n    tag_210:\n        /* \"#utility.yul\":2957:2960   */\n      dup3\n        /* \"#utility.yul\":2950:2987   */\n      mstore\n        /* \"#utility.yul\":2875:2993   */\n      pop\n      pop\n      jump\t// out\n        /* \"#utility.yul\":2999:3108   */\n    tag_212:\n        /* \"#utility.yul\":3080:3101   */\n      tag_214\n        /* \"#utility.yul\":3095:3100   */\n      dup2\n        /* \"#utility.yul\":3080:3101   */\n      tag_215\n      jump\t// in\n    tag_214:\n        /* \"#utility.yul\":3075:3078   */\n      dup3\n        /* \"#utility.yul\":3068:3102   */\n      mstore\n        /* \"#utility.yul\":2999:3108   */\n      pop\n      pop\n      jump\t// out\n        /* \"#utility.yul\":3114:3478   */\n    tag_216:\n        /* \"#utility.yul\":3202:3205   */\n      0x00\n        /* \"#utility.yul\":3230:3269   */\n      tag_218\n        /* \"#utility.yul\":3263:3268   */\n      dup3\n        /* \"#utility.yul\":3230:3269   */\n      tag_219\n      jump\t// in\n    tag_218:\n        /* \"#utility.yul\":3285:3356   */\n      tag_220\n        /* \"#utility.yul\":3349:3355   */\n      dup2\n        /* \"#utility.yul\":3344:3347   */\n      dup6\n        /* \"#utility.yul\":3285:3356   */\n      tag_221\n      jump\t// in\n    tag_220:\n        /* \"#utility.yul\":3278:3356   */\n      swap4\n      pop\n        /* \"#utility.yul\":3365:3417   */\n      tag_222\n        /* \"#utility.yul\":3410:3416   */\n      dup2\n        /* \"#utility.yul\":3405:3408   */\n      dup6\n        /* \"#utility.yul\":3398:3402   */\n      0x20\n        /* \"#utility.yul\":3391:3396   */\n      dup7\n        /* \"#utility.yul\":3387:3403   */\n      add\n        /* \"#utility.yul\":3365:3417   */\n      tag_223\n      jump\t// in\n    tag_222:\n        /* \"#utility.yul\":3442:3471   */\n      tag_224\n        /* \"#utility.yul\":3464:3470   */\n      dup2\n        /* \"#utility.yul\":3442:3471   */\n      tag_225\n      jump\t// in\n    tag_224:\n        /* \"#utility.yul\":3437:3440   */\n      dup5\n        /* \"#utility.yul\":3433:3472   */\n      add\n        /* \"#utility.yul\":3426:3472   */\n      swap2\n      pop\n        /* \"#utility.yul\":3206:3478   */\n      pop\n        /* \"#utility.yul\":3114:3478   */\n      swap3\n      swap2\n      pop\n      pop\n      jump\t// out\n        /* \"#utility.yul\":3484:3850   */\n    tag_226:\n        /* \"#utility.yul\":3626:3629   */\n      0x00\n        /* \"#utility.yul\":3647:3714   */\n      tag_228\n        /* \"#utility.yul\":3711:3713   */\n      0x13\n        /* \"#utility.yul\":3706:3709   */\n      dup4\n        /* \"#utility.yul\":3647:3714   */\n      tag_221\n      jump\t// in\n    tag_228:\n        /* \"#utility.yul\":3640:3714   */\n      swap2\n      pop\n        /* \"#utility.yul\":3723:3816   */\n      tag_229\n        /* \"#utility.yul\":3812:3815   */\n      dup3\n        /* \"#utility.yul\":3723:3816   */\n      tag_230\n      jump\t// in\n    tag_229:\n        /* \"#utility.yul\":3841:3843   */\n      0x20\n        /* \"#utility.yul\":3836:3839   */\n      dup3\n        /* \"#utility.yul\":3832:3844   */\n      add\n        /* \"#utility.yul\":3825:3844   */\n      swap1\n      pop\n        /* \"#utility.yul\":3484:3850   */\n      swap2\n      swap1\n      pop\n      jump\t// out\n        /* \"#utility.yul\":3856:4222   */\n    tag_231:\n        /* \"#utility.yul\":3998:4001   */\n      0x00\n        /* \"#utility.yul\":4019:4086   */\n      tag_233\n        /* \"#utility.yul\":4083:4085   */\n      0x1f\n        /* \"#utility.yul\":4078:4081   */\n      dup4\n        /* \"#utility.yul\":4019:4086   */\n      tag_221\n      jump\t// in\n    tag_233:\n        /* \"#utility.yul\":4012:4086   */\n      swap2\n      pop\n        /* \"#utility.yul\":4095:4188   */\n      tag_234\n        /* \"#utility.yul\":4184:4187   */\n      dup3\n        /* \"#utility.yul\":4095:4188   */\n      tag_235\n      jump\t// in\n    tag_234:\n        /* \"#utility.yul\":4213:4215   */\n      0x20\n        /* \"#utility.yul\":4208:4211   */\n      dup3\n        /* \"#utility.yul\":4204:4216   */\n      add\n        /* \"#utility.yul\":4197:4216   */\n      swap1\n      pop\n        /* \"#utility.yul\":3856:4222   */\n      swap2\n      swap1\n      pop\n      jump\t// out\n        /* \"#utility.yul\":4228:4594   */\n    tag_236:\n        /* \"#utility.yul\":4370:4373   */\n      0x00\n        /* \"#utility.yul\":4391:4458   */\n      tag_238\n        /* \"#utility.yul\":4455:4457   */\n      0x1e\n        /* \"#utility.yul\":4450:4453   */\n      dup4\n        /* \"#utility.yul\":4391:4458   */\n      tag_221\n      jump\t// in\n    tag_238:\n        /* \"#utility.yul\":4384:4458   */\n      swap2\n      pop\n        /* \"#utility.yul\":4467:4560   */\n      tag_239\n        /* \"#utility.yul\":4556:4559   */\n      dup3\n        /* \"#utility.yul\":4467:4560   */\n      tag_240\n      jump\t// in\n    tag_239:\n        /* \"#utility.yul\":4585:4587   */\n      0x20\n        /* \"#utility.yul\":4580:4583   */\n      dup3\n        /* \"#utility.yul\":4576:4588   */\n      add\n        /* \"#utility.yul\":4569:4588   */\n      swap1\n      pop\n        /* \"#utility.yul\":4228:4594   */\n      swap2\n      swap1\n      pop\n      jump\t// out\n        /* \"#utility.yul\":4600:4966   */\n    tag_241:\n        /* \"#utility.yul\":4742:4745   */\n      0x00\n        /* \"#utility.yul\":4763:4830   */\n      tag_243\n        /* \"#utility.yul\":4827:4829   */\n      0x21\n        /* \"#utility.yul\":4822:4825   */\n      dup4\n        /* \"#utility.yul\":4763:4830   */\n      tag_221\n      jump\t// in\n    tag_243:\n        /* \"#utility.yul\":4756:4830   */\n      swap2\n      pop\n        /* \"#utility.yul\":4839:4932   */\n      tag_244\n        /* \"#utility.yul\":4928:4931   */\n      dup3\n        /* \"#utility.yul\":4839:4932   */\n      tag_245\n      jump\t// in\n    tag_244:\n        /* \"#utility.yul\":4957:4959   */\n      0x40\n        /* \"#utility.yul\":4952:4955   */\n      dup3\n        /* \"#utility.yul\":4948:4960   */\n      add\n        /* \"#utility.yul\":4941:4960   */\n      swap1\n      pop\n        /* \"#utility.yul\":4600:4966   */\n      swap2\n      swap1\n      pop\n      jump\t// out\n        /* \"#utility.yul\":4972:5338   */\n    tag_246:\n        /* \"#utility.yul\":5114:5117   */\n      0x00\n        /* \"#utility.yul\":5135:5202   */\n      tag_248\n        /* \"#utility.yul\":5199:5201   */\n      0x24\n        /* \"#utility.yul\":5194:5197   */\n      dup4\n        /* \"#utility.yul\":5135:5202   */\n      tag_221\n      jump\t// in\n    tag_248:\n        /* \"#utility.yul\":5128:5202   */\n      swap2\n      pop\n        /* \"#utility.yul\":5211:5304   */\n      tag_249\n        /* \"#utility.yul\":5300:5303   */\n      dup3\n        /* \"#utility.yul\":5211:5304   */\n      tag_250\n      jump\t// in\n    tag_249:\n        /* \"#utility.yul\":5329:5331   */\n      0x40\n        /* \"#utility.yul\":5324:5327   */\n      dup3\n        /* \"#utility.yul\":5320:5332   */\n      add\n        /* \"#utility.yul\":5313:5332   */\n      swap1\n      pop\n        /* \"#utility.yul\":4972:5338   */\n      swap2\n      swap1\n      pop\n      jump\t// out\n        /* \"#utility.yul\":5344:5710   */\n    tag_251:\n        /* \"#utility.yul\":5486:5489   */\n      0x00\n        /* \"#utility.yul\":5507:5574   */\n      tag_253\n        /* \"#utility.yul\":5571:5573   */\n      0x19\n        /* \"#utility.yul\":5566:5569   */\n      dup4\n        /* \"#utility.yul\":5507:5574   */\n      tag_221\n      jump\t// in\n    tag_253:\n        /* \"#utility.yul\":5500:5574   */\n      swap2\n      pop\n        /* \"#utility.yul\":5583:5676   */\n      tag_254\n        /* \"#utility.yul\":5672:5675   */\n      dup3\n        /* \"#utility.yul\":5583:5676   */\n      tag_255\n      jump\t// in\n    tag_254:\n        /* \"#utility.yul\":5701:5703   */\n      0x20\n        /* \"#utility.yul\":5696:5699   */\n      dup3\n        /* \"#utility.yul\":5692:5704   */\n      add\n        /* \"#utility.yul\":5685:5704   */\n      swap1\n      pop\n        /* \"#utility.yul\":5344:5710   */\n      swap2\n      swap1\n      pop\n      jump\t// out\n        /* \"#utility.yul\":5716:6082   */\n    tag_256:\n        /* \"#utility.yul\":5858:5861   */\n      0x00\n        /* \"#utility.yul\":5879:5946   */\n      tag_258\n        /* \"#utility.yul\":5943:5945   */\n      0x1f\n        /* \"#utility.yul\":5938:5941   */\n      dup4\n        /* \"#utility.yul\":5879:5946   */\n      tag_221\n      jump\t// in\n    tag_258:\n        /* \"#utility.yul\":5872:5946   */\n      swap2\n      pop\n        /* \"#utility.yul\":5955:6048   */\n      tag_259\n        /* \"#utility.yul\":6044:6047   */\n      dup3\n        /* \"#utility.yul\":5955:6048   */\n      tag_260\n      jump\t// in\n    tag_259:\n        /* \"#utility.yul\":6073:6075   */\n      0x20\n        /* \"#utility.yul\":6068:6071   */\n      dup3\n        /* \"#utility.yul\":6064:6076   */\n      add\n        /* \"#utility.yul\":6057:6076   */\n      swap1\n      pop\n        /* \"#utility.yul\":5716:6082   */\n      swap2\n      swap1\n      pop\n      jump\t// out\n        /* \"#utility.yul\":6088:6454   */\n    tag_261:\n        /* \"#utility.yul\":6230:6233   */\n      0x00\n        /* \"#utility.yul\":6251:6318   */\n      tag_263\n        /* \"#utility.yul\":6315:6317   */\n      0x36\n        /* \"#utility.yul\":6310:6313   */\n      dup4\n        /* \"#utility.yul\":6251:6318   */\n      tag_221\n      jump\t// in\n    tag_263:\n        /* \"#utility.yul\":6244:6318   */\n      swap2\n      pop\n        /* \"#utility.yul\":6327:6420   */\n      tag_264\n        /* \"#utility.yul\":6416:6419   */\n      dup3\n        /* \"#utility.yul\":6327:6420   */\n      tag_265\n      jump\t// in\n    tag_264:\n        /* \"#utility.yul\":6445:6447   */\n      0x40\n        /* \"#utility.yul\":6440:6443   */\n      dup3\n        /* \"#utility.yul\":6436:6448   */\n      add\n        /* \"#utility.yul\":6429:6448   */\n      swap1\n      pop\n        /* \"#utility.yul\":6088:6454   */\n      swap2\n      swap1\n      pop\n      jump\t// out\n        /* \"#utility.yul\":6460:6826   */\n    tag_266:\n        /* \"#utility.yul\":6602:6605   */\n      0x00\n        /* \"#utility.yul\":6623:6690   */\n      tag_268\n        /* \"#utility.yul\":6687:6689   */\n      0x16\n        /* \"#utility.yul\":6682:6685   */\n      dup4\n        /* \"#utility.yul\":6623:6690   */\n      tag_221\n      jump\t// in\n    tag_268:\n        /* \"#utility.yul\":6616:6690   */\n      swap2\n      pop\n        /* \"#utility.yul\":6699:6792   */\n      tag_269\n        /* \"#utility.yul\":6788:6791   */\n      dup3\n        /* \"#utility.yul\":6699:6792   */\n      tag_270\n      jump\t// in\n    tag_269:\n        /* \"#utility.yul\":6817:6819   */\n      0x20\n        /* \"#utility.yul\":6812:6815   */\n      dup3\n        /* \"#utility.yul\":6808:6820   */\n      add\n        /* \"#utility.yul\":6801:6820   */\n      swap1\n      pop\n        /* \"#utility.yul\":6460:6826   */\n      swap2\n      swap1\n      pop\n      jump\t// out\n        /* \"#utility.yul\":6832:6950   */\n    tag_271:\n        /* \"#utility.yul\":6919:6943   */\n      tag_273\n        /* \"#utility.yul\":6937:6942   */\n      dup2\n        /* \"#utility.yul\":6919:6943   */\n      tag_274\n      jump\t// in\n    tag_273:\n        /* \"#utility.yul\":6914:6917   */\n      dup3\n        /* \"#utility.yul\":6907:6944   */\n      mstore\n        /* \"#utility.yul\":6832:6950   */\n      pop\n      pop\n      jump\t// out\n        /* \"#utility.yul\":6956:7178   */\n    tag_46:\n        /* \"#utility.yul\":7049:7053   */\n      0x00\n        /* \"#utility.yul\":7087:7089   */\n      0x20\n        /* \"#utility.yul\":7076:7085   */\n      dup3\n        /* \"#utility.yul\":7072:7090   */\n      add\n        /* \"#utility.yul\":7064:7090   */\n      swap1\n      pop\n        /* \"#utility.yul\":7100:7171   */\n      tag_276\n        /* \"#utility.yul\":7168:7169   */\n      0x00\n        /* \"#utility.yul\":7157:7166   */\n      dup4\n        /* \"#utility.yul\":7153:7170   */\n      add\n        /* \"#utility.yul\":7144:7150   */\n      dup5\n        /* \"#utility.yul\":7100:7171   */\n      tag_208\n      jump\t// in\n    tag_276:\n        /* \"#utility.yul\":6956:7178   */\n      swap3\n      swap2\n      pop\n      pop\n      jump\t// out\n        /* \"#utility.yul\":7184:7959   */\n    tag_72:\n        /* \"#utility.yul\":7419:7423   */\n      0x00\n        /* \"#utility.yul\":7457:7460   */\n      0xa0\n        /* \"#utility.yul\":7446:7455   */\n      dup3\n        /* \"#utility.yul\":7442:7461   */\n      add\n        /* \"#utility.yul\":7434:7461   */\n      swap1\n      pop\n        /* \"#utility.yul\":7507:7516   */\n      dup2\n        /* \"#utility.yul\":7501:7505   */\n      dup2\n        /* \"#utility.yul\":7497:7517   */\n      sub\n        /* \"#utility.yul\":7493:7494   */\n      0x00\n        /* \"#utility.yul\":7482:7491   */\n      dup4\n        /* \"#utility.yul\":7478:7495   */\n      add\n        /* \"#utility.yul\":7471:7518   */\n      mstore\n        /* \"#utility.yul\":7535:7613   */\n      tag_278\n        /* \"#utility.yul\":7608:7612   */\n      dup2\n        /* \"#utility.yul\":7599:7605   */\n      dup9\n        /* \"#utility.yul\":7535:7613   */\n      tag_216\n      jump\t// in\n    tag_278:\n        /* \"#utility.yul\":7527:7613   */\n      swap1\n      pop\n        /* \"#utility.yul\":7623:7711   */\n      tag_279\n        /* \"#utility.yul\":7707:7709   */\n      0x20\n        /* \"#utility.yul\":7696:7705   */\n      dup4\n        /* \"#utility.yul\":7692:7710   */\n      add\n        /* \"#utility.yul\":7683:7689   */\n      dup8\n        /* \"#utility.yul\":7623:7711   */\n      tag_204\n      jump\t// in\n    tag_279:\n        /* \"#utility.yul\":7721:7793   */\n      tag_280\n        /* \"#utility.yul\":7789:7791   */\n      0x40\n        /* \"#utility.yul\":7778:7787   */\n      dup4\n        /* \"#utility.yul\":7774:7792   */\n      add\n        /* \"#utility.yul\":7765:7771   */\n      dup7\n        /* \"#utility.yul\":7721:7793   */\n      tag_271\n      jump\t// in\n    tag_280:\n        /* \"#utility.yul\":7803:7869   */\n      tag_281\n        /* \"#utility.yul\":7865:7867   */\n      0x60\n        /* \"#utility.yul\":7854:7863   */\n      dup4\n        /* \"#utility.yul\":7850:7868   */\n      add\n        /* \"#utility.yul\":7841:7847   */\n      dup6\n        /* \"#utility.yul\":7803:7869   */\n      tag_212\n      jump\t// in\n    tag_281:\n        /* \"#utility.yul\":7879:7952   */\n      tag_282\n        /* \"#utility.yul\":7947:7950   */\n      0x80\n        /* \"#utility.yul\":7936:7945   */\n      dup4\n        /* \"#utility.yul\":7932:7951   */\n      add\n        /* \"#utility.yul\":7923:7929   */\n      dup5\n        /* \"#utility.yul\":7879:7952   */\n      tag_271\n      jump\t// in\n    tag_282:\n        /* \"#utility.yul\":7184:7959   */\n      swap7\n      swap6\n      pop\n      pop\n      pop\n      pop\n      pop\n      pop\n      jump\t// out\n        /* \"#utility.yul\":7965:8384   */\n    tag_88:\n        /* \"#utility.yul\":8131:8135   */\n      0x00\n        /* \"#utility.yul\":8169:8171   */\n      0x20\n        /* \"#utility.yul\":8158:8167   */\n      dup3\n        /* \"#utility.yul\":8154:8172   */\n      add\n        /* \"#utility.yul\":8146:8172   */\n      swap1\n      pop\n        /* \"#utility.yul\":8218:8227   */\n      dup2\n        /* \"#utility.yul\":8212:8216   */\n      dup2\n        /* \"#utility.yul\":8208:8228   */\n      sub\n        /* \"#utility.yul\":8204:8205   */\n      0x00\n        /* \"#utility.yul\":8193:8202   */\n      dup4\n        /* \"#utility.yul\":8189:8206   */\n      add\n        /* \"#utility.yul\":8182:8229   */\n      mstore\n        /* \"#utility.yul\":8246:8377   */\n      tag_284\n        /* \"#utility.yul\":8372:8376   */\n      dup2\n        /* \"#utility.yul\":8246:8377   */\n      tag_226\n      jump\t// in\n    tag_284:\n        /* \"#utility.yul\":8238:8377   */\n      swap1\n      pop\n        /* \"#utility.yul\":7965:8384   */\n      swap2\n      swap1\n      pop\n      jump\t// out\n        /* \"#utility.yul\":8390:8809   */\n    tag_91:\n        /* \"#utility.yul\":8556:8560   */\n      0x00\n        /* \"#utility.yul\":8594:8596   */\n      0x20\n        /* \"#utility.yul\":8583:8592   */\n      dup3\n        /* \"#utility.yul\":8579:8597   */\n      add\n        /* \"#utility.yul\":8571:8597   */\n      swap1\n      pop\n        /* \"#utility.yul\":8643:8652   */\n      dup2\n        /* \"#utility.yul\":8637:8641   */\n      dup2\n        /* \"#utility.yul\":8633:8653   */\n      sub\n        /* \"#utility.yul\":8629:8630   */\n      0x00\n        /* \"#utility.yul\":8618:8627   */\n      dup4\n        /* \"#utility.yul\":8614:8631   */\n      add\n        /* \"#utility.yul\":8607:8654   */\n      mstore\n        /* \"#utility.yul\":8671:8802   */\n      tag_286\n        /* \"#utility.yul\":8797:8801   */\n      dup2\n        /* \"#utility.yul\":8671:8802   */\n      tag_231\n      jump\t// in\n    tag_286:\n        /* \"#utility.yul\":8663:8802   */\n      swap1\n      pop\n        /* \"#utility.yul\":8390:8809   */\n      swap2\n      swap1\n      pop\n      jump\t// out\n        /* \"#utility.yul\":8815:9234   */\n    tag_121:\n        /* \"#utility.yul\":8981:8985   */\n      0x00\n        /* \"#utility.yul\":9019:9021   */\n      0x20\n        /* \"#utility.yul\":9008:9017   */\n      dup3\n        /* \"#utility.yul\":9004:9022   */\n      add\n        /* \"#utility.yul\":8996:9022   */\n      swap1\n      pop\n        /* \"#utility.yul\":9068:9077   */\n      dup2\n        /* \"#utility.yul\":9062:9066   */\n      dup2\n        /* \"#utility.yul\":9058:9078   */\n      sub\n        /* \"#utility.yul\":9054:9055   */\n      0x00\n        /* \"#utility.yul\":9043:9052   */\n      dup4\n        /* \"#utility.yul\":9039:9056   */\n      add\n        /* \"#utility.yul\":9032:9079   */\n      mstore\n        /* \"#utility.yul\":9096:9227   */\n      tag_288\n        /* \"#utility.yul\":9222:9226   */\n      dup2\n        /* \"#utility.yul\":9096:9227   */\n      tag_236\n      jump\t// in\n    tag_288:\n        /* \"#utility.yul\":9088:9227   */\n      swap1\n      pop\n        /* \"#utility.yul\":8815:9234   */\n      swap2\n      swap1\n      pop\n      jump\t// out\n        /* \"#utility.yul\":9240:9659   */\n    tag_136:\n        /* \"#utility.yul\":9406:9410   */\n      0x00\n        /* \"#utility.yul\":9444:9446   */\n      0x20\n        /* \"#utility.yul\":9433:9442   */\n      dup3\n        /* \"#utility.yul\":9429:9447   */\n      add\n        /* \"#utility.yul\":9421:9447   */\n      swap1\n      pop\n        /* \"#utility.yul\":9493:9502   */\n      dup2\n        /* \"#utility.yul\":9487:9491   */\n      dup2\n        /* \"#utility.yul\":9483:9503   */\n      sub\n        /* \"#utility.yul\":9479:9480   */\n      0x00\n        /* \"#utility.yul\":9468:9477   */\n      dup4\n        /* \"#utility.yul\":9464:9481   */\n      add\n        /* \"#utility.yul\":9457:9504   */\n      mstore\n        /* \"#utility.yul\":9521:9652   */\n      tag_290\n        /* \"#utility.yul\":9647:9651   */\n      dup2\n        /* \"#utility.yul\":9521:9652   */\n      tag_241\n      jump\t// in\n    tag_290:\n        /* \"#utility.yul\":9513:9652   */\n      swap1\n      pop\n        /* \"#utility.yul\":9240:9659   */\n      swap2\n      swap1\n      pop\n      jump\t// out\n        /* \"#utility.yul\":9665:10084   */\n    tag_101:\n        /* \"#utility.yul\":9831:9835   */\n      0x00\n        /* \"#utility.yul\":9869:9871   */\n      0x20\n        /* \"#utility.yul\":9858:9867   */\n      dup3\n        /* \"#utility.yul\":9854:9872   */\n      add\n        /* \"#utility.yul\":9846:9872   */\n      swap1\n      pop\n        /* \"#utility.yul\":9918:9927   */\n      dup2\n        /* \"#utility.yul\":9912:9916   */\n      dup2\n        /* \"#utility.yul\":9908:9928   */\n      sub\n        /* \"#utility.yul\":9904:9905   */\n      0x00\n        /* \"#utility.yul\":9893:9902   */\n      dup4\n        /* \"#utility.yul\":9889:9906   */\n      add\n        /* \"#utility.yul\":9882:9929   */\n      mstore\n        /* \"#utility.yul\":9946:10077   */\n      tag_292\n        /* \"#utility.yul\":10072:10076   */\n      dup2\n        /* \"#utility.yul\":9946:10077   */\n      tag_246\n      jump\t// in\n    tag_292:\n        /* \"#utility.yul\":9938:10077   */\n      swap1\n      pop\n        /* \"#utility.yul\":9665:10084   */\n      swap2\n      swap1\n      pop\n      jump\t// out\n        /* \"#utility.yul\":10090:10509   */\n    tag_109:\n        /* \"#utility.yul\":10256:10260   */\n      0x00\n        /* \"#utility.yul\":10294:10296   */\n      0x20\n        /* \"#utility.yul\":10283:10292   */\n      dup3\n        /* \"#utility.yul\":10279:10297   */\n      add\n        /* \"#utility.yul\":10271:10297   */\n      swap1\n      pop\n        /* \"#utility.yul\":10343:10352   */\n      dup2\n        /* \"#utility.yul\":10337:10341   */\n      dup2\n        /* \"#utility.yul\":10333:10353   */\n      sub\n        /* \"#utility.yul\":10329:10330   */\n      0x00\n        /* \"#utility.yul\":10318:10327   */\n      dup4\n        /* \"#utility.yul\":10314:10331   */\n      add\n        /* \"#utility.yul\":10307:10354   */\n      mstore\n        /* \"#utility.yul\":10371:10502   */\n      tag_294\n        /* \"#utility.yul\":10497:10501   */\n      dup2\n        /* \"#utility.yul\":10371:10502   */\n      tag_251\n      jump\t// in\n    tag_294:\n        /* \"#utility.yul\":10363:10502   */\n      swap1\n      pop\n        /* \"#utility.yul\":10090:10509   */\n      swap2\n      swap1\n      pop\n      jump\t// out\n        /* \"#utility.yul\":10515:10934   */\n    tag_133:\n        /* \"#utility.yul\":10681:10685   */\n      0x00\n        /* \"#utility.yul\":10719:10721   */\n      0x20\n        /* \"#utility.yul\":10708:10717   */\n      dup3\n        /* \"#utility.yul\":10704:10722   */\n      add\n        /* \"#utility.yul\":10696:10722   */\n      swap1\n      pop\n        /* \"#utility.yul\":10768:10777   */\n      dup2\n        /* \"#utility.yul\":10762:10766   */\n      dup2\n        /* \"#utility.yul\":10758:10778   */\n      sub\n        /* \"#utility.yul\":10754:10755   */\n      0x00\n        /* \"#utility.yul\":10743:10752   */\n      dup4\n        /* \"#utility.yul\":10739:10756   */\n      add\n        /* \"#utility.yul\":10732:10779   */\n      mstore\n        /* \"#utility.yul\":10796:10927   */\n      tag_296\n        /* \"#utility.yul\":10922:10926   */\n      dup2\n        /* \"#utility.yul\":10796:10927   */\n      tag_256\n      jump\t// in\n    tag_296:\n        /* \"#utility.yul\":10788:10927   */\n      swap1\n      pop\n        /* \"#utility.yul\":10515:10934   */\n      swap2\n      swap1\n      pop\n      jump\t// out\n        /* \"#utility.yul\":10940:11359   */\n    tag_126:\n        /* \"#utility.yul\":11106:11110   */\n      0x00\n        /* \"#utility.yul\":11144:11146   */\n      0x20\n        /* \"#utility.yul\":11133:11142   */\n      dup3\n        /* \"#utility.yul\":11129:11147   */\n      add\n        /* \"#utility.yul\":11121:11147   */\n      swap1\n      pop\n        /* \"#utility.yul\":11193:11202   */\n      dup2\n        /* \"#utility.yul\":11187:11191   */\n      dup2\n        /* \"#utility.yul\":11183:11203   */\n      sub\n        /* \"#utility.yul\":11179:11180   */\n      0x00\n        /* \"#utility.yul\":11168:11177   */\n      dup4\n        /* \"#utility.yul\":11164:11181   */\n      add\n        /* \"#utility.yul\":11157:11204   */\n      mstore\n        /* \"#utility.yul\":11221:11352   */\n      tag_298\n        /* \"#utility.yul\":11347:11351   */\n      dup2\n        /* \"#utility.yul\":11221:11352   */\n      tag_261\n      jump\t// in\n    tag_298:\n        /* \"#utility.yul\":11213:11352   */\n      swap1\n      pop\n        /* \"#utility.yul\":10940:11359   */\n      swap2\n      swap1\n      pop\n      jump\t// out\n        /* \"#utility.yul\":11365:11784   */\n    tag_112:\n        /* \"#utility.yul\":11531:11535   */\n      0x00\n        /* \"#utility.yul\":11569:11571   */\n      0x20\n        /* \"#utility.yul\":11558:11567   */\n      dup3\n        /* \"#utility.yul\":11554:11572   */\n      add\n        /* \"#utility.yul\":11546:11572   */\n      swap1\n      pop\n        /* \"#utility.yul\":11618:11627   */\n      dup2\n        /* \"#utility.yul\":11612:11616   */\n      dup2\n        /* \"#utility.yul\":11608:11628   */\n      sub\n        /* \"#utility.yul\":11604:11605   */\n      0x00\n        /* \"#utility.yul\":11593:11602   */\n      dup4\n        /* \"#utility.yul\":11589:11606   */\n      add\n        /* \"#utility.yul\":11582:11629   */\n      mstore\n        /* \"#utility.yul\":11646:11777   */\n      tag_300\n        /* \"#utility.yul\":11772:11776   */\n      dup2\n        /* \"#utility.yul\":11646:11777   */\n      tag_266\n      jump\t// in\n    tag_300:\n        /* \"#utility.yul\":11638:11777   */\n      swap1\n      pop\n        /* \"#utility.yul\":11365:11784   */\n      swap2\n      swap1\n      pop\n      jump\t// out\n        /* \"#utility.yul\":11790:12012   */\n    tag_28:\n        /* \"#utility.yul\":11883:11887   */\n      0x00\n        /* \"#utility.yul\":11921:11923   */\n      0x20\n        /* \"#utility.yul\":11910:11919   */\n      dup3\n        /* \"#utility.yul\":11906:11924   */\n      add\n        /* \"#utility.yul\":11898:11924   */\n      swap1\n      pop\n        /* \"#utility.yul\":11934:12005   */\n      tag_302\n        /* \"#utility.yul\":12002:12003   */\n      0x00\n        /* \"#utility.yul\":11991:12000   */\n      dup4\n        /* \"#utility.yul\":11987:12004   */\n      add\n        /* \"#utility.yul\":11978:11984   */\n      dup5\n        /* \"#utility.yul\":11934:12005   */\n      tag_271\n      jump\t// in\n    tag_302:\n        /* \"#utility.yul\":11790:12012   */\n      swap3\n      swap2\n      pop\n      pop\n      jump\t// out\n        /* \"#utility.yul\":12018:12147   */\n    tag_162:\n        /* \"#utility.yul\":12052:12058   */\n      0x00\n        /* \"#utility.yul\":12079:12099   */\n      tag_304\n      tag_305\n      jump\t// in\n    tag_304:\n        /* \"#utility.yul\":12069:12099   */\n      swap1\n      pop\n        /* \"#utility.yul\":12108:12141   */\n      tag_306\n        /* \"#utility.yul\":12136:12140   */\n      dup3\n        /* \"#utility.yul\":12128:12134   */\n      dup3\n        /* \"#utility.yul\":12108:12141   */\n      tag_307\n      jump\t// in\n    tag_306:\n        /* \"#utility.yul\":12018:12147   */\n      swap2\n      swap1\n      pop\n      jump\t// out\n        /* \"#utility.yul\":12153:12228   */\n    tag_305:\n        /* \"#utility.yul\":12186:12192   */\n      0x00\n        /* \"#utility.yul\":12219:12221   */\n      0x40\n        /* \"#utility.yul\":12213:12222   */\n      mload\n        /* \"#utility.yul\":12203:12222   */\n      swap1\n      pop\n        /* \"#utility.yul\":12153:12228   */\n      swap1\n      jump\t// out\n        /* \"#utility.yul\":12234:12542   */\n    tag_161:\n        /* \"#utility.yul\":12296:12300   */\n      0x00\n        /* \"#utility.yul\":12386:12404   */\n      0xffffffffffffffff\n        /* \"#utility.yul\":12378:12384   */\n      dup3\n        /* \"#utility.yul\":12375:12405   */\n      gt\n        /* \"#utility.yul\":12372:12428   */\n      iszero\n      tag_310\n      jumpi\n        /* \"#utility.yul\":12408:12426   */\n      tag_311\n      tag_312\n      jump\t// in\n    tag_311:\n        /* \"#utility.yul\":12372:12428   */\n    tag_310:\n        /* \"#utility.yul\":12446:12475   */\n      tag_313\n        /* \"#utility.yul\":12468:12474   */\n      dup3\n        /* \"#utility.yul\":12446:12475   */\n      tag_225\n      jump\t// in\n    tag_313:\n        /* \"#utility.yul\":12438:12475   */\n      swap1\n      pop\n        /* \"#utility.yul\":12530:12534   */\n      0x20\n        /* \"#utility.yul\":12524:12528   */\n      dup2\n        /* \"#utility.yul\":12520:12535   */\n      add\n        /* \"#utility.yul\":12512:12535   */\n      swap1\n      pop\n        /* \"#utility.yul\":12234:12542   */\n      swap2\n      swap1\n      pop\n      jump\t// out\n        /* \"#utility.yul\":12548:12647   */\n    tag_219:\n        /* \"#utility.yul\":12600:12606   */\n      0x00\n        /* \"#utility.yul\":12634:12639   */\n      dup2\n        /* \"#utility.yul\":12628:12640   */\n      mload\n        /* \"#utility.yul\":12618:12640   */\n      swap1\n      pop\n        /* \"#utility.yul\":12548:12647   */\n      swap2\n      swap1\n      pop\n      jump\t// out\n        /* \"#utility.yul\":12653:12822   */\n    tag_221:\n        /* \"#utility.yul\":12737:12748   */\n      0x00\n        /* \"#utility.yul\":12771:12777   */\n      dup3\n        /* \"#utility.yul\":12766:12769   */\n      dup3\n        /* \"#utility.yul\":12759:12778   */\n      mstore\n        /* \"#utility.yul\":12811:12815   */\n      0x20\n        /* \"#utility.yul\":12806:12809   */\n      dup3\n        /* \"#utility.yul\":12802:12816   */\n      add\n        /* \"#utility.yul\":12787:12816   */\n      swap1\n      pop\n        /* \"#utility.yul\":12653:12822   */\n      swap3\n      swap2\n      pop\n      pop\n      jump\t// out\n        /* \"#utility.yul\":12828:13133   */\n    tag_96:\n        /* \"#utility.yul\":12868:12871   */\n      0x00\n        /* \"#utility.yul\":12887:12907   */\n      tag_317\n        /* \"#utility.yul\":12905:12906   */\n      dup3\n        /* \"#utility.yul\":12887:12907   */\n      tag_274\n      jump\t// in\n    tag_317:\n        /* \"#utility.yul\":12882:12907   */\n      swap2\n      pop\n        /* \"#utility.yul\":12921:12941   */\n      tag_318\n        /* \"#utility.yul\":12939:12940   */\n      dup4\n        /* \"#utility.yul\":12921:12941   */\n      tag_274\n      jump\t// in\n    tag_318:\n        /* \"#utility.yul\":12916:12941   */\n      swap3\n      pop\n        /* \"#utility.yul\":13075:13076   */\n      dup3\n        /* \"#utility.yul\":13007:13073   */\n      0xffffffffffffffffffffffffffffffffffffffffffffffffffffffffffffffff\n        /* \"#utility.yul\":13003:13077   */\n      sub\n        /* \"#utility.yul\":13000:13001   */\n      dup3\n        /* \"#utility.yul\":12997:13078   */\n      gt\n        /* \"#utility.yul\":12994:13101   */\n      iszero\n      tag_319\n      jumpi\n        /* \"#utility.yul\":13081:13099   */\n      tag_320\n      tag_321\n      jump\t// in\n    tag_320:\n        /* \"#utility.yul\":12994:13101   */\n    tag_319:\n        /* \"#utility.yul\":13125:13126   */\n      dup3\n        /* \"#utility.yul\":13122:13123   */\n      dup3\n        /* \"#utility.yul\":13118:13127   */\n      add\n        /* \"#utility.yul\":13111:13127   */\n      swap1\n      pop\n        /* \"#utility.yul\":12828:13133   */\n      swap3\n      swap2\n      pop\n      pop\n      jump\t// out\n        /* \"#utility.yul\":13139:13324   */\n    tag_123:\n        /* \"#utility.yul\":13179:13180   */\n      0x00\n        /* \"#utility.yul\":13196:13216   */\n      tag_323\n        /* \"#utility.yul\":13214:13215   */\n      dup3\n        /* \"#utility.yul\":13196:13216   */\n      tag_274\n      jump\t// in\n    tag_323:\n        /* \"#utility.yul\":13191:13216   */\n      swap2\n      pop\n        /* \"#utility.yul\":13230:13250   */\n      tag_324\n        /* \"#utility.yul\":13248:13249   */\n      dup4\n        /* \"#utility.yul\":13230:13250   */\n      tag_274\n      jump\t// in\n    tag_324:\n        /* \"#utility.yul\":13225:13250   */\n      swap3\n      pop\n        /* \"#utility.yul\":13269:13270   */\n      dup3\n        /* \"#utility.yul\":13259:13294   */\n      tag_325\n      jumpi\n        /* \"#utility.yul\":13274:13292   */\n      tag_326\n      tag_327\n      jump\t// in\n    tag_326:\n        /* \"#utility.yul\":13259:13294   */\n    tag_325:\n        /* \"#utility.yul\":13316:13317   */\n      dup3\n        /* \"#utility.yul\":13313:13314   */\n      dup3\n        /* \"#utility.yul\":13309:13318   */\n      div\n        /* \"#utility.yul\":13304:13318   */\n      swap1\n      pop\n        /* \"#utility.yul\":13139:13324   */\n      swap3\n      swap2\n      pop\n      pop\n      jump\t// out\n        /* \"#utility.yul\":13330:13426   */\n    tag_211:\n        /* \"#utility.yul\":13367:13374   */\n      0x00\n        /* \"#utility.yul\":13396:13420   */\n      tag_329\n        /* \"#utility.yul\":13414:13419   */\n      dup3\n        /* \"#utility.yul\":13396:13420   */\n      tag_330\n      jump\t// in\n    tag_329:\n        /* \"#utility.yul\":13385:13420   */\n      swap1\n      pop\n        /* \"#utility.yul\":13330:13426   */\n      swap2\n      swap1\n      pop\n      jump\t// out\n        /* \"#utility.yul\":13432:13536   */\n    tag_207:\n        /* \"#utility.yul\":13477:13484   */\n      0x00\n        /* \"#utility.yul\":13506:13530   */\n      tag_332\n        /* \"#utility.yul\":13524:13529   */\n      dup3\n        /* \"#utility.yul\":13506:13530   */\n      tag_330\n      jump\t// in\n    tag_332:\n        /* \"#utility.yul\":13495:13530   */\n      swap1\n      pop\n        /* \"#utility.yul\":13432:13536   */\n      swap2\n      swap1\n      pop\n      jump\t// out\n        /* \"#utility.yul\":13542:13632   */\n    tag_215:\n        /* \"#utility.yul\":13576:13583   */\n      0x00\n        /* \"#utility.yul\":13619:13624   */\n      dup2\n        /* \"#utility.yul\":13612:13625   */\n      iszero\n        /* \"#utility.yul\":13605:13626   */\n      iszero\n        /* \"#utility.yul\":13594:13626   */\n      swap1\n      pop\n        /* \"#utility.yul\":13542:13632   */\n      swap2\n      swap1\n      pop\n      jump\t// out\n        /* \"#utility.yul\":13638:13764   */\n    tag_330:\n        /* \"#utility.yul\":13675:13682   */\n      0x00\n        /* \"#utility.yul\":13715:13757   */\n      0xffffffffffffffffffffffffffffffffffffffff\n        /* \"#utility.yul\":13708:13713   */\n      dup3\n        /* \"#utility.yul\":13704:13758   */\n      and\n        /* \"#utility.yul\":13693:13758   */\n      swap1\n      pop\n        /* \"#utility.yul\":13638:13764   */\n      swap2\n      swap1\n      pop\n      jump\t// out\n        /* \"#utility.yul\":13770:13847   */\n    tag_274:\n        /* \"#utility.yul\":13807:13814   */\n      0x00\n        /* \"#utility.yul\":13836:13841   */\n      dup2\n        /* \"#utility.yul\":13825:13841   */\n      swap1\n      pop\n        /* \"#utility.yul\":13770:13847   */\n      swap2\n      swap1\n      pop\n      jump\t// out\n        /* \"#utility.yul\":13853:14007   */\n    tag_167:\n        /* \"#utility.yul\":13937:13943   */\n      dup3\n        /* \"#utility.yul\":13932:13935   */\n      dup2\n        /* \"#utility.yul\":13927:13930   */\n      dup4\n        /* \"#utility.yul\":13914:13944   */\n      calldatacopy\n        /* \"#utility.yul\":13999:14000   */\n      0x00\n        /* \"#utility.yul\":13990:13996   */\n      dup4\n        /* \"#utility.yul\":13985:13988   */\n      dup4\n        /* \"#utility.yul\":13981:13997   */\n      add\n        /* \"#utility.yul\":13974:14001   */\n      mstore\n        /* \"#utility.yul\":13853:14007   */\n      pop\n      pop\n      pop\n      jump\t// out\n        /* \"#utility.yul\":14013:14320   */\n    tag_223:\n        /* \"#utility.yul\":14081:14082   */\n      0x00\n        /* \"#utility.yul\":14091:14204   */\n    tag_338:\n        /* \"#utility.yul\":14105:14111   */\n      dup4\n        /* \"#utility.yul\":14102:14103   */\n      dup2\n        /* \"#utility.yul\":14099:14112   */\n      lt\n        /* \"#utility.yul\":14091:14204   */\n      iszero\n      tag_340\n      jumpi\n        /* \"#utility.yul\":14190:14191   */\n      dup1\n        /* \"#utility.yul\":14185:14188   */\n      dup3\n        /* \"#utility.yul\":14181:14192   */\n      add\n        /* \"#utility.yul\":14175:14193   */\n      mload\n        /* \"#utility.yul\":14171:14172   */\n      dup2\n        /* \"#utility.yul\":14166:14169   */\n      dup5\n        /* \"#utility.yul\":14162:14173   */\n      add\n        /* \"#utility.yul\":14155:14194   */\n      mstore\n        /* \"#utility.yul\":14127:14129   */\n      0x20\n        /* \"#utility.yul\":14124:14125   */\n      dup2\n        /* \"#utility.yul\":14120:14130   */\n      add\n        /* \"#utility.yul\":14115:14130   */\n      swap1\n      pop\n        /* \"#utility.yul\":14091:14204   */\n      jump(tag_338)\n    tag_340:\n        /* \"#utility.yul\":14222:14228   */\n      dup4\n        /* \"#utility.yul\":14219:14220   */\n      dup2\n        /* \"#utility.yul\":14216:14229   */\n      gt\n        /* \"#utility.yul\":14213:14314   */\n      iszero\n      tag_341\n      jumpi\n        /* \"#utility.yul\":14302:14303   */\n      0x00\n        /* \"#utility.yul\":14293:14299   */\n      dup5\n        /* \"#utility.yul\":14288:14291   */\n      dup5\n        /* \"#utility.yul\":14284:14300   */\n      add\n        /* \"#utility.yul\":14277:14304   */\n      mstore\n        /* \"#utility.yul\":14213:14314   */\n    tag_341:\n        /* \"#utility.yul\":14062:14320   */\n      pop\n        /* \"#utility.yul\":14013:14320   */\n      pop\n      pop\n      pop\n      jump\t// out\n        /* \"#utility.yul\":14326:14646   */\n    tag_141:\n        /* \"#utility.yul\":14370:14376   */\n      0x00\n        /* \"#utility.yul\":14407:14408   */\n      0x02\n        /* \"#utility.yul\":14401:14405   */\n      dup3\n        /* \"#utility.yul\":14397:14409   */\n      div\n        /* \"#utility.yul\":14387:14409   */\n      swap1\n      pop\n        /* \"#utility.yul\":14454:14455   */\n      0x01\n        /* \"#utility.yul\":14448:14452   */\n      dup3\n        /* \"#utility.yul\":14444:14456   */\n      and\n        /* \"#utility.yul\":14475:14493   */\n      dup1\n        /* \"#utility.yul\":14465:14546   */\n      tag_343\n      jumpi\n        /* \"#utility.yul\":14531:14535   */\n      0x7f\n        /* \"#utility.yul\":14523:14529   */\n      dup3\n        /* \"#utility.yul\":14519:14536   */\n      and\n        /* \"#utility.yul\":14509:14536   */\n      swap2\n      pop\n        /* \"#utility.yul\":14465:14546   */\n    tag_343:\n        /* \"#utility.yul\":14593:14595   */\n      0x20\n        /* \"#utility.yul\":14585:14591   */\n      dup3\n        /* \"#utility.yul\":14582:14596   */\n      lt\n        /* \"#utility.yul\":14562:14580   */\n      dup2\n        /* \"#utility.yul\":14559:14597   */\n      eq\n        /* \"#utility.yul\":14556:14640   */\n      iszero\n      tag_344\n      jumpi\n        /* \"#utility.yul\":14612:14630   */\n      tag_345\n      tag_346\n      jump\t// in\n    tag_345:\n        /* \"#utility.yul\":14556:14640   */\n    tag_344:\n        /* \"#utility.yul\":14377:14646   */\n      pop\n        /* \"#utility.yul\":14326:14646   */\n      swap2\n      swap1\n      pop\n      jump\t// out\n        /* \"#utility.yul\":14652:14933   */\n    tag_307:\n        /* \"#utility.yul\":14735:14762   */\n      tag_348\n        /* \"#utility.yul\":14757:14761   */\n      dup3\n        /* \"#utility.yul\":14735:14762   */\n      tag_225\n      jump\t// in\n    tag_348:\n        /* \"#utility.yul\":14727:14733   */\n      dup2\n        /* \"#utility.yul\":14723:14763   */\n      add\n        /* \"#utility.yul\":14865:14871   */\n      dup2\n        /* \"#utility.yul\":14853:14863   */\n      dup2\n        /* \"#utility.yul\":14850:14872   */\n      lt\n        /* \"#utility.yul\":14829:14847   */\n      0xffffffffffffffff\n        /* \"#utility.yul\":14817:14827   */\n      dup3\n        /* \"#utility.yul\":14814:14848   */\n      gt\n        /* \"#utility.yul\":14811:14873   */\n      or\n        /* \"#utility.yul\":14808:14896   */\n      iszero\n      tag_349\n      jumpi\n        /* \"#utility.yul\":14876:14894   */\n      tag_350\n      tag_312\n      jump\t// in\n    tag_350:\n        /* \"#utility.yul\":14808:14896   */\n    tag_349:\n        /* \"#utility.yul\":14916:14926   */\n      dup1\n        /* \"#utility.yul\":14912:14914   */\n      0x40\n        /* \"#utility.yul\":14905:14927   */\n      mstore\n        /* \"#utility.yul\":14695:14933   */\n      pop\n        /* \"#utility.yul\":14652:14933   */\n      pop\n      pop\n      jump\t// out\n        /* \"#utility.yul\":14939:15172   */\n    tag_94:\n        /* \"#utility.yul\":14978:14981   */\n      0x00\n        /* \"#utility.yul\":15001:15025   */\n      tag_352\n        /* \"#utility.yul\":15019:15024   */\n      dup3\n        /* \"#utility.yul\":15001:15025   */\n      tag_274\n      jump\t// in\n    tag_352:\n        /* \"#utility.yul\":14992:15025   */\n      swap2\n      pop\n        /* \"#utility.yul\":15047:15113   */\n      0xffffffffffffffffffffffffffffffffffffffffffffffffffffffffffffffff\n        /* \"#utility.yul\":15040:15045   */\n      dup3\n        /* \"#utility.yul\":15037:15114   */\n      eq\n        /* \"#utility.yul\":15034:15137   */\n      iszero\n      tag_353\n      jumpi\n        /* \"#utility.yul\":15117:15135   */\n      tag_354\n      tag_321\n      jump\t// in\n    tag_354:\n        /* \"#utility.yul\":15034:15137   */\n    tag_353:\n        /* \"#utility.yul\":15164:15165   */\n      0x01\n        /* \"#utility.yul\":15157:15162   */\n      dup3\n        /* \"#utility.yul\":15153:15166   */\n      add\n        /* \"#utility.yul\":15146:15166   */\n      swap1\n      pop\n        /* \"#utility.yul\":14939:15172   */\n      swap2\n      swap1\n      pop\n      jump\t// out\n        /* \"#utility.yul\":15178:15358   */\n    tag_321:\n        /* \"#utility.yul\":15226:15303   */\n      0x4e487b7100000000000000000000000000000000000000000000000000000000\n        /* \"#utility.yul\":15223:15224   */\n      0x00\n        /* \"#utility.yul\":15216:15304   */\n      mstore\n        /* \"#utility.yul\":15323:15327   */\n      0x11\n        /* \"#utility.yul\":15320:15321   */\n      0x04\n        /* \"#utility.yul\":15313:15328   */\n      mstore\n        /* \"#utility.yul\":15347:15351   */\n      0x24\n        /* \"#utility.yul\":15344:15345   */\n      0x00\n        /* \"#utility.yul\":15337:15352   */\n      revert\n        /* \"#utility.yul\":15364:15544   */\n    tag_327:\n        /* \"#utility.yul\":15412:15489   */\n      0x4e487b7100000000000000000000000000000000000000000000000000000000\n        /* \"#utility.yul\":15409:15410   */\n      0x00\n        /* \"#utility.yul\":15402:15490   */\n      mstore\n        /* \"#utility.yul\":15509:15513   */\n      0x12\n        /* \"#utility.yul\":15506:15507   */\n      0x04\n        /* \"#utility.yul\":15499:15514   */\n      mstore\n        /* \"#utility.yul\":15533:15537   */\n      0x24\n        /* \"#utility.yul\":15530:15531   */\n      0x00\n        /* \"#utility.yul\":15523:15538   */\n      revert\n        /* \"#utility.yul\":15550:15730   */\n    tag_346:\n        /* \"#utility.yul\":15598:15675   */\n      0x4e487b7100000000000000000000000000000000000000000000000000000000\n        /* \"#utility.yul\":15595:15596   */\n      0x00\n        /* \"#utility.yul\":15588:15676   */\n      mstore\n        /* \"#utility.yul\":15695:15699   */\n      0x22\n        /* \"#utility.yul\":15692:15693   */\n      0x04\n        /* \"#utility.yul\":15685:15700   */\n      mstore\n        /* \"#utility.yul\":15719:15723   */\n      0x24\n        /* \"#utility.yul\":15716:15717   */\n      0x00\n        /* \"#utility.yul\":15709:15724   */\n      revert\n        /* \"#utility.yul\":15736:15916   */\n    tag_312:\n        /* \"#utility.yul\":15784:15861   */\n      0x4e487b7100000000000000000000000000000000000000000000000000000000\n        /* \"#utility.yul\":15781:15782   */\n      0x00\n        /* \"#utility.yul\":15774:15862   */\n      mstore\n        /* \"#utility.yul\":15881:15885   */\n      0x41\n        /* \"#utility.yul\":15878:15879   */\n      0x04\n        /* \"#utility.yul\":15871:15886   */\n      mstore\n        /* \"#utility.yul\":15905:15909   */\n      0x24\n        /* \"#utility.yul\":15902:15903   */\n      0x00\n        /* \"#utility.yul\":15895:15910   */\n      revert\n        /* \"#utility.yul\":15922:16039   */\n    tag_180:\n        /* \"#utility.yul\":16031:16032   */\n      0x00\n        /* \"#utility.yul\":16028:16029   */\n      dup1\n        /* \"#utility.yul\":16021:16033   */\n      revert\n        /* \"#utility.yul\":16045:16162   */\n    tag_165:\n        /* \"#utility.yul\":16154:16155   */\n      0x00\n        /* \"#utility.yul\":16151:16152   */\n      dup1\n        /* \"#utility.yul\":16144:16156   */\n      revert\n        /* \"#utility.yul\":16168:16285   */\n    tag_196:\n        /* \"#utility.yul\":16277:16278   */\n      0x00\n        /* \"#utility.yul\":16274:16275   */\n      dup1\n        /* \"#utility.yul\":16267:16279   */\n      revert\n        /* \"#utility.yul\":16291:16408   */\n    tag_189:\n        /* \"#utility.yul\":16400:16401   */\n      0x00\n        /* \"#utility.yul\":16397:16398   */\n      dup1\n        /* \"#utility.yul\":16390:16402   */\n      revert\n        /* \"#utility.yul\":16414:16516   */\n    tag_225:\n        /* \"#utility.yul\":16455:16461   */\n      0x00\n        /* \"#utility.yul\":16506:16508   */\n      0x1f\n        /* \"#utility.yul\":16502:16509   */\n      not\n        /* \"#utility.yul\":16497:16499   */\n      0x1f\n        /* \"#utility.yul\":16490:16495   */\n      dup4\n        /* \"#utility.yul\":16486:16500   */\n      add\n        /* \"#utility.yul\":16482:16510   */\n      and\n        /* \"#utility.yul\":16472:16510   */\n      swap1\n      pop\n        /* \"#utility.yul\":16414:16516   */\n      swap2\n      swap1\n      pop\n      jump\t// out\n        /* \"#utility.yul\":16522:16691   */\n    tag_230:\n        /* \"#utility.yul\":16662:16683   */\n      0x446561646c696e65206861732070617373656400000000000000000000000000\n        /* \"#utility.yul\":16658:16659   */\n      0x00\n        /* \"#utility.yul\":16650:16656   */\n      dup3\n        /* \"#utility.yul\":16646:16660   */\n      add\n        /* \"#utility.yul\":16639:16684   */\n      mstore\n        /* \"#utility.yul\":16522:16691   */\n      pop\n      jump\t// out\n        /* \"#utility.yul\":16697:16878   */\n    tag_235:\n        /* \"#utility.yul\":16837:16870   */\n      0x4d696e696d756d20636f6e747269627574696f6e206973206e6f74206d657400\n        /* \"#utility.yul\":16833:16834   */\n      0x00\n        /* \"#utility.yul\":16825:16831   */\n      dup3\n        /* \"#utility.yul\":16821:16835   */\n      add\n        /* \"#utility.yul\":16814:16871   */\n      mstore\n        /* \"#utility.yul\":16697:16878   */\n      pop\n      jump\t// out\n        /* \"#utility.yul\":16884:17064   */\n    tag_240:\n        /* \"#utility.yul\":17024:17056   */\n      0x546865207265717565737420686173206265656e20636f6d706c657465640000\n        /* \"#utility.yul\":17020:17021   */\n      0x00\n        /* \"#utility.yul\":17012:17018   */\n      dup3\n        /* \"#utility.yul\":17008:17022   */\n      add\n        /* \"#utility.yul\":17001:17057   */\n      mstore\n        /* \"#utility.yul\":16884:17064   */\n      pop\n      jump\t// out\n        /* \"#utility.yul\":17070:17290   */\n    tag_245:\n        /* \"#utility.yul\":17210:17244   */\n      0x4e6f20636f6e747269627574656420616d6f756e74207265666c656374656421\n        /* \"#utility.yul\":17206:17207   */\n      0x00\n        /* \"#utility.yul\":17198:17204   */\n      dup3\n        /* \"#utility.yul\":17194:17208   */\n      add\n        /* \"#utility.yul\":17187:17245   */\n      mstore\n        /* \"#utility.yul\":17279:17282   */\n      0x2100000000000000000000000000000000000000000000000000000000000000\n        /* \"#utility.yul\":17274:17276   */\n      0x20\n        /* \"#utility.yul\":17266:17272   */\n      dup3\n        /* \"#utility.yul\":17262:17277   */\n      add\n        /* \"#utility.yul\":17255:17283   */\n      mstore\n        /* \"#utility.yul\":17070:17290   */\n      pop\n      jump\t// out\n        /* \"#utility.yul\":17296:17519   */\n    tag_250:\n        /* \"#utility.yul\":17436:17470   */\n      0x4f6e6c79204d616e616765722063616e2063616c6c20746869732066756e6374\n        /* \"#utility.yul\":17432:17433   */\n      0x00\n        /* \"#utility.yul\":17424:17430   */\n      dup3\n        /* \"#utility.yul\":17420:17434   */\n      add\n        /* \"#utility.yul\":17413:17471   */\n      mstore\n        /* \"#utility.yul\":17505:17511   */\n      0x696f6e2100000000000000000000000000000000000000000000000000000000\n        /* \"#utility.yul\":17500:17502   */\n      0x20\n        /* \"#utility.yul\":17492:17498   */\n      dup3\n        /* \"#utility.yul\":17488:17503   */\n      add\n        /* \"#utility.yul\":17481:17512   */\n      mstore\n        /* \"#utility.yul\":17296:17519   */\n      pop\n      jump\t// out\n        /* \"#utility.yul\":17525:17700   */\n    tag_255:\n        /* \"#utility.yul\":17665:17692   */\n      0x596f75206d757374206265206120636f6e7472696275746f7200000000000000\n        /* \"#utility.yul\":17661:17662   */\n      0x00\n        /* \"#utility.yul\":17653:17659   */\n      dup3\n        /* \"#utility.yul\":17649:17663   */\n      add\n        /* \"#utility.yul\":17642:17693   */\n      mstore\n        /* \"#utility.yul\":17525:17700   */\n      pop\n      jump\t// out\n        /* \"#utility.yul\":17706:17887   */\n    tag_260:\n        /* \"#utility.yul\":17846:17879   */\n      0x596f7520617265206e6f7420656c696769626c6520666f7220726566756e6400\n        /* \"#utility.yul\":17842:17843   */\n      0x00\n        /* \"#utility.yul\":17834:17840   */\n      dup3\n        /* \"#utility.yul\":17830:17844   */\n      add\n        /* \"#utility.yul\":17823:17880   */\n      mstore\n        /* \"#utility.yul\":17706:17887   */\n      pop\n      jump\t// out\n        /* \"#utility.yul\":17893:18134   */\n    tag_265:\n        /* \"#utility.yul\":18033:18067   */\n      0x4d616a6f72697479206f6620636f6e7472696275746f727320646f6573206e6f\n        /* \"#utility.yul\":18029:18030   */\n      0x00\n        /* \"#utility.yul\":18021:18027   */\n      dup3\n        /* \"#utility.yul\":18017:18031   */\n      add\n        /* \"#utility.yul\":18010:18068   */\n      mstore\n        /* \"#utility.yul\":18102:18126   */\n      0x7420737570706f72742074686973207265717565737400000000000000000000\n        /* \"#utility.yul\":18097:18099   */\n      0x20\n        /* \"#utility.yul\":18089:18095   */\n      dup3\n        /* \"#utility.yul\":18085:18100   */\n      add\n        /* \"#utility.yul\":18078:18127   */\n      mstore\n        /* \"#utility.yul\":17893:18134   */\n      pop\n      jump\t// out\n        /* \"#utility.yul\":18140:18312   */\n    tag_270:\n        /* \"#utility.yul\":18280:18304   */\n      0x596f75206861766520616c726561647920766f74656400000000000000000000\n        /* \"#utility.yul\":18276:18277   */\n      0x00\n        /* \"#utility.yul\":18268:18274   */\n      dup3\n        /* \"#utility.yul\":18264:18278   */\n      add\n        /* \"#utility.yul\":18257:18305   */\n      mstore\n        /* \"#utility.yul\":18140:18312   */\n      pop\n      jump\t// out\n        /* \"#utility.yul\":18318:18440   */\n    tag_171:\n        /* \"#utility.yul\":18391:18415   */\n      tag_374\n        /* \"#utility.yul\":18409:18414   */\n      dup2\n        /* \"#utility.yul\":18391:18415   */\n      tag_211\n      jump\t// in\n    tag_374:\n        /* \"#utility.yul\":18384:18389   */\n      dup2\n        /* \"#utility.yul\":18381:18416   */\n      eq\n        /* \"#utility.yul\":18371:18434   */\n      tag_375\n      jumpi\n        /* \"#utility.yul\":18430:18431   */\n      0x00\n        /* \"#utility.yul\":18427:18428   */\n      dup1\n        /* \"#utility.yul\":18420:18432   */\n      revert\n        /* \"#utility.yul\":18371:18434   */\n    tag_375:\n        /* \"#utility.yul\":18318:18440   */\n      pop\n      jump\t// out\n        /* \"#utility.yul\":18446:18584   */\n    tag_175:\n        /* \"#utility.yul\":18527:18559   */\n      tag_377\n        /* \"#utility.yul\":18553:18558   */\n      dup2\n        /* \"#utility.yul\":18527:18559   */\n      tag_207\n      jump\t// in\n    tag_377:\n        /* \"#utility.yul\":18520:18525   */\n      dup2\n        /* \"#utility.yul\":18517:18560   */\n      eq\n        /* \"#utility.yul\":18507:18578   */\n      tag_378\n      jumpi\n        /* \"#utility.yul\":18574:18575   */\n      0x00\n        /* \"#utility.yul\":18571:18572   */\n      dup1\n        /* \"#utility.yul\":18564:18576   */\n      revert\n        /* \"#utility.yul\":18507:18578   */\n    tag_378:\n        /* \"#utility.yul\":18446:18584   */\n      pop\n      jump\t// out\n        /* \"#utility.yul\":18590:18712   */\n    tag_185:\n        /* \"#utility.yul\":18663:18687   */\n      tag_380\n        /* \"#utility.yul\":18681:18686   */\n      dup2\n        /* \"#utility.yul\":18663:18687   */\n      tag_274\n      jump\t// in\n    tag_380:\n        /* \"#utility.yul\":18656:18661   */\n      dup2\n        /* \"#utility.yul\":18653:18688   */\n      eq\n        /* \"#utility.yul\":18643:18706   */\n      tag_381\n      jumpi\n        /* \"#utility.yul\":18702:18703   */\n      0x00\n        /* \"#utility.yul\":18699:18700   */\n      dup1\n        /* \"#utility.yul\":18692:18704   */\n      revert\n        /* \"#utility.yul\":18643:18706   */\n    tag_381:\n        /* \"#utility.yul\":18590:18712   */\n      pop\n      jump\t// out\n\n    auxdata: 0xa26469706673582212208aa3d368bf0b195a874a8b33d138fccca42320101ed650236f5fe0eab55b9a9d64736f6c63430008070033\n}\n",
				"bytecode": {
					"linkReferences": {},
					"object": "60806040523480156200001157600080fd5b506040516200195f3803806200195f8339818101604052810190620000379190620000ba565b8160048190555080426200004c919062000101565b600381905550606460028190555033600160006101000a81548173ffffffffffffffffffffffffffffffffffffffff021916908373ffffffffffffffffffffffffffffffffffffffff1602179055505050620001b6565b600081519050620000b4816200019c565b92915050565b60008060408385031215620000d457620000d362000197565b5b6000620000e485828601620000a3565b9250506020620000f785828601620000a3565b9150509250929050565b60006200010e826200015e565b91506200011b836200015e565b9250827fffffffffffffffffffffffffffffffffffffffffffffffffffffffffffffffff0382111562000153576200015262000168565b5b828201905092915050565b6000819050919050565b7f4e487b7100000000000000000000000000000000000000000000000000000000600052601160045260246000fd5b600080fd5b620001a7816200015e565b8114620001b357600080fd5b50565b61179980620001c66000396000f3fe6080604052600436106100e85760003560e01c80634e260f6f1161008a57806381d12c581161005957806381d12c581461029d5780639fb42b1f146102de578063aaffadf314610309578063d4b8399214610334576100e8565b80634e260f6f146102075780635114cb5214610232578063590e1ae31461025b5780636f9fb98a14610272576100e8565b80633eb7647b116100c65780633eb7647b1461015f5780633ece2b4f14610188578063481c6a75146101b35780634cb6f4a5146101de576100e8565b806306e99fef146100ed5780631f6d4942146100f757806329dcb0cf14610134575b600080fd5b6100f561035f565b005b34801561010357600080fd5b5061011e60048036038101906101199190610df0565b6104b8565b60405161012b91906111fe565b60405180910390f35b34801561014057600080fd5b506101496104d0565b60405161015691906111fe565b60405180910390f35b34801561016b57600080fd5b5061018660048036038101906101819190610e1d565b6104d6565b005b34801561019457600080fd5b5061019d610629565b6040516101aa91906111fe565b60405180910390f35b3480156101bf57600080fd5b506101c861062f565b6040516101d59190611069565b60405180910390f35b3480156101ea57600080fd5b5061020560048036038101906102009190610e8c565b610655565b005b34801561021357600080fd5b5061021c6107fa565b60405161022991906111fe565b60405180910390f35b34801561023e57600080fd5b5061025960048036038101906102549190610e8c565b610800565b005b34801561026757600080fd5b506102706109f4565b005b34801561027e57600080fd5b50610287610b99565b60405161029491906111fe565b60405180910390f35b3480156102a957600080fd5b506102c460048036038101906102bf9190610e8c565b610ba1565b6040516102d5959493929190611084565b60405180910390f35b3480156102ea57600080fd5b506102f3610c8c565b60405161030091906111fe565b60405180910390f35b34801561031557600080fd5b5061031e610c92565b60405161032b91906111fe565b60405180910390f35b34801561034057600080fd5b50610349610c98565b60405161035691906111fe565b60405180910390f35b60035442106103a3576040517f08c379a000000000000000000000000000000000000000000000000000000000815260040161039a906110de565b60405180910390fd5b6002543410156103e8576040517f08c379a00000000000000000000000000000000000000000000000000000000081526004016103df906110fe565b60405180910390fd5b60008060003373ffffffffffffffffffffffffffffffffffffffff1673ffffffffffffffffffffffffffffffffffffffff168152602001908152602001600020541415610448576006600081548092919061044290611411565b91905055505b346000803373ffffffffffffffffffffffffffffffffffffffff1673ffffffffffffffffffffffffffffffffffffffff1681526020019081526020016000206000828254610496919061128b565b9250508190555034600560008282546104af919061128b565b92505081905550565b60006020528060005260406000206000915090505481565b60035481565b600160009054906101000a900473ffffffffffffffffffffffffffffffffffffffff1673ffffffffffffffffffffffffffffffffffffffff163373ffffffffffffffffffffffffffffffffffffffff1614610566576040517f08c379a000000000000000000000000000000000000000000000000000000000815260040161055d9061115e565b60405180910390fd5b600060076000600854815260200190815260200160002090506008600081548092919061059290611411565b9190505550838160000190805190602001906105af929190610c9e565b50828160010160006101000a81548173ffffffffffffffffffffffffffffffffffffffff021916908373ffffffffffffffffffffffffffffffffffffffff16021790555081816002018190555060008160030160006101000a81548160ff0219169083151502179055506000816004018190555050505050565b60055481565b600160009054906101000a900473ffffffffffffffffffffffffffffffffffffffff1681565b60008060003373ffffffffffffffffffffffffffffffffffffffff1673ffffffffffffffffffffffffffffffffffffffff16815260200190815260200160002054116106d6576040517f08c379a00000000000000000000000000000000000000000000000000000000081526004016106cd9061117e565b60405180910390fd5b6000600760008381526020019081526020016000209050600015158160050160003373ffffffffffffffffffffffffffffffffffffffff1673ffffffffffffffffffffffffffffffffffffffff16815260200190815260200160002060009054906101000a900460ff16151514610782576040517f08c379a0000000000000000000000000000000000000000000000000000000008152600401610779906111de565b60405180910390fd5b60018160050160003373ffffffffffffffffffffffffffffffffffffffff1673ffffffffffffffffffffffffffffffffffffffff16815260200190815260200160002060006101000a81548160ff0219169083151502179055508060040160008154809291906107f190611411565b91905055505050565b60065481565b600160009054906101000a900473ffffffffffffffffffffffffffffffffffffffff1673ffffffffffffffffffffffffffffffffffffffff163373ffffffffffffffffffffffffffffffffffffffff1614610890576040517f08c379a00000000000000000000000000000000000000000000000000000000081526004016108879061115e565b60405180910390fd5b60045460055410156108a157600080fd5b6000600760008381526020019081526020016000209050600015158160030160009054906101000a900460ff16151514610910576040517f08c379a00000000000000000000000000000000000000000000000000000000081526004016109079061111e565b60405180910390fd5b600260065461091f91906112e1565b816004015411610964576040517f08c379a000000000000000000000000000000000000000000000000000000000815260040161095b906111be565b60405180910390fd5b8060010160009054906101000a900473ffffffffffffffffffffffffffffffffffffffff1673ffffffffffffffffffffffffffffffffffffffff166108fc82600201549081150290604051600060405180830381858888f193505050501580156109d2573d6000803e3d6000fd5b5060018160030160006101000a81548160ff0219169083151502179055505050565b60035442118015610a085750600454600554105b610a47576040517f08c379a0000000000000000000000000000000000000000000000000000000008152600401610a3e9061119e565b60405180910390fd5b60008060003373ffffffffffffffffffffffffffffffffffffffff1673ffffffffffffffffffffffffffffffffffffffff1681526020019081526020016000205411610ac8576040517f08c379a0000000000000000000000000000000000000000000000000000000008152600401610abf9061113e565b60405180910390fd5b60003390508073ffffffffffffffffffffffffffffffffffffffff166108fc6000803373ffffffffffffffffffffffffffffffffffffffff1673ffffffffffffffffffffffffffffffffffffffff168152602001908152602001600020549081150290604051600060405180830381858888f19350505050158015610b51573d6000803e3d6000fd5b5060008060003373ffffffffffffffffffffffffffffffffffffffff1673ffffffffffffffffffffffffffffffffffffffff1681526020019081526020016000208190555050565b600047905090565b6007602052806000526040600020600091509050806000018054610bc4906113ae565b80601f0160208091040260200160405190810160405280929190818152602001828054610bf0906113ae565b8015610c3d5780601f10610c1257610100808354040283529160200191610c3d565b820191906000526020600020905b815481529060010190602001808311610c2057829003601f168201915b5050505050908060010160009054906101000a900473ffffffffffffffffffffffffffffffffffffffff16908060020154908060030160009054906101000a900460ff16908060040154905085565b60085481565b60025481565b60045481565b828054610caa906113ae565b90600052602060002090601f016020900481019282610ccc5760008555610d13565b82601f10610ce557805160ff1916838001178555610d13565b82800160010185558215610d13579182015b82811115610d12578251825591602001919060010190610cf7565b5b509050610d209190610d24565b5090565b5b80821115610d3d576000816000905550600101610d25565b5090565b6000610d54610d4f8461123e565b611219565b905082815260208101848484011115610d7057610d6f61151b565b5b610d7b84828561136c565b509392505050565b600081359050610d928161171e565b92915050565b600081359050610da781611735565b92915050565b600082601f830112610dc257610dc1611516565b5b8135610dd2848260208601610d41565b91505092915050565b600081359050610dea8161174c565b92915050565b600060208284031215610e0657610e05611525565b5b6000610e1484828501610d83565b91505092915050565b600080600060608486031215610e3657610e35611525565b5b600084013567ffffffffffffffff811115610e5457610e53611520565b5b610e6086828701610dad565b9350506020610e7186828701610d98565b9250506040610e8286828701610ddb565b9150509250925092565b600060208284031215610ea257610ea1611525565b5b6000610eb084828501610ddb565b91505092915050565b610ec281611324565b82525050565b610ed181611312565b82525050565b610ee081611336565b82525050565b6000610ef18261126f565b610efb818561127a565b9350610f0b81856020860161137b565b610f148161152a565b840191505092915050565b6000610f2c60138361127a565b9150610f378261153b565b602082019050919050565b6000610f4f601f8361127a565b9150610f5a82611564565b602082019050919050565b6000610f72601e8361127a565b9150610f7d8261158d565b602082019050919050565b6000610f9560218361127a565b9150610fa0826115b6565b604082019050919050565b6000610fb860248361127a565b9150610fc382611605565b604082019050919050565b6000610fdb60198361127a565b9150610fe682611654565b602082019050919050565b6000610ffe601f8361127a565b91506110098261167d565b602082019050919050565b600061102160368361127a565b915061102c826116a6565b604082019050919050565b600061104460168361127a565b915061104f826116f5565b602082019050919050565b61106381611362565b82525050565b600060208201905061107e6000830184610ec8565b92915050565b600060a082019050818103600083015261109e8188610ee6565b90506110ad6020830187610eb9565b6110ba604083018661105a565b6110c76060830185610ed7565b6110d4608083018461105a565b9695505050505050565b600060208201905081810360008301526110f781610f1f565b9050919050565b6000602082019050818103600083015261111781610f42565b9050919050565b6000602082019050818103600083015261113781610f65565b9050919050565b6000602082019050818103600083015261115781610f88565b9050919050565b6000602082019050818103600083015261117781610fab565b9050919050565b6000602082019050818103600083015261119781610fce565b9050919050565b600060208201905081810360008301526111b781610ff1565b9050919050565b600060208201905081810360008301526111d781611014565b9050919050565b600060208201905081810360008301526111f781611037565b9050919050565b6000602082019050611213600083018461105a565b92915050565b6000611223611234565b905061122f82826113e0565b919050565b6000604051905090565b600067ffffffffffffffff821115611259576112586114e7565b5b6112628261152a565b9050602081019050919050565b600081519050919050565b600082825260208201905092915050565b600061129682611362565b91506112a183611362565b9250827fffffffffffffffffffffffffffffffffffffffffffffffffffffffffffffffff038211156112d6576112d561145a565b5b828201905092915050565b60006112ec82611362565b91506112f783611362565b92508261130757611306611489565b5b828204905092915050565b600061131d82611342565b9050919050565b600061132f82611342565b9050919050565b60008115159050919050565b600073ffffffffffffffffffffffffffffffffffffffff82169050919050565b6000819050919050565b82818337600083830152505050565b60005b8381101561139957808201518184015260208101905061137e565b838111156113a8576000848401525b50505050565b600060028204905060018216806113c657607f821691505b602082108114156113da576113d96114b8565b5b50919050565b6113e98261152a565b810181811067ffffffffffffffff82111715611408576114076114e7565b5b80604052505050565b600061141c82611362565b91507fffffffffffffffffffffffffffffffffffffffffffffffffffffffffffffffff82141561144f5761144e61145a565b5b600182019050919050565b7f4e487b7100000000000000000000000000000000000000000000000000000000600052601160045260246000fd5b7f4e487b7100000000000000000000000000000000000000000000000000000000600052601260045260246000fd5b7f4e487b7100000000000000000000000000000000000000000000000000000000600052602260045260246000fd5b7f4e487b7100000000000000000000000000000000000000000000000000000000600052604160045260246000fd5b600080fd5b600080fd5b600080fd5b600080fd5b6000601f19601f8301169050919050565b7f446561646c696e65206861732070617373656400000000000000000000000000600082015250565b7f4d696e696d756d20636f6e747269627574696f6e206973206e6f74206d657400600082015250565b7f546865207265717565737420686173206265656e20636f6d706c657465640000600082015250565b7f4e6f20636f6e747269627574656420616d6f756e74207265666c65637465642160008201527f2100000000000000000000000000000000000000000000000000000000000000602082015250565b7f4f6e6c79204d616e616765722063616e2063616c6c20746869732066756e637460008201527f696f6e2100000000000000000000000000000000000000000000000000000000602082015250565b7f596f75206d757374206265206120636f6e7472696275746f7200000000000000600082015250565b7f596f7520617265206e6f7420656c696769626c6520666f7220726566756e6400600082015250565b7f4d616a6f72697479206f6620636f6e7472696275746f727320646f6573206e6f60008201527f7420737570706f72742074686973207265717565737400000000000000000000602082015250565b7f596f75206861766520616c726561647920766f74656400000000000000000000600082015250565b61172781611312565b811461173257600080fd5b50565b61173e81611324565b811461174957600080fd5b50565b61175581611362565b811461176057600080fd5b5056fea26469706673582212208aa3d368bf0b195a874a8b33d138fccca42320101ed650236f5fe0eab55b9a9d64736f6c63430008070033",
					"opcodes": "PUSH1 0x80 PUSH1 0x40 MSTORE CALLVALUE DUP1 ISZERO PUSH3 0x11 JUMPI PUSH1 0x0 DUP1 REVERT JUMPDEST POP PUSH1 0x40 MLOAD PUSH3 0x195F CODESIZE SUB DUP1 PUSH3 0x195F DUP4 CODECOPY DUP2 DUP2 ADD PUSH1 0x40 MSTORE DUP2 ADD SWAP1 PUSH3 0x37 SWAP2 SWAP1 PUSH3 0xBA JUMP JUMPDEST DUP2 PUSH1 0x4 DUP2 SWAP1 SSTORE POP DUP1 TIMESTAMP PUSH3 0x4C SWAP2 SWAP1 PUSH3 0x101 JUMP JUMPDEST PUSH1 0x3 DUP2 SWAP1 SSTORE POP PUSH1 0x64 PUSH1 0x2 DUP2 SWAP1 SSTORE POP CALLER PUSH1 0x1 PUSH1 0x0 PUSH2 0x100 EXP DUP2 SLOAD DUP2 PUSH20 0xFFFFFFFFFFFFFFFFFFFFFFFFFFFFFFFFFFFFFFFF MUL NOT AND SWAP1 DUP4 PUSH20 0xFFFFFFFFFFFFFFFFFFFFFFFFFFFFFFFFFFFFFFFF AND MUL OR SWAP1 SSTORE POP POP POP PUSH3 0x1B6 JUMP JUMPDEST PUSH1 0x0 DUP2 MLOAD SWAP1 POP PUSH3 0xB4 DUP2 PUSH3 0x19C JUMP JUMPDEST SWAP3 SWAP2 POP POP JUMP JUMPDEST PUSH1 0x0 DUP1 PUSH1 0x40 DUP4 DUP6 SUB SLT ISZERO PUSH3 0xD4 JUMPI PUSH3 0xD3 PUSH3 0x197 JUMP JUMPDEST JUMPDEST PUSH1 0x0 PUSH3 0xE4 DUP6 DUP3 DUP7 ADD PUSH3 0xA3 JUMP JUMPDEST SWAP3 POP POP PUSH1 0x20 PUSH3 0xF7 DUP6 DUP3 DUP7 ADD PUSH3 0xA3 JUMP JUMPDEST SWAP2 POP POP SWAP3 POP SWAP3 SWAP1 POP JUMP JUMPDEST PUSH1 0x0 PUSH3 0x10E DUP3 PUSH3 0x15E JUMP JUMPDEST SWAP2 POP PUSH3 0x11B DUP4 PUSH3 0x15E JUMP JUMPDEST SWAP3 POP DUP3 PUSH32 0xFFFFFFFFFFFFFFFFFFFFFFFFFFFFFFFFFFFFFFFFFFFFFFFFFFFFFFFFFFFFFFFF SUB DUP3 GT ISZERO PUSH3 0x153 JUMPI PUSH3 0x152 PUSH3 0x168 JUMP JUMPDEST JUMPDEST DUP3 DUP3 ADD SWAP1 POP SWAP3 SWAP2 POP POP JUMP JUMPDEST PUSH1 0x0 DUP2 SWAP1 POP SWAP2 SWAP1 POP JUMP JUMPDEST PUSH32 0x4E487B7100000000000000000000000000000000000000000000000000000000 PUSH1 0x0 MSTORE PUSH1 0x11 PUSH1 0x4 MSTORE PUSH1 0x24 PUSH1 0x0 REVERT JUMPDEST PUSH1 0x0 DUP1 REVERT JUMPDEST PUSH3 0x1A7 DUP2 PUSH3 0x15E JUMP JUMPDEST DUP2 EQ PUSH3 0x1B3 JUMPI PUSH1 0x0 DUP1 REVERT JUMPDEST POP JUMP JUMPDEST PUSH2 0x1799 DUP1 PUSH3 0x1C6 PUSH1 0x0 CODECOPY PUSH1 0x0 RETURN INVALID PUSH1 0x80 PUSH1 0x40 MSTORE PUSH1 0x4 CALLDATASIZE LT PUSH2 0xE8 JUMPI PUSH1 0x0 CALLDATALOAD PUSH1 0xE0 SHR DUP1 PUSH4 0x4E260F6F GT PUSH2 0x8A JUMPI DUP1 PUSH4 0x81D12C58 GT PUSH2 0x59 JUMPI DUP1 PUSH4 0x81D12C58 EQ PUSH2 0x29D JUMPI DUP1 PUSH4 0x9FB42B1F EQ PUSH2 0x2DE JUMPI DUP1 PUSH4 0xAAFFADF3 EQ PUSH2 0x309 JUMPI DUP1 PUSH4 0xD4B83992 EQ PUSH2 0x334 JUMPI PUSH2 0xE8 JUMP JUMPDEST DUP1 PUSH4 0x4E260F6F EQ PUSH2 0x207 JUMPI DUP1 PUSH4 0x5114CB52 EQ PUSH2 0x232 JUMPI DUP1 PUSH4 0x590E1AE3 EQ PUSH2 0x25B JUMPI DUP1 PUSH4 0x6F9FB98A EQ PUSH2 0x272 JUMPI PUSH2 0xE8 JUMP JUMPDEST DUP1 PUSH4 0x3EB7647B GT PUSH2 0xC6 JUMPI DUP1 PUSH4 0x3EB7647B EQ PUSH2 0x15F JUMPI DUP1 PUSH4 0x3ECE2B4F EQ PUSH2 0x188 JUMPI DUP1 PUSH4 0x481C6A75 EQ PUSH2 0x1B3 JUMPI DUP1 PUSH4 0x4CB6F4A5 EQ PUSH2 0x1DE JUMPI PUSH2 0xE8 JUMP JUMPDEST DUP1 PUSH4 0x6E99FEF EQ PUSH2 0xED JUMPI DUP1 PUSH4 0x1F6D4942 EQ PUSH2 0xF7 JUMPI DUP1 PUSH4 0x29DCB0CF EQ PUSH2 0x134 JUMPI JUMPDEST PUSH1 0x0 DUP1 REVERT JUMPDEST PUSH2 0xF5 PUSH2 0x35F JUMP JUMPDEST STOP JUMPDEST CALLVALUE DUP1 ISZERO PUSH2 0x103 JUMPI PUSH1 0x0 DUP1 REVERT JUMPDEST POP PUSH2 0x11E PUSH1 0x4 DUP1 CALLDATASIZE SUB DUP2 ADD SWAP1 PUSH2 0x119 SWAP2 SWAP1 PUSH2 0xDF0 JUMP JUMPDEST PUSH2 0x4B8 JUMP JUMPDEST PUSH1 0x40 MLOAD PUSH2 0x12B SWAP2 SWAP1 PUSH2 0x11FE JUMP JUMPDEST PUSH1 0x40 MLOAD DUP1 SWAP2 SUB SWAP1 RETURN JUMPDEST CALLVALUE DUP1 ISZERO PUSH2 0x140 JUMPI PUSH1 0x0 DUP1 REVERT JUMPDEST POP PUSH2 0x149 PUSH2 0x4D0 JUMP JUMPDEST PUSH1 0x40 MLOAD PUSH2 0x156 SWAP2 SWAP1 PUSH2 0x11FE JUMP JUMPDEST PUSH1 0x40 MLOAD DUP1 SWAP2 SUB SWAP1 RETURN JUMPDEST CALLVALUE DUP1 ISZERO PUSH2 0x16B JUMPI PUSH1 0x0 DUP1 REVERT JUMPDEST POP PUSH2 0x186 PUSH1 0x4 DUP1 CALLDATASIZE SUB DUP2 ADD SWAP1 PUSH2 0x181 SWAP2 SWAP1 PUSH2 0xE1D JUMP JUMPDEST PUSH2 0x4D6 JUMP JUMPDEST STOP JUMPDEST CALLVALUE DUP1 ISZERO PUSH2 0x194 JUMPI PUSH1 0x0 DUP1 REVERT JUMPDEST POP PUSH2 0x19D PUSH2 0x629 JUMP JUMPDEST PUSH1 0x40 MLOAD PUSH2 0x1AA SWAP2 SWAP1 PUSH2 0x11FE JUMP JUMPDEST PUSH1 0x40 MLOAD DUP1 SWAP2 SUB SWAP1 RETURN JUMPDEST CALLVALUE DUP1 ISZERO PUSH2 0x1BF JUMPI PUSH1 0x0 DUP1 REVERT JUMPDEST POP PUSH2 0x1C8 PUSH2 0x62F JUMP JUMPDEST PUSH1 0x40 MLOAD PUSH2 0x1D5 SWAP2 SWAP1 PUSH2 0x1069 JUMP JUMPDEST PUSH1 0x40 MLOAD DUP1 SWAP2 SUB SWAP1 RETURN JUMPDEST CALLVALUE DUP1 ISZERO PUSH2 0x1EA JUMPI PUSH1 0x0 DUP1 REVERT JUMPDEST POP PUSH2 0x205 PUSH1 0x4 DUP1 CALLDATASIZE SUB DUP2 ADD SWAP1 PUSH2 0x200 SWAP2 SWAP1 PUSH2 0xE8C JUMP JUMPDEST PUSH2 0x655 JUMP JUMPDEST STOP JUMPDEST CALLVALUE DUP1 ISZERO PUSH2 0x213 JUMPI PUSH1 0x0 DUP1 REVERT JUMPDEST POP PUSH2 0x21C PUSH2 0x7FA JUMP JUMPDEST PUSH1 0x40 MLOAD PUSH2 0x229 SWAP2 SWAP1 PUSH2 0x11FE JUMP JUMPDEST PUSH1 0x40 MLOAD DUP1 SWAP2 SUB SWAP1 RETURN JUMPDEST CALLVALUE DUP1 ISZERO PUSH2 0x23E JUMPI PUSH1 0x0 DUP1 REVERT JUMPDEST POP PUSH2 0x259 PUSH1 0x4 DUP1 CALLDATASIZE SUB DUP2 ADD SWAP1 PUSH2 0x254 SWAP2 SWAP1 PUSH2 0xE8C JUMP JUMPDEST PUSH2 0x800 JUMP JUMPDEST STOP JUMPDEST CALLVALUE DUP1 ISZERO PUSH2 0x267 JUMPI PUSH1 0x0 DUP1 REVERT JUMPDEST POP PUSH2 0x270 PUSH2 0x9F4 JUMP JUMPDEST STOP JUMPDEST CALLVALUE DUP1 ISZERO PUSH2 0x27E JUMPI PUSH1 0x0 DUP1 REVERT JUMPDEST POP PUSH2 0x287 PUSH2 0xB99 JUMP JUMPDEST PUSH1 0x40 MLOAD PUSH2 0x294 SWAP2 SWAP1 PUSH2 0x11FE JUMP JUMPDEST PUSH1 0x40 MLOAD DUP1 SWAP2 SUB SWAP1 RETURN JUMPDEST CALLVALUE DUP1 ISZERO PUSH2 0x2A9 JUMPI PUSH1 0x0 DUP1 REVERT JUMPDEST POP PUSH2 0x2C4 PUSH1 0x4 DUP1 CALLDATASIZE SUB DUP2 ADD SWAP1 PUSH2 0x2BF SWAP2 SWAP1 PUSH2 0xE8C JUMP JUMPDEST PUSH2 0xBA1 JUMP JUMPDEST PUSH1 0x40 MLOAD PUSH2 0x2D5 SWAP6 SWAP5 SWAP4 SWAP3 SWAP2 SWAP1 PUSH2 0x1084 JUMP JUMPDEST PUSH1 0x40 MLOAD DUP1 SWAP2 SUB SWAP1 RETURN JUMPDEST CALLVALUE DUP1 ISZERO PUSH2 0x2EA JUMPI PUSH1 0x0 DUP1 REVERT JUMPDEST POP PUSH2 0x2F3 PUSH2 0xC8C JUMP JUMPDEST PUSH1 0x40 MLOAD PUSH2 0x300 SWAP2 SWAP1 PUSH2 0x11FE JUMP JUMPDEST PUSH1 0x40 MLOAD DUP1 SWAP2 SUB SWAP1 RETURN JUMPDEST CALLVALUE DUP1 ISZERO PUSH2 0x315 JUMPI PUSH1 0x0 DUP1 REVERT JUMPDEST POP PUSH2 0x31E PUSH2 0xC92 JUMP JUMPDEST PUSH1 0x40 MLOAD PUSH2 0x32B SWAP2 SWAP1 PUSH2 0x11FE JUMP JUMPDEST PUSH1 0x40 MLOAD DUP1 SWAP2 SUB SWAP1 RETURN JUMPDEST CALLVALUE DUP1 ISZERO PUSH2 0x340 JUMPI PUSH1 0x0 DUP1 REVERT JUMPDEST POP PUSH2 0x349 PUSH2 0xC98 JUMP JUMPDEST PUSH1 0x40 MLOAD PUSH2 0x356 SWAP2 SWAP1 PUSH2 0x11FE JUMP JUMPDEST PUSH1 0x40 MLOAD DUP1 SWAP2 SUB SWAP1 RETURN JUMPDEST PUSH1 0x3 SLOAD TIMESTAMP LT PUSH2 0x3A3 JUMPI PUSH1 0x40 MLOAD PUSH32 0x8C379A000000000000000000000000000000000000000000000000000000000 DUP2 MSTORE PUSH1 0x4 ADD PUSH2 0x39A SWAP1 PUSH2 0x10DE JUMP JUMPDEST PUSH1 0x40 MLOAD DUP1 SWAP2 SUB SWAP1 REVERT JUMPDEST PUSH1 0x2 SLOAD CALLVALUE LT ISZERO PUSH2 0x3E8 JUMPI PUSH1 0x40 MLOAD PUSH32 0x8C379A000000000000000000000000000000000000000000000000000000000 DUP2 MSTORE PUSH1 0x4 ADD PUSH2 0x3DF SWAP1 PUSH2 0x10FE JUMP JUMPDEST PUSH1 0x40 MLOAD DUP1 SWAP2 SUB SWAP1 REVERT JUMPDEST PUSH1 0x0 DUP1 PUSH1 0x0 CALLER PUSH20 0xFFFFFFFFFFFFFFFFFFFFFFFFFFFFFFFFFFFFFFFF AND PUSH20 0xFFFFFFFFFFFFFFFFFFFFFFFFFFFFFFFFFFFFFFFF AND DUP2 MSTORE PUSH1 0x20 ADD SWAP1 DUP2 MSTORE PUSH1 0x20 ADD PUSH1 0x0 KECCAK256 SLOAD EQ ISZERO PUSH2 0x448 JUMPI PUSH1 0x6 PUSH1 0x0 DUP2 SLOAD DUP1 SWAP3 SWAP2 SWAP1 PUSH2 0x442 SWAP1 PUSH2 0x1411 JUMP JUMPDEST SWAP2 SWAP1 POP SSTORE POP JUMPDEST CALLVALUE PUSH1 0x0 DUP1 CALLER PUSH20 0xFFFFFFFFFFFFFFFFFFFFFFFFFFFFFFFFFFFFFFFF AND PUSH20 0xFFFFFFFFFFFFFFFFFFFFFFFFFFFFFFFFFFFFFFFF AND DUP2 MSTORE PUSH1 0x20 ADD SWAP1 DUP2 MSTORE PUSH1 0x20 ADD PUSH1 0x0 KECCAK256 PUSH1 0x0 DUP3 DUP3 SLOAD PUSH2 0x496 SWAP2 SWAP1 PUSH2 0x128B JUMP JUMPDEST SWAP3 POP POP DUP2 SWAP1 SSTORE POP CALLVALUE PUSH1 0x5 PUSH1 0x0 DUP3 DUP3 SLOAD PUSH2 0x4AF SWAP2 SWAP1 PUSH2 0x128B JUMP JUMPDEST SWAP3 POP POP DUP2 SWAP1 SSTORE POP JUMP JUMPDEST PUSH1 0x0 PUSH1 0x20 MSTORE DUP1 PUSH1 0x0 MSTORE PUSH1 0x40 PUSH1 0x0 KECCAK256 PUSH1 0x0 SWAP2 POP SWAP1 POP SLOAD DUP2 JUMP JUMPDEST PUSH1 0x3 SLOAD DUP2 JUMP JUMPDEST PUSH1 0x1 PUSH1 0x0 SWAP1 SLOAD SWAP1 PUSH2 0x100 EXP SWAP1 DIV PUSH20 0xFFFFFFFFFFFFFFFFFFFFFFFFFFFFFFFFFFFFFFFF AND PUSH20 0xFFFFFFFFFFFFFFFFFFFFFFFFFFFFFFFFFFFFFFFF AND CALLER PUSH20 0xFFFFFFFFFFFFFFFFFFFFFFFFFFFFFFFFFFFFFFFF AND EQ PUSH2 0x566 JUMPI PUSH1 0x40 MLOAD PUSH32 0x8C379A000000000000000000000000000000000000000000000000000000000 DUP2 MSTORE PUSH1 0x4 ADD PUSH2 0x55D SWAP1 PUSH2 0x115E JUMP JUMPDEST PUSH1 0x40 MLOAD DUP1 SWAP2 SUB SWAP1 REVERT JUMPDEST PUSH1 0x0 PUSH1 0x7 PUSH1 0x0 PUSH1 0x8 SLOAD DUP2 MSTORE PUSH1 0x20 ADD SWAP1 DUP2 MSTORE PUSH1 0x20 ADD PUSH1 0x0 KECCAK256 SWAP1 POP PUSH1 0x8 PUSH1 0x0 DUP2 SLOAD DUP1 SWAP3 SWAP2 SWAP1 PUSH2 0x592 SWAP1 PUSH2 0x1411 JUMP JUMPDEST SWAP2 SWAP1 POP SSTORE POP DUP4 DUP2 PUSH1 0x0 ADD SWAP1 DUP1 MLOAD SWAP1 PUSH1 0x20 ADD SWAP1 PUSH2 0x5AF SWAP3 SWAP2 SWAP1 PUSH2 0xC9E JUMP JUMPDEST POP DUP3 DUP2 PUSH1 0x1 ADD PUSH1 0x0 PUSH2 0x100 EXP DUP2 SLOAD DUP2 PUSH20 0xFFFFFFFFFFFFFFFFFFFFFFFFFFFFFFFFFFFFFFFF MUL NOT AND SWAP1 DUP4 PUSH20 0xFFFFFFFFFFFFFFFFFFFFFFFFFFFFFFFFFFFFFFFF AND MUL OR SWAP1 SSTORE POP DUP2 DUP2 PUSH1 0x2 ADD DUP2 SWAP1 SSTORE POP PUSH1 0x0 DUP2 PUSH1 0x3 ADD PUSH1 0x0 PUSH2 0x100 EXP DUP2 SLOAD DUP2 PUSH1 0xFF MUL NOT AND SWAP1 DUP4 ISZERO ISZERO MUL OR SWAP1 SSTORE POP PUSH1 0x0 DUP2 PUSH1 0x4 ADD DUP2 SWAP1 SSTORE POP POP POP POP POP JUMP JUMPDEST PUSH1 0x5 SLOAD DUP2 JUMP JUMPDEST PUSH1 0x1 PUSH1 0x0 SWAP1 SLOAD SWAP1 PUSH2 0x100 EXP SWAP1 DIV PUSH20 0xFFFFFFFFFFFFFFFFFFFFFFFFFFFFFFFFFFFFFFFF AND DUP2 JUMP JUMPDEST PUSH1 0x0 DUP1 PUSH1 0x0 CALLER PUSH20 0xFFFFFFFFFFFFFFFFFFFFFFFFFFFFFFFFFFFFFFFF AND PUSH20 0xFFFFFFFFFFFFFFFFFFFFFFFFFFFFFFFFFFFFFFFF AND DUP2 MSTORE PUSH1 0x20 ADD SWAP1 DUP2 MSTORE PUSH1 0x20 ADD PUSH1 0x0 KECCAK256 SLOAD GT PUSH2 0x6D6 JUMPI PUSH1 0x40 MLOAD PUSH32 0x8C379A000000000000000000000000000000000000000000000000000000000 DUP2 MSTORE PUSH1 0x4 ADD PUSH2 0x6CD SWAP1 PUSH2 0x117E JUMP JUMPDEST PUSH1 0x40 MLOAD DUP1 SWAP2 SUB SWAP1 REVERT JUMPDEST PUSH1 0x0 PUSH1 0x7 PUSH1 0x0 DUP4 DUP2 MSTORE PUSH1 0x20 ADD SWAP1 DUP2 MSTORE PUSH1 0x20 ADD PUSH1 0x0 KECCAK256 SWAP1 POP PUSH1 0x0 ISZERO ISZERO DUP2 PUSH1 0x5 ADD PUSH1 0x0 CALLER PUSH20 0xFFFFFFFFFFFFFFFFFFFFFFFFFFFFFFFFFFFFFFFF AND PUSH20 0xFFFFFFFFFFFFFFFFFFFFFFFFFFFFFFFFFFFFFFFF AND DUP2 MSTORE PUSH1 0x20 ADD SWAP1 DUP2 MSTORE PUSH1 0x20 ADD PUSH1 0x0 KECCAK256 PUSH1 0x0 SWAP1 SLOAD SWAP1 PUSH2 0x100 EXP SWAP1 DIV PUSH1 0xFF AND ISZERO ISZERO EQ PUSH2 0x782 JUMPI PUSH1 0x40 MLOAD PUSH32 0x8C379A000000000000000000000000000000000000000000000000000000000 DUP2 MSTORE PUSH1 0x4 ADD PUSH2 0x779 SWAP1 PUSH2 0x11DE JUMP JUMPDEST PUSH1 0x40 MLOAD DUP1 SWAP2 SUB SWAP1 REVERT JUMPDEST PUSH1 0x1 DUP2 PUSH1 0x5 ADD PUSH1 0x0 CALLER PUSH20 0xFFFFFFFFFFFFFFFFFFFFFFFFFFFFFFFFFFFFFFFF AND PUSH20 0xFFFFFFFFFFFFFFFFFFFFFFFFFFFFFFFFFFFFFFFF AND DUP2 MSTORE PUSH1 0x20 ADD SWAP1 DUP2 MSTORE PUSH1 0x20 ADD PUSH1 0x0 KECCAK256 PUSH1 0x0 PUSH2 0x100 EXP DUP2 SLOAD DUP2 PUSH1 0xFF MUL NOT AND SWAP1 DUP4 ISZERO ISZERO MUL OR SWAP1 SSTORE POP DUP1 PUSH1 0x4 ADD PUSH1 0x0 DUP2 SLOAD DUP1 SWAP3 SWAP2 SWAP1 PUSH2 0x7F1 SWAP1 PUSH2 0x1411 JUMP JUMPDEST SWAP2 SWAP1 POP SSTORE POP POP POP JUMP JUMPDEST PUSH1 0x6 SLOAD DUP2 JUMP JUMPDEST PUSH1 0x1 PUSH1 0x0 SWAP1 SLOAD SWAP1 PUSH2 0x100 EXP SWAP1 DIV PUSH20 0xFFFFFFFFFFFFFFFFFFFFFFFFFFFFFFFFFFFFFFFF AND PUSH20 0xFFFFFFFFFFFFFFFFFFFFFFFFFFFFFFFFFFFFFFFF AND CALLER PUSH20 0xFFFFFFFFFFFFFFFFFFFFFFFFFFFFFFFFFFFFFFFF AND EQ PUSH2 0x890 JUMPI PUSH1 0x40 MLOAD PUSH32 0x8C379A000000000000000000000000000000000000000000000000000000000 DUP2 MSTORE PUSH1 0x4 ADD PUSH2 0x887 SWAP1 PUSH2 0x115E JUMP JUMPDEST PUSH1 0x40 MLOAD DUP1 SWAP2 SUB SWAP1 REVERT JUMPDEST PUSH1 0x4 SLOAD PUSH1 0x5 SLOAD LT ISZERO PUSH2 0x8A1 JUMPI PUSH1 0x0 DUP1 REVERT JUMPDEST PUSH1 0x0 PUSH1 0x7 PUSH1 0x0 DUP4 DUP2 MSTORE PUSH1 0x20 ADD SWAP1 DUP2 MSTORE PUSH1 0x20 ADD PUSH1 0x0 KECCAK256 SWAP1 POP PUSH1 0x0 ISZERO ISZERO DUP2 PUSH1 0x3 ADD PUSH1 0x0 SWAP1 SLOAD SWAP1 PUSH2 0x100 EXP SWAP1 DIV PUSH1 0xFF AND ISZERO ISZERO EQ PUSH2 0x910 JUMPI PUSH1 0x40 MLOAD PUSH32 0x8C379A000000000000000000000000000000000000000000000000000000000 DUP2 MSTORE PUSH1 0x4 ADD PUSH2 0x907 SWAP1 PUSH2 0x111E JUMP JUMPDEST PUSH1 0x40 MLOAD DUP1 SWAP2 SUB SWAP1 REVERT JUMPDEST PUSH1 0x2 PUSH1 0x6 SLOAD PUSH2 0x91F SWAP2 SWAP1 PUSH2 0x12E1 JUMP JUMPDEST DUP2 PUSH1 0x4 ADD SLOAD GT PUSH2 0x964 JUMPI PUSH1 0x40 MLOAD PUSH32 0x8C379A000000000000000000000000000000000000000000000000000000000 DUP2 MSTORE PUSH1 0x4 ADD PUSH2 0x95B SWAP1 PUSH2 0x11BE JUMP JUMPDEST PUSH1 0x40 MLOAD DUP1 SWAP2 SUB SWAP1 REVERT JUMPDEST DUP1 PUSH1 0x1 ADD PUSH1 0x0 SWAP1 SLOAD SWAP1 PUSH2 0x100 EXP SWAP1 DIV PUSH20 0xFFFFFFFFFFFFFFFFFFFFFFFFFFFFFFFFFFFFFFFF AND PUSH20 0xFFFFFFFFFFFFFFFFFFFFFFFFFFFFFFFFFFFFFFFF AND PUSH2 0x8FC DUP3 PUSH1 0x2 ADD SLOAD SWAP1 DUP2 ISZERO MUL SWAP1 PUSH1 0x40 MLOAD PUSH1 0x0 PUSH1 0x40 MLOAD DUP1 DUP4 SUB DUP2 DUP6 DUP9 DUP9 CALL SWAP4 POP POP POP POP ISZERO DUP1 ISZERO PUSH2 0x9D2 JUMPI RETURNDATASIZE PUSH1 0x0 DUP1 RETURNDATACOPY RETURNDATASIZE PUSH1 0x0 REVERT JUMPDEST POP PUSH1 0x1 DUP2 PUSH1 0x3 ADD PUSH1 0x0 PUSH2 0x100 EXP DUP2 SLOAD DUP2 PUSH1 0xFF MUL NOT AND SWAP1 DUP4 ISZERO ISZERO MUL OR SWAP1 SSTORE POP POP POP JUMP JUMPDEST PUSH1 0x3 SLOAD TIMESTAMP GT DUP1 ISZERO PUSH2 0xA08 JUMPI POP PUSH1 0x4 SLOAD PUSH1 0x5 SLOAD LT JUMPDEST PUSH2 0xA47 JUMPI PUSH1 0x40 MLOAD PUSH32 0x8C379A000000000000000000000000000000000000000000000000000000000 DUP2 MSTORE PUSH1 0x4 ADD PUSH2 0xA3E SWAP1 PUSH2 0x119E JUMP JUMPDEST PUSH1 0x40 MLOAD DUP1 SWAP2 SUB SWAP1 REVERT JUMPDEST PUSH1 0x0 DUP1 PUSH1 0x0 CALLER PUSH20 0xFFFFFFFFFFFFFFFFFFFFFFFFFFFFFFFFFFFFFFFF AND PUSH20 0xFFFFFFFFFFFFFFFFFFFFFFFFFFFFFFFFFFFFFFFF AND DUP2 MSTORE PUSH1 0x20 ADD SWAP1 DUP2 MSTORE PUSH1 0x20 ADD PUSH1 0x0 KECCAK256 SLOAD GT PUSH2 0xAC8 JUMPI PUSH1 0x40 MLOAD PUSH32 0x8C379A000000000000000000000000000000000000000000000000000000000 DUP2 MSTORE PUSH1 0x4 ADD PUSH2 0xABF SWAP1 PUSH2 0x113E JUMP JUMPDEST PUSH1 0x40 MLOAD DUP1 SWAP2 SUB SWAP1 REVERT JUMPDEST PUSH1 0x0 CALLER SWAP1 POP DUP1 PUSH20 0xFFFFFFFFFFFFFFFFFFFFFFFFFFFFFFFFFFFFFFFF AND PUSH2 0x8FC PUSH1 0x0 DUP1 CALLER PUSH20 0xFFFFFFFFFFFFFFFFFFFFFFFFFFFFFFFFFFFFFFFF AND PUSH20 0xFFFFFFFFFFFFFFFFFFFFFFFFFFFFFFFFFFFFFFFF AND DUP2 MSTORE PUSH1 0x20 ADD SWAP1 DUP2 MSTORE PUSH1 0x20 ADD PUSH1 0x0 KECCAK256 SLOAD SWAP1 DUP2 ISZERO MUL SWAP1 PUSH1 0x40 MLOAD PUSH1 0x0 PUSH1 0x40 MLOAD DUP1 DUP4 SUB DUP2 DUP6 DUP9 DUP9 CALL SWAP4 POP POP POP POP ISZERO DUP1 ISZERO PUSH2 0xB51 JUMPI RETURNDATASIZE PUSH1 0x0 DUP1 RETURNDATACOPY RETURNDATASIZE PUSH1 0x0 REVERT JUMPDEST POP PUSH1 0x0 DUP1 PUSH1 0x0 CALLER PUSH20 0xFFFFFFFFFFFFFFFFFFFFFFFFFFFFFFFFFFFFFFFF AND PUSH20 0xFFFFFFFFFFFFFFFFFFFFFFFFFFFFFFFFFFFFFFFF AND DUP2 MSTORE PUSH1 0x20 ADD SWAP1 DUP2 MSTORE PUSH1 0x20 ADD PUSH1 0x0 KECCAK256 DUP2 SWAP1 SSTORE POP POP JUMP JUMPDEST PUSH1 0x0 SELFBALANCE SWAP1 POP SWAP1 JUMP JUMPDEST PUSH1 0x7 PUSH1 0x20 MSTORE DUP1 PUSH1 0x0 MSTORE PUSH1 0x40 PUSH1 0x0 KECCAK256 PUSH1 0x0 SWAP2 POP SWAP1 POP DUP1 PUSH1 0x0 ADD DUP1 SLOAD PUSH2 0xBC4 SWAP1 PUSH2 0x13AE JUMP JUMPDEST DUP1 PUSH1 0x1F ADD PUSH1 0x20 DUP1 SWAP2 DIV MUL PUSH1 0x20 ADD PUSH1 0x40 MLOAD SWAP1 DUP2 ADD PUSH1 0x40 MSTORE DUP1 SWAP3 SWAP2 SWAP1 DUP2 DUP2 MSTORE PUSH1 0x20 ADD DUP3 DUP1 SLOAD PUSH2 0xBF0 SWAP1 PUSH2 0x13AE JUMP JUMPDEST DUP1 ISZERO PUSH2 0xC3D JUMPI DUP1 PUSH1 0x1F LT PUSH2 0xC12 JUMPI PUSH2 0x100 DUP1 DUP4 SLOAD DIV MUL DUP4 MSTORE SWAP2 PUSH1 0x20 ADD SWAP2 PUSH2 0xC3D JUMP JUMPDEST DUP3 ADD SWAP2 SWAP1 PUSH1 0x0 MSTORE PUSH1 0x20 PUSH1 0x0 KECCAK256 SWAP1 JUMPDEST DUP2 SLOAD DUP2 MSTORE SWAP1 PUSH1 0x1 ADD SWAP1 PUSH1 0x20 ADD DUP1 DUP4 GT PUSH2 0xC20 JUMPI DUP3 SWAP1 SUB PUSH1 0x1F AND DUP3 ADD SWAP2 JUMPDEST POP POP POP POP POP SWAP1 DUP1 PUSH1 0x1 ADD PUSH1 0x0 SWAP1 SLOAD SWAP1 PUSH2 0x100 EXP SWAP1 DIV PUSH20 0xFFFFFFFFFFFFFFFFFFFFFFFFFFFFFFFFFFFFFFFF AND SWAP1 DUP1 PUSH1 0x2 ADD SLOAD SWAP1 DUP1 PUSH1 0x3 ADD PUSH1 0x0 SWAP1 SLOAD SWAP1 PUSH2 0x100 EXP SWAP1 DIV PUSH1 0xFF AND SWAP1 DUP1 PUSH1 0x4 ADD SLOAD SWAP1 POP DUP6 JUMP JUMPDEST PUSH1 0x8 SLOAD DUP2 JUMP JUMPDEST PUSH1 0x2 SLOAD DUP2 JUMP JUMPDEST PUSH1 0x4 SLOAD DUP2 JUMP JUMPDEST DUP3 DUP1 SLOAD PUSH2 0xCAA SWAP1 PUSH2 0x13AE JUMP JUMPDEST SWAP1 PUSH1 0x0 MSTORE PUSH1 0x20 PUSH1 0x0 KECCAK256 SWAP1 PUSH1 0x1F ADD PUSH1 0x20 SWAP1 DIV DUP2 ADD SWAP3 DUP3 PUSH2 0xCCC JUMPI PUSH1 0x0 DUP6 SSTORE PUSH2 0xD13 JUMP JUMPDEST DUP3 PUSH1 0x1F LT PUSH2 0xCE5 JUMPI DUP1 MLOAD PUSH1 0xFF NOT AND DUP4 DUP1 ADD OR DUP6 SSTORE PUSH2 0xD13 JUMP JUMPDEST DUP3 DUP1 ADD PUSH1 0x1 ADD DUP6 SSTORE DUP3 ISZERO PUSH2 0xD13 JUMPI SWAP2 DUP3 ADD JUMPDEST DUP3 DUP2 GT ISZERO PUSH2 0xD12 JUMPI DUP3 MLOAD DUP3 SSTORE SWAP2 PUSH1 0x20 ADD SWAP2 SWAP1 PUSH1 0x1 ADD SWAP1 PUSH2 0xCF7 JUMP JUMPDEST JUMPDEST POP SWAP1 POP PUSH2 0xD20 SWAP2 SWAP1 PUSH2 0xD24 JUMP JUMPDEST POP SWAP1 JUMP JUMPDEST JUMPDEST DUP1 DUP3 GT ISZERO PUSH2 0xD3D JUMPI PUSH1 0x0 DUP2 PUSH1 0x0 SWAP1 SSTORE POP PUSH1 0x1 ADD PUSH2 0xD25 JUMP JUMPDEST POP SWAP1 JUMP JUMPDEST PUSH1 0x0 PUSH2 0xD54 PUSH2 0xD4F DUP5 PUSH2 0x123E JUMP JUMPDEST PUSH2 0x1219 JUMP JUMPDEST SWAP1 POP DUP3 DUP2 MSTORE PUSH1 0x20 DUP2 ADD DUP5 DUP5 DUP5 ADD GT ISZERO PUSH2 0xD70 JUMPI PUSH2 0xD6F PUSH2 0x151B JUMP JUMPDEST JUMPDEST PUSH2 0xD7B DUP5 DUP3 DUP6 PUSH2 0x136C JUMP JUMPDEST POP SWAP4 SWAP3 POP POP POP JUMP JUMPDEST PUSH1 0x0 DUP2 CALLDATALOAD SWAP1 POP PUSH2 0xD92 DUP2 PUSH2 0x171E JUMP JUMPDEST SWAP3 SWAP2 POP POP JUMP JUMPDEST PUSH1 0x0 DUP2 CALLDATALOAD SWAP1 POP PUSH2 0xDA7 DUP2 PUSH2 0x1735 JUMP JUMPDEST SWAP3 SWAP2 POP POP JUMP JUMPDEST PUSH1 0x0 DUP3 PUSH1 0x1F DUP4 ADD SLT PUSH2 0xDC2 JUMPI PUSH2 0xDC1 PUSH2 0x1516 JUMP JUMPDEST JUMPDEST DUP2 CALLDATALOAD PUSH2 0xDD2 DUP5 DUP3 PUSH1 0x20 DUP7 ADD PUSH2 0xD41 JUMP JUMPDEST SWAP2 POP POP SWAP3 SWAP2 POP POP JUMP JUMPDEST PUSH1 0x0 DUP2 CALLDATALOAD SWAP1 POP PUSH2 0xDEA DUP2 PUSH2 0x174C JUMP JUMPDEST SWAP3 SWAP2 POP POP JUMP JUMPDEST PUSH1 0x0 PUSH1 0x20 DUP3 DUP5 SUB SLT ISZERO PUSH2 0xE06 JUMPI PUSH2 0xE05 PUSH2 0x1525 JUMP JUMPDEST JUMPDEST PUSH1 0x0 PUSH2 0xE14 DUP5 DUP3 DUP6 ADD PUSH2 0xD83 JUMP JUMPDEST SWAP2 POP POP SWAP3 SWAP2 POP POP JUMP JUMPDEST PUSH1 0x0 DUP1 PUSH1 0x0 PUSH1 0x60 DUP5 DUP7 SUB SLT ISZERO PUSH2 0xE36 JUMPI PUSH2 0xE35 PUSH2 0x1525 JUMP JUMPDEST JUMPDEST PUSH1 0x0 DUP5 ADD CALLDATALOAD PUSH8 0xFFFFFFFFFFFFFFFF DUP2 GT ISZERO PUSH2 0xE54 JUMPI PUSH2 0xE53 PUSH2 0x1520 JUMP JUMPDEST JUMPDEST PUSH2 0xE60 DUP7 DUP3 DUP8 ADD PUSH2 0xDAD JUMP JUMPDEST SWAP4 POP POP PUSH1 0x20 PUSH2 0xE71 DUP7 DUP3 DUP8 ADD PUSH2 0xD98 JUMP JUMPDEST SWAP3 POP POP PUSH1 0x40 PUSH2 0xE82 DUP7 DUP3 DUP8 ADD PUSH2 0xDDB JUMP JUMPDEST SWAP2 POP POP SWAP3 POP SWAP3 POP SWAP3 JUMP JUMPDEST PUSH1 0x0 PUSH1 0x20 DUP3 DUP5 SUB SLT ISZERO PUSH2 0xEA2 JUMPI PUSH2 0xEA1 PUSH2 0x1525 JUMP JUMPDEST JUMPDEST PUSH1 0x0 PUSH2 0xEB0 DUP5 DUP3 DUP6 ADD PUSH2 0xDDB JUMP JUMPDEST SWAP2 POP POP SWAP3 SWAP2 POP POP JUMP JUMPDEST PUSH2 0xEC2 DUP2 PUSH2 0x1324 JUMP JUMPDEST DUP3 MSTORE POP POP JUMP JUMPDEST PUSH2 0xED1 DUP2 PUSH2 0x1312 JUMP JUMPDEST DUP3 MSTORE POP POP JUMP JUMPDEST PUSH2 0xEE0 DUP2 PUSH2 0x1336 JUMP JUMPDEST DUP3 MSTORE POP POP JUMP JUMPDEST PUSH1 0x0 PUSH2 0xEF1 DUP3 PUSH2 0x126F JUMP JUMPDEST PUSH2 0xEFB DUP2 DUP6 PUSH2 0x127A JUMP JUMPDEST SWAP4 POP PUSH2 0xF0B DUP2 DUP6 PUSH1 0x20 DUP7 ADD PUSH2 0x137B JUMP JUMPDEST PUSH2 0xF14 DUP2 PUSH2 0x152A JUMP JUMPDEST DUP5 ADD SWAP2 POP POP SWAP3 SWAP2 POP POP JUMP JUMPDEST PUSH1 0x0 PUSH2 0xF2C PUSH1 0x13 DUP4 PUSH2 0x127A JUMP JUMPDEST SWAP2 POP PUSH2 0xF37 DUP3 PUSH2 0x153B JUMP JUMPDEST PUSH1 0x20 DUP3 ADD SWAP1 POP SWAP2 SWAP1 POP JUMP JUMPDEST PUSH1 0x0 PUSH2 0xF4F PUSH1 0x1F DUP4 PUSH2 0x127A JUMP JUMPDEST SWAP2 POP PUSH2 0xF5A DUP3 PUSH2 0x1564 JUMP JUMPDEST PUSH1 0x20 DUP3 ADD SWAP1 POP SWAP2 SWAP1 POP JUMP JUMPDEST PUSH1 0x0 PUSH2 0xF72 PUSH1 0x1E DUP4 PUSH2 0x127A JUMP JUMPDEST SWAP2 POP PUSH2 0xF7D DUP3 PUSH2 0x158D JUMP JUMPDEST PUSH1 0x20 DUP3 ADD SWAP1 POP SWAP2 SWAP1 POP JUMP JUMPDEST PUSH1 0x0 PUSH2 0xF95 PUSH1 0x21 DUP4 PUSH2 0x127A JUMP JUMPDEST SWAP2 POP PUSH2 0xFA0 DUP3 PUSH2 0x15B6 JUMP JUMPDEST PUSH1 0x40 DUP3 ADD SWAP1 POP SWAP2 SWAP1 POP JUMP JUMPDEST PUSH1 0x0 PUSH2 0xFB8 PUSH1 0x24 DUP4 PUSH2 0x127A JUMP JUMPDEST SWAP2 POP PUSH2 0xFC3 DUP3 PUSH2 0x1605 JUMP JUMPDEST PUSH1 0x40 DUP3 ADD SWAP1 POP SWAP2 SWAP1 POP JUMP JUMPDEST PUSH1 0x0 PUSH2 0xFDB PUSH1 0x19 DUP4 PUSH2 0x127A JUMP JUMPDEST SWAP2 POP PUSH2 0xFE6 DUP3 PUSH2 0x1654 JUMP JUMPDEST PUSH1 0x20 DUP3 ADD SWAP1 POP SWAP2 SWAP1 POP JUMP JUMPDEST PUSH1 0x0 PUSH2 0xFFE PUSH1 0x1F DUP4 PUSH2 0x127A JUMP JUMPDEST SWAP2 POP PUSH2 0x1009 DUP3 PUSH2 0x167D JUMP JUMPDEST PUSH1 0x20 DUP3 ADD SWAP1 POP SWAP2 SWAP1 POP JUMP JUMPDEST PUSH1 0x0 PUSH2 0x1021 PUSH1 0x36 DUP4 PUSH2 0x127A JUMP JUMPDEST SWAP2 POP PUSH2 0x102C DUP3 PUSH2 0x16A6 JUMP JUMPDEST PUSH1 0x40 DUP3 ADD SWAP1 POP SWAP2 SWAP1 POP JUMP JUMPDEST PUSH1 0x0 PUSH2 0x1044 PUSH1 0x16 DUP4 PUSH2 0x127A JUMP JUMPDEST SWAP2 POP PUSH2 0x104F DUP3 PUSH2 0x16F5 JUMP JUMPDEST PUSH1 0x20 DUP3 ADD SWAP1 POP SWAP2 SWAP1 POP JUMP JUMPDEST PUSH2 0x1063 DUP2 PUSH2 0x1362 JUMP JUMPDEST DUP3 MSTORE POP POP JUMP JUMPDEST PUSH1 0x0 PUSH1 0x20 DUP3 ADD SWAP1 POP PUSH2 0x107E PUSH1 0x0 DUP4 ADD DUP5 PUSH2 0xEC8 JUMP JUMPDEST SWAP3 SWAP2 POP POP JUMP JUMPDEST PUSH1 0x0 PUSH1 0xA0 DUP3 ADD SWAP1 POP DUP2 DUP2 SUB PUSH1 0x0 DUP4 ADD MSTORE PUSH2 0x109E DUP2 DUP9 PUSH2 0xEE6 JUMP JUMPDEST SWAP1 POP PUSH2 0x10AD PUSH1 0x20 DUP4 ADD DUP8 PUSH2 0xEB9 JUMP JUMPDEST PUSH2 0x10BA PUSH1 0x40 DUP4 ADD DUP7 PUSH2 0x105A JUMP JUMPDEST PUSH2 0x10C7 PUSH1 0x60 DUP4 ADD DUP6 PUSH2 0xED7 JUMP JUMPDEST PUSH2 0x10D4 PUSH1 0x80 DUP4 ADD DUP5 PUSH2 0x105A JUMP JUMPDEST SWAP7 SWAP6 POP POP POP POP POP POP JUMP JUMPDEST PUSH1 0x0 PUSH1 0x20 DUP3 ADD SWAP1 POP DUP2 DUP2 SUB PUSH1 0x0 DUP4 ADD MSTORE PUSH2 0x10F7 DUP2 PUSH2 0xF1F JUMP JUMPDEST SWAP1 POP SWAP2 SWAP1 POP JUMP JUMPDEST PUSH1 0x0 PUSH1 0x20 DUP3 ADD SWAP1 POP DUP2 DUP2 SUB PUSH1 0x0 DUP4 ADD MSTORE PUSH2 0x1117 DUP2 PUSH2 0xF42 JUMP JUMPDEST SWAP1 POP SWAP2 SWAP1 POP JUMP JUMPDEST PUSH1 0x0 PUSH1 0x20 DUP3 ADD SWAP1 POP DUP2 DUP2 SUB PUSH1 0x0 DUP4 ADD MSTORE PUSH2 0x1137 DUP2 PUSH2 0xF65 JUMP JUMPDEST SWAP1 POP SWAP2 SWAP1 POP JUMP JUMPDEST PUSH1 0x0 PUSH1 0x20 DUP3 ADD SWAP1 POP DUP2 DUP2 SUB PUSH1 0x0 DUP4 ADD MSTORE PUSH2 0x1157 DUP2 PUSH2 0xF88 JUMP JUMPDEST SWAP1 POP SWAP2 SWAP1 POP JUMP JUMPDEST PUSH1 0x0 PUSH1 0x20 DUP3 ADD SWAP1 POP DUP2 DUP2 SUB PUSH1 0x0 DUP4 ADD MSTORE PUSH2 0x1177 DUP2 PUSH2 0xFAB JUMP JUMPDEST SWAP1 POP SWAP2 SWAP1 POP JUMP JUMPDEST PUSH1 0x0 PUSH1 0x20 DUP3 ADD SWAP1 POP DUP2 DUP2 SUB PUSH1 0x0 DUP4 ADD MSTORE PUSH2 0x1197 DUP2 PUSH2 0xFCE JUMP JUMPDEST SWAP1 POP SWAP2 SWAP1 POP JUMP JUMPDEST PUSH1 0x0 PUSH1 0x20 DUP3 ADD SWAP1 POP DUP2 DUP2 SUB PUSH1 0x0 DUP4 ADD MSTORE PUSH2 0x11B7 DUP2 PUSH2 0xFF1 JUMP JUMPDEST SWAP1 POP SWAP2 SWAP1 POP JUMP JUMPDEST PUSH1 0x0 PUSH1 0x20 DUP3 ADD SWAP1 POP DUP2 DUP2 SUB PUSH1 0x0 DUP4 ADD MSTORE PUSH2 0x11D7 DUP2 PUSH2 0x1014 JUMP JUMPDEST SWAP1 POP SWAP2 SWAP1 POP JUMP JUMPDEST PUSH1 0x0 PUSH1 0x20 DUP3 ADD SWAP1 POP DUP2 DUP2 SUB PUSH1 0x0 DUP4 ADD MSTORE PUSH2 0x11F7 DUP2 PUSH2 0x1037 JUMP JUMPDEST SWAP1 POP SWAP2 SWAP1 POP JUMP JUMPDEST PUSH1 0x0 PUSH1 0x20 DUP3 ADD SWAP1 POP PUSH2 0x1213 PUSH1 0x0 DUP4 ADD DUP5 PUSH2 0x105A JUMP JUMPDEST SWAP3 SWAP2 POP POP JUMP JUMPDEST PUSH1 0x0 PUSH2 0x1223 PUSH2 0x1234 JUMP JUMPDEST SWAP1 POP PUSH2 0x122F DUP3 DUP3 PUSH2 0x13E0 JUMP JUMPDEST SWAP2 SWAP1 POP JUMP JUMPDEST PUSH1 0x0 PUSH1 0x40 MLOAD SWAP1 POP SWAP1 JUMP JUMPDEST PUSH1 0x0 PUSH8 0xFFFFFFFFFFFFFFFF DUP3 GT ISZERO PUSH2 0x1259 JUMPI PUSH2 0x1258 PUSH2 0x14E7 JUMP JUMPDEST JUMPDEST PUSH2 0x1262 DUP3 PUSH2 0x152A JUMP JUMPDEST SWAP1 POP PUSH1 0x20 DUP2 ADD SWAP1 POP SWAP2 SWAP1 POP JUMP JUMPDEST PUSH1 0x0 DUP2 MLOAD SWAP1 POP SWAP2 SWAP1 POP JUMP JUMPDEST PUSH1 0x0 DUP3 DUP3 MSTORE PUSH1 0x20 DUP3 ADD SWAP1 POP SWAP3 SWAP2 POP POP JUMP JUMPDEST PUSH1 0x0 PUSH2 0x1296 DUP3 PUSH2 0x1362 JUMP JUMPDEST SWAP2 POP PUSH2 0x12A1 DUP4 PUSH2 0x1362 JUMP JUMPDEST SWAP3 POP DUP3 PUSH32 0xFFFFFFFFFFFFFFFFFFFFFFFFFFFFFFFFFFFFFFFFFFFFFFFFFFFFFFFFFFFFFFFF SUB DUP3 GT ISZERO PUSH2 0x12D6 JUMPI PUSH2 0x12D5 PUSH2 0x145A JUMP JUMPDEST JUMPDEST DUP3 DUP3 ADD SWAP1 POP SWAP3 SWAP2 POP POP JUMP JUMPDEST PUSH1 0x0 PUSH2 0x12EC DUP3 PUSH2 0x1362 JUMP JUMPDEST SWAP2 POP PUSH2 0x12F7 DUP4 PUSH2 0x1362 JUMP JUMPDEST SWAP3 POP DUP3 PUSH2 0x1307 JUMPI PUSH2 0x1306 PUSH2 0x1489 JUMP JUMPDEST JUMPDEST DUP3 DUP3 DIV SWAP1 POP SWAP3 SWAP2 POP POP JUMP JUMPDEST PUSH1 0x0 PUSH2 0x131D DUP3 PUSH2 0x1342 JUMP JUMPDEST SWAP1 POP SWAP2 SWAP1 POP JUMP JUMPDEST PUSH1 0x0 PUSH2 0x132F DUP3 PUSH2 0x1342 JUMP JUMPDEST SWAP1 POP SWAP2 SWAP1 POP JUMP JUMPDEST PUSH1 0x0 DUP2 ISZERO ISZERO SWAP1 POP SWAP2 SWAP1 POP JUMP JUMPDEST PUSH1 0x0 PUSH20 0xFFFFFFFFFFFFFFFFFFFFFFFFFFFFFFFFFFFFFFFF DUP3 AND SWAP1 POP SWAP2 SWAP1 POP JUMP JUMPDEST PUSH1 0x0 DUP2 SWAP1 POP SWAP2 SWAP1 POP JUMP JUMPDEST DUP3 DUP2 DUP4 CALLDATACOPY PUSH1 0x0 DUP4 DUP4 ADD MSTORE POP POP POP JUMP JUMPDEST PUSH1 0x0 JUMPDEST DUP4 DUP2 LT ISZERO PUSH2 0x1399 JUMPI DUP1 DUP3 ADD MLOAD DUP2 DUP5 ADD MSTORE PUSH1 0x20 DUP2 ADD SWAP1 POP PUSH2 0x137E JUMP JUMPDEST DUP4 DUP2 GT ISZERO PUSH2 0x13A8 JUMPI PUSH1 0x0 DUP5 DUP5 ADD MSTORE JUMPDEST POP POP POP POP JUMP JUMPDEST PUSH1 0x0 PUSH1 0x2 DUP3 DIV SWAP1 POP PUSH1 0x1 DUP3 AND DUP1 PUSH2 0x13C6 JUMPI PUSH1 0x7F DUP3 AND SWAP2 POP JUMPDEST PUSH1 0x20 DUP3 LT DUP2 EQ ISZERO PUSH2 0x13DA JUMPI PUSH2 0x13D9 PUSH2 0x14B8 JUMP JUMPDEST JUMPDEST POP SWAP2 SWAP1 POP JUMP JUMPDEST PUSH2 0x13E9 DUP3 PUSH2 0x152A JUMP JUMPDEST DUP2 ADD DUP2 DUP2 LT PUSH8 0xFFFFFFFFFFFFFFFF DUP3 GT OR ISZERO PUSH2 0x1408 JUMPI PUSH2 0x1407 PUSH2 0x14E7 JUMP JUMPDEST JUMPDEST DUP1 PUSH1 0x40 MSTORE POP POP POP JUMP JUMPDEST PUSH1 0x0 PUSH2 0x141C DUP3 PUSH2 0x1362 JUMP JUMPDEST SWAP2 POP PUSH32 0xFFFFFFFFFFFFFFFFFFFFFFFFFFFFFFFFFFFFFFFFFFFFFFFFFFFFFFFFFFFFFFFF DUP3 EQ ISZERO PUSH2 0x144F JUMPI PUSH2 0x144E PUSH2 0x145A JUMP JUMPDEST JUMPDEST PUSH1 0x1 DUP3 ADD SWAP1 POP SWAP2 SWAP1 POP JUMP JUMPDEST PUSH32 0x4E487B7100000000000000000000000000000000000000000000000000000000 PUSH1 0x0 MSTORE PUSH1 0x11 PUSH1 0x4 MSTORE PUSH1 0x24 PUSH1 0x0 REVERT JUMPDEST PUSH32 0x4E487B7100000000000000000000000000000000000000000000000000000000 PUSH1 0x0 MSTORE PUSH1 0x12 PUSH1 0x4 MSTORE PUSH1 0x24 PUSH1 0x0 REVERT JUMPDEST PUSH32 0x4E487B7100000000000000000000000000000000000000000000000000000000 PUSH1 0x0 MSTORE PUSH1 0x22 PUSH1 0x4 MSTORE PUSH1 0x24 PUSH1 0x0 REVERT JUMPDEST PUSH32 0x4E487B7100000000000000000000000000000000000000000000000000000000 PUSH1 0x0 MSTORE PUSH1 0x41 PUSH1 0x4 MSTORE PUSH1 0x24 PUSH1 0x0 REVERT JUMPDEST PUSH1 0x0 DUP1 REVERT JUMPDEST PUSH1 0x0 DUP1 REVERT JUMPDEST PUSH1 0x0 DUP1 REVERT JUMPDEST PUSH1 0x0 DUP1 REVERT JUMPDEST PUSH1 0x0 PUSH1 0x1F NOT PUSH1 0x1F DUP4 ADD AND SWAP1 POP SWAP2 SWAP1 POP JUMP JUMPDEST PUSH32 0x446561646C696E65206861732070617373656400000000000000000000000000 PUSH1 0x0 DUP3 ADD MSTORE POP JUMP JUMPDEST PUSH32 0x4D696E696D756D20636F6E747269627574696F6E206973206E6F74206D657400 PUSH1 0x0 DUP3 ADD MSTORE POP JUMP JUMPDEST PUSH32 0x546865207265717565737420686173206265656E20636F6D706C657465640000 PUSH1 0x0 DUP3 ADD MSTORE POP JUMP JUMPDEST PUSH32 0x4E6F20636F6E747269627574656420616D6F756E74207265666C656374656421 PUSH1 0x0 DUP3 ADD MSTORE PUSH32 0x2100000000000000000000000000000000000000000000000000000000000000 PUSH1 0x20 DUP3 ADD MSTORE POP JUMP JUMPDEST PUSH32 0x4F6E6C79204D616E616765722063616E2063616C6C20746869732066756E6374 PUSH1 0x0 DUP3 ADD MSTORE PUSH32 0x696F6E2100000000000000000000000000000000000000000000000000000000 PUSH1 0x20 DUP3 ADD MSTORE POP JUMP JUMPDEST PUSH32 0x596F75206D757374206265206120636F6E7472696275746F7200000000000000 PUSH1 0x0 DUP3 ADD MSTORE POP JUMP JUMPDEST PUSH32 0x596F7520617265206E6F7420656C696769626C6520666F7220726566756E6400 PUSH1 0x0 DUP3 ADD MSTORE POP JUMP JUMPDEST PUSH32 0x4D616A6F72697479206F6620636F6E7472696275746F727320646F6573206E6F PUSH1 0x0 DUP3 ADD MSTORE PUSH32 0x7420737570706F72742074686973207265717565737400000000000000000000 PUSH1 0x20 DUP3 ADD MSTORE POP JUMP JUMPDEST PUSH32 0x596F75206861766520616C726561647920766F74656400000000000000000000 PUSH1 0x0 DUP3 ADD MSTORE POP JUMP JUMPDEST PUSH2 0x1727 DUP2 PUSH2 0x1312 JUMP JUMPDEST DUP2 EQ PUSH2 0x1732 JUMPI PUSH1 0x0 DUP1 REVERT JUMPDEST POP JUMP JUMPDEST PUSH2 0x173E DUP2 PUSH2 0x1324 JUMP JUMPDEST DUP2 EQ PUSH2 0x1749 JUMPI PUSH1 0x0 DUP1 REVERT JUMPDEST POP JUMP JUMPDEST PUSH2 0x1755 DUP2 PUSH2 0x1362 JUMP JUMPDEST DUP2 EQ PUSH2 0x1760 JUMPI PUSH1 0x0 DUP1 REVERT JUMPDEST POP JUMP INVALID LOG2 PUSH5 0x6970667358 0x22 SLT KECCAK256 DUP11 LOG3 0xD3 PUSH9 0xBF0B195A874A8B33D1 CODESIZE 0xFC 0xCC LOG4 0x23 KECCAK256 LT 0x1E 0xD6 POP 0x23 PUSH16 0x5FE0EAB55B9A9D64736F6C6343000807 STOP CALLER "
				},
				"gasEstimates": {
					"creation": {
						"codeDepositCost": "1208200",
						"executionCost": "infinite",
						"totalCost": "infinite"
					},
					"external": {
						"contributors(address)": "2860",
						"createRequests(string,address,uint256)": "infinite",
						"deadline()": "2497",
						"getContractBalance()": "428",
						"makePayment(uint256)": "infinite",
						"manager()": "2581",
						"minContribution()": "2495",
						"noOfContributors()": "2452",
						"numRequests()": "2473",
						"raisedAmt()": "2474",
						"refund()": "infinite",
						"requests(uint256)": "infinite",
						"sendEth()": "infinite",
						"target()": "2517",
						"voteRequest(uint256)": "infinite"
					}
				},
				"methodIdentifiers": {
					"contributors(address)": "1f6d4942",
					"createRequests(string,address,uint256)": "3eb7647b",
					"deadline()": "29dcb0cf",
					"getContractBalance()": "6f9fb98a",
					"makePayment(uint256)": "5114cb52",
					"manager()": "481c6a75",
					"minContribution()": "aaffadf3",
					"noOfContributors()": "4e260f6f",
					"numRequests()": "9fb42b1f",
					"raisedAmt()": "3ece2b4f",
					"refund()": "590e1ae3",
					"requests(uint256)": "81d12c58",
					"sendEth()": "06e99fef",
					"target()": "d4b83992",
					"voteRequest(uint256)": "4cb6f4a5"
				}
			},
			"storageLayout": {
				"storage": [
					{
						"astId": 5,
						"contract": "contracts/CrowdFunding.sol:CrowdFunding",
						"label": "contributors",
						"offset": 0,
						"slot": "0",
						"type": "t_mapping(t_address,t_uint256)"
					},
					{
						"astId": 7,
						"contract": "contracts/CrowdFunding.sol:CrowdFunding",
						"label": "manager",
						"offset": 0,
						"slot": "1",
						"type": "t_address"
					},
					{
						"astId": 9,
						"contract": "contracts/CrowdFunding.sol:CrowdFunding",
						"label": "minContribution",
						"offset": 0,
						"slot": "2",
						"type": "t_uint256"
					},
					{
						"astId": 11,
						"contract": "contracts/CrowdFunding.sol:CrowdFunding",
						"label": "deadline",
						"offset": 0,
						"slot": "3",
						"type": "t_uint256"
					},
					{
						"astId": 13,
						"contract": "contracts/CrowdFunding.sol:CrowdFunding",
						"label": "target",
						"offset": 0,
						"slot": "4",
						"type": "t_uint256"
					},
					{
						"astId": 15,
						"contract": "contracts/CrowdFunding.sol:CrowdFunding",
						"label": "raisedAmt",
						"offset": 0,
						"slot": "5",
						"type": "t_uint256"
					},
					{
						"astId": 17,
						"contract": "contracts/CrowdFunding.sol:CrowdFunding",
						"label": "noOfContributors",
						"offset": 0,
						"slot": "6",
						"type": "t_uint256"
					},
					{
						"astId": 37,
						"contract": "contracts/CrowdFunding.sol:CrowdFunding",
						"label": "requests",
						"offset": 0,
						"slot": "7",
						"type": "t_mapping(t_uint256,t_struct(Request)32_storage)"
					},
					{
						"astId": 39,
						"contract": "contracts/CrowdFunding.sol:CrowdFunding",
						"label": "numRequests",
						"offset": 0,
						"slot": "8",
						"type": "t_uint256"
					}
				],
				"types": {
					"t_address": {
						"encoding": "inplace",
						"label": "address",
						"numberOfBytes": "20"
					},
					"t_address_payable": {
						"encoding": "inplace",
						"label": "address payable",
						"numberOfBytes": "20"
					},
					"t_bool": {
						"encoding": "inplace",
						"label": "bool",
						"numberOfBytes": "1"
					},
					"t_mapping(t_address,t_bool)": {
						"encoding": "mapping",
						"key": "t_address",
						"label": "mapping(address => bool)",
						"numberOfBytes": "32",
						"value": "t_bool"
					},
					"t_mapping(t_address,t_uint256)": {
						"encoding": "mapping",
						"key": "t_address",
						"label": "mapping(address => uint256)",
						"numberOfBytes": "32",
						"value": "t_uint256"
					},
					"t_mapping(t_uint256,t_struct(Request)32_storage)": {
						"encoding": "mapping",
						"key": "t_uint256",
						"label": "mapping(uint256 => struct CrowdFunding.Request)",
						"numberOfBytes": "32",
						"value": "t_struct(Request)32_storage"
					},
					"t_string_storage": {
						"encoding": "bytes",
						"label": "string",
						"numberOfBytes": "32"
					},
					"t_struct(Request)32_storage": {
						"encoding": "inplace",
						"label": "struct CrowdFunding.Request",
						"members": [
							{
								"astId": 19,
								"contract": "contracts/CrowdFunding.sol:CrowdFunding",
								"label": "description",
								"offset": 0,
								"slot": "0",
								"type": "t_string_storage"
							},
							{
								"astId": 21,
								"contract": "contracts/CrowdFunding.sol:CrowdFunding",
								"label": "recipient",
								"offset": 0,
								"slot": "1",
								"type": "t_address_payable"
							},
							{
								"astId": 23,
								"contract": "contracts/CrowdFunding.sol:CrowdFunding",
								"label": "value",
								"offset": 0,
								"slot": "2",
								"type": "t_uint256"
							},
							{
								"astId": 25,
								"contract": "contracts/CrowdFunding.sol:CrowdFunding",
								"label": "completed",
								"offset": 0,
								"slot": "3",
								"type": "t_bool"
							},
							{
								"astId": 27,
								"contract": "contracts/CrowdFunding.sol:CrowdFunding",
								"label": "noOfVoters",
								"offset": 0,
								"slot": "4",
								"type": "t_uint256"
							},
							{
								"astId": 31,
								"contract": "contracts/CrowdFunding.sol:CrowdFunding",
								"label": "voters",
								"offset": 0,
								"slot": "5",
								"type": "t_mapping(t_address,t_bool)"
							}
						],
						"numberOfBytes": "192"
					},
					"t_uint256": {
						"encoding": "inplace",
						"label": "uint256",
						"numberOfBytes": "32"
					}
				}
			},
			"userdoc": {
				"kind": "user",
				"methods": {},
				"version": 1
			}
		}
	}
}